:100000000C94D9010C9401020C9401020C941C0E66
:100010000C941C0E0C941C0E0C9401020C94010206
:100020000C9401020C9401020C9401020C94010244
:100030000C9401020C9401020C9401020C94010234
:100040000C949F040C9401020C941C030C94F60273
:100050000C9401020C9401020C9401020C94010214
:100060000C94260E0C9401023E2454245424522451
:1000700054243C24542454245424302454245424FC
:10008000452450244E245424542454244C24080041
:100090000000BE922449123EABAAAA2ABECDCCCC07
:1000A0004C3E00000080BEABAAAAAA3E00000000A1
:1000B000BF000000803F0000000000084178D3BB73
:1000C0004387D1133D190E3CC3BD4282AD2B3E6820
:1000D000EC8276BED98FE1A93E4C80EFFFBE01C411
:1000E000FF7F3F000000000041542B474D5200416C
:1000F000542B4349504D55583D0041542B43574DC7
:100100004F44453D0041542B43574D4F44453F001C
:1001100041542B4349465352004154450032323A30
:1001200033383A3236004A616E2020342032303182
:100130003700B5182D18F3176718D70AD70AD70A4A
:10014000B9177F17BA0D460C380C110D6A0CD70A77
:10015000D70A540C8C102A0C1C0C0E0CD70AD70A88
:10016000D70AD70AD70AD70AD70AD70AD70AD70A87
:10017000D70AD80AD80AD80AD80AD80AD80AD80A70
:10018000D80AD80AD80AD80AD80AD80AD80AD80A5F
:10019000D80AD80AD80AD80AD80AD80AD80AD80A4F
:1001A000D80AD80AD80AD80AD80AD80AD80AD80A3F
:1001B000D80A000000080002010000030407000044
:1001C00000000000000000000000240027002A00BA
:1001D00000000000250028002B0076657200302EFC
:1001E000342E3300682D6265617400313000627511
:1001F00066662D696E0032353600646576004172A0
:100200006475696E6F20556E6F00637075004154A0
:100210006D6567613332385000636F6E004553502F
:1002200038323636006275696C64004A616E20208F
:100230003420323031372032323A33383A323600D5
:1002400000000000002300260029002C0041542B50
:1002500043495053454E443D0041542B434950437C
:100260004C4F53453D00222C00222C22002C220012
:1002700041542B43495053544152543D00220022D3
:100280002C220041542B43574A41503D2200040484
:10029000040404040404020202020202030303032E
:1002A000030301020408102040800102040810200A
:1002B00001020408102000407A10F35A00A0724E88
:1002C00018090010A5D4E80000E87648170000E4FB
:1002D0000B54020000CA9A3B000000E1F505000043
:1002E00080969800000040420F000000A0860100A8
:1002F0000000102700000000E80300000000640078
:10030000000000000A0000000000010000000000E2
:100310002C76D888DC674F0823DFC1DFAE59E1B106
:10032000B796E5E3E453C63AE651997696E8E6C215
:100330008426EB898C9B62ED407C6FFCEFBC9C9F1C
:1003400040F2BAA56FA5F490055A2AF75C936B6C3E
:10035000F9676DC11BFCE0E40D47FEF520E6B50032
:10036000D0ED902E0300943577050080841E0800A0
:1003700000204E0A000000C80C333333330F986E50
:1003800012831141EF8D2114893BE65516CFFEE60D
:10039000DB18D1844B381BF77C1D901DA4BBE424D3
:1003A000203284725E228100C9F124ECA1E53D2750
:1003B000182C11241FBECFEFD8E0DEBFCDBF12E056
:1003C000A0E0B1E0E4EAFCE602C005900D92A034A2
:1003D000B107D9F726E0A0E4B2E001C01D92A53034
:1003E000B207E1F711E0C9EDD1E004C02197FE01A9
:1003F0000E948B2DC83DD107C9F70E94E9200C94BB
:1004000050360C940000FC01918D828D981761F09C
:10041000828DDF01A80FB11D5D968C91928D9F5F3B
:100420009F73928F90E008958FEF9FEF0895FC01E6
:10043000918D828D981731F0828DE80FF11D858D99
:1004400090E008958FEF9FEF0895FC01918D228D2C
:10045000892F90E0805C9F4F821B91098F739927B1
:10046000089586E394E00E94250221E0892B09F497
:1004700020E0822F0895FC01848DDF01A80FB11DBB
:10048000A35ABF4F2C91848D90E001968F739927CA
:10049000848FA689B7892C93A089B1898C918064B7
:1004A0008C93938D848D981306C00288F389E02D78
:1004B00080818F7D80830895EF92FF920F931F9329
:1004C000CF93DF93EC0181E0888F9B8D8C8D981307
:1004D00005C0E889F989808185FD24C0F62E0B8D41
:1004E00010E00F5F1F4F0F731127E02E8C8DE81265
:1004F0000CC00FB607FCFACFE889F989808185FF27
:10050000F5CFCE010E943B02F1CF8B8DFE01E80FAB
:10051000F11DE35AFF4FF0820B8FEA89FB8980813E
:10052000806207C0EE89FF896083E889F98980814C
:100530008064808381E090E0DF91CF911F910F91E3
:10054000FF90EF900895CF93DF93EC01888D88237F
:10055000C9F0EA89FB89808185FD05C0A889B98930
:100560008C9186FD0FC00FB607FCF5CF808185FF0B
:10057000F2CFA889B9898C9185FFEDCFCE010E9479
:100580003B02E7CFDF91CF91089580E090E0892B87
:1005900029F00E94310281110C94000008953FB7A8
:1005A000F8948091510290915202A0915302B0911F
:1005B000540226B5A89B05C02F3F19F00196A11D36
:1005C000B11D3FBFBA2FA92F982F8827820F911DE9
:1005D000A11DB11DBC01CD0142E0660F771F881F30
:1005E000991F4A95D1F708950E94FA2F1F920F92F2
:1005F0000FB60F9211242F933F934F935F936F93F6
:100600007F938F939F93AF93BF93EF93FF9386E373
:1006100094E00E943B02FF91EF91BF91AF919F91B7
:100620008F917F916F915F914F913F912F910F909B
:100630000FBE0F901F9018951F920F920FB60F923A
:1006400011242F938F939F93EF93FF93E091460490
:10065000F09147048081E0914C04F0914D0482FDBB
:1006600012C0908180914F048F5F8F73209150044E
:10067000821751F0E0914F04F0E0EA5CFB4F958F58
:1006800080934F0401C08081FF91EF919F918F91E2
:100690002F910F900FBE0F901F901895833081F00F
:1006A00028F4813099F08230A1F008958730A9F0C4
:1006B0008830B9F08430D1F4809180008F7D03C000
:1006C000809180008F7780938000089584B58F7724
:1006D00002C084B58F7D84BD08958091B0008F776E
:1006E00003C08091B0008F7D8093B00008951F9368
:1006F000CF93DF93282F30E0F901EE54FE4F849121
:10070000F901EE55FD4FD491F901E257FD4FC49127
:10071000CC23C9F0162F81110E944E03EC2FF0E07C
:10072000EE0FFF1FE053FE4FA591B4918FB7F894E1
:10073000111105C09C91ED2FE095E92302C0EC91C9
:10074000ED2BEC938FBFDF91CF911F910895CF9345
:10075000DF9390E0FC01EE55FD4F2491FC01E25740
:10076000FD4F8491882361F190E0880F991FFC016F
:10077000EA53FE4FC591D491FC01E053FE4FA59181
:10078000B491611109C09FB7F894888120958223A4
:100790008883EC912E230BC0623061F49FB7F894EC
:1007A0003881822F809583238883EC912E2B2C9384
:1007B0009FBF06C08FB7F894E8812E2B28838FBF88
:1007C000DF91CF9108951F93CF93DF93182FEB0103
:1007D00061E00E94A703209711F460E004C0CF3FBE
:1007E000D10539F461E0812FDF91CF911F910C94F5
:1007F0007703E12FF0E0EE54FE4FE491E330F9F09F
:1008000048F4E130B9F0E230A1F584B5806284BDEE
:10081000C8BD34C0E730E9F0E83019F1E43049F5FB
:1008200080918000806280938000D0938B00C09381
:100830008A0024C084B5806884BDC7BD1FC0809174
:100840008000806880938000D0938900C0938800E6
:1008500015C08091B00080688093B000C093B30051
:100860000DC08091B00080628093B000C093B4004E
:1008700005C0C038D1050CF0B5CFAFCFDF91CF9117
:100880001F9108958E3008F08E5087708064809399
:100890007C0080917A00806480937A0080917A0055
:1008A00086FDFCCF809178002091790090E0922B1A
:1008B00008958F929F92AF92BF92CF92DF92EF9264
:1008C000FF926B017C010E94CF024B015C01C114BD
:1008D000D104E104F104F1F00E94CF02DC01CB016C
:1008E00088199909AA09BB09883E9340A105B10559
:1008F00070F321E0C21AD108E108F10888EE880EF1
:1009000083E0981EA11CB11CC114D104E104F104C0
:1009100019F7DDCFFF90EF90DF90CF90BF90AF90B1
:100920009F908F9008952FB7F89460914D02709129
:100930004E0280914F02909150022FBF08951F9256
:100940000F920FB60F9211242F933F938F939F9383
:10095000AF93BF9380914D0290914E02A0914F02B0
:10096000B091500230914C0223E0230F2D3720F438
:100970000196A11DB11D05C026E8230F0296A11DF9
:10098000B11D20934C0280934D0290934E02A09390
:100990004F02B09350028091510290915202A09167
:1009A0005302B09154020196A11DB11D80935102D2
:1009B00090935202A0935302B0935402BF91AF910F
:1009C0009F918F913F912F910F900FBE0F901F908D
:1009D0001895CF92DF92EF92FF920F931F93CF93D0
:1009E000DF93EC0181E08093F10288E680931303AA
:1009F0001092F2021092140360E085E193E00E94ED
:100A0000670B81E00E94BC1F87E090E00E943A12D1
:100A100085E193E00E941B0B8F77982F92959F7032
:100A20001AEF082F919F000D112485E193E00E9499
:100A30001B0B9C01332794E0359527959A95E1F798
:100A4000F82E129FF00C112485E193E00E941B0BFD
:100A50009C01332744E0359527954A95E1F7E82E28
:100A6000129FE00C112485E193E00E941B0B85E1AD
:100A700093E00E941B0B9C01332754E0359527958A
:100A80005A95E1F7D82E129FD00C112485E193E0FE
:100A90000E941B0B9C01332764E0359527956A95CE
:100AA000E1F7C82E129FC00C112485E193E00E944B
:100AB0001B0B9C01332774E0359527957A95E1F758
:100AC000129F800D11248883C982DA82EB82FC8216
:100AD0000D83CE01DF91CF911F910F91FF90EF9089
:100AE000DF90CF9008950F931F93CF938C0181E0F7
:100AF0008093F10288E6809313031092F202109221
:100B0000140360E085E193E00E94670BF801258102
:100B1000CAE0822F6C2F0E943E2D682F660F860F31
:100B2000682F660F620F85E193E00E94670BF80162
:100B30002481822F6C2F0E943E2D682F660F860F16
:100B4000682F660F620F85E193E00E94670BF80142
:100B50002381822F6C2F0E943E2D682F660F860FF7
:100B6000682F660F620F85E193E00E94670B60E0DB
:100B700085E193E00E94670BF8012281822F6C2FA0
:100B80000E943E2D682F660F860F682F660F620F3A
:100B900085E193E00E94670BF8012181822F6C2F81
:100BA0000E943E2D682F660F860F682F660F620F1A
:100BB00085E193E00E94670BF8012081822F6C2F62
:100BC0000E943E2D682F660F860F682F660F620FFA
:100BD00085E193E00E94670B81E0CF911F910F9117
:100BE0000C94BC1FFC01908190539A3008F090E067
:100BF000818180532AE0929F800D112408952F92C5
:100C00003F924F925F926F927F928F929F92AF929C
:100C1000BF92CF92DF92EF92FF920F931F93CF93E9
:100C2000DF9300D000D000D0CDB7DEB75C016B0100
:100C30006FE971E0CE0101960E947615BE016F5FEB
:100C40007F4FC6010E94B7144C01CE0101960E944D
:100C500068152FEF8216920629F460E070E080E0BC
:100C600090E0A4C085E0880E911CD60114960D91E9
:100C70001C9115978016910678F46D907C906AE32C
:100C800070E0C301880D991D0E940830009721F083
:100C90007C01E618F70803C0EE24EA94FE2C170145
:100CA0000F2C000C44085508BFEF2B163B064B06D3
:100CB0005B0699F28016910680F4F60160807180DF
:100CC0006CE270E0C301880D991D0E940830009706
:100CD00021F08C010619170902C00FEF1FEFC801A0
:100CE000012E000CAA0BBB0B8F3FFFEF9F07AF0736
:100CF000BF07A1F182159305A405B5057CF5980100
:100D0000A401B601CE0101960E943917CE010196C9
:100D10000E94AC14962ECE0101960E94681524E024
:100D2000291508F49ACFA8014F5F5F4F9701B601CC
:100D3000CE0101960E943917CE0101960E94AC1493
:100D40006B017C01CE0101960E9468151C141D04E4
:100D50001E041F040CF081CF892D18C09701A40137
:100D6000B601CE0101960E943917CE0101960E946C
:100D7000AC146B017C01CE0101960E9468151C1415
:100D80001D041E041F040CF068CF8FEFD5011296CE
:100D9000ED91FC911397309739F014962D913C9179
:100DA0001597B701A6010995B601C70126960FB69A
:100DB000F894DEBF0FBECDBFDF91CF911F910F9191
:100DC000FF90EF90DF90CF90BF90AF909F908F906B
:100DD0007F906F905F904F903F902F9008952F924B
:100DE0003F924F925F926F927F928F929F92AF92BB
:100DF000BF92CF92DF92EF92FF920F931F93CF9308
:100E0000DF93EC011B014A015901270138016EE60D
:100E100071E00E9476150E9493046B017C010E9490
:100E20009304DC01CB018C199D09AE09BF0984151F
:100E30009505A605B705B8F5D1018D919C91DC010A
:100E4000ED91FC910480F581E02D099518161906A5
:100E500034F7D1018D919C91DC01ED91FC910680DC
:100E6000F781E02D0995882339F3682FCE010E9480
:100E7000D114B401CE010E94B7140196A1F4B501BA
:100E8000CE010E94B714019671F4BE01C1010E9407
:100E9000FF05672B682B692B79F26EE671E0CE01B6
:100EA0000E940115C9CFCE01DF91CF911F910F9103
:100EB000FF90EF90DF90CF90BF90AF909F908F907A
:100EC0007F906F905F904F903F902F9008954F923A
:100ED0005F926F927F928F929F92AF92BF92CF92CA
:100EE000DF92EF92FF920F931F93CF93DF93EC016A
:100EF0007B016A01480159016EE671E00E94761596
:100F00000E9493042B013C010E949304DC01CB015D
:100F100084199509A609B70988159905AA05BB057D
:100F200088F5F70180819181DC01ED91FC910480CD
:100F3000F581E02D09951816190634F7D7018D9122
:100F40009C91DC01ED91FC910680F781E02D0995E3
:100F5000882339F3682FCE010E94D114B601CE0147
:100F60000E94B714019671F4BE01C7010E94FF05EB
:100F7000672B682B692BA9F26EE671E0CE010E9407
:100F80000115CFCFCE01DF91CF911F910F91FF902F
:100F9000EF90DF90CF90BF90AF909F908F907F9019
:100FA0006F905F904F9008952F923F924F925F9273
:100FB0006F927F928F929F92AF92BF92CF92DF9269
:100FC000EF92FF920F931F93CF93DF93CDB7DEB7CE
:100FD00062970FB6F894DEBF0FBECDBF2C013B0168
:100FE0004A01190158016EE671E0CE0101960E9496
:100FF0007615B301CE0107960E946D159701860103
:10100000AE01495F5F4FB201CE010D960E946707A6
:10101000BE01635F7F4FCE0101960E942F15CE0166
:101020000D960E946815CE0107960E946815B301BF
:10103000CE0101960E94B714019609F494C0B40140
:10104000CE0101960E94B7142C01990F660877080B
:10105000B101CE0101960E94B7149C01092E000C2B
:10106000AA0BBB0B4FEF441654066406740679F0C6
:101070008F3F9F4FAF4FBF4F21F1F4018481958186
:10108000B301A201480F591F611D711D07C08F3F99
:101090009F4FAF4FBF4FA9F040E050E0BE016F5FE0
:1010A0007F4FCE0107960E943917BE01695F7F4FBF
:1010B000C5010E942F15CE0107960E94681511E008
:1010C00059C064E671E0CE0107960E947615BE0114
:1010D000695F7F4FC5010E94B7144C01CE0107968E
:1010E0000E9468152FEF82169206A1F0940140E04D
:1010F00050E0BE016F5F7F4FCE0107960E94391707
:10110000BE01695F7F4FC5010E942F15CE01079672
:101110000E94681566E671E0CE0107960E9476157A
:10112000BE01695F7F4FC5010E94B7144C01CE011B
:1011300007960E9468154FEF84169406A1F094015B
:1011400040E050E0BE016F5F7F4FCE0107960E94E6
:101150003917BE01695F7F4FC5010E942F15CE016F
:1011600007960E946815BE016F5F7F4FC5010E9400
:10117000181510E0CE0101960E946815812F629625
:101180000FB6F894DEBF0FBECDBFDF91CF911F9198
:101190000F91FF90EF90DF90CF90BF90AF909F9016
:1011A0008F907F906F905F904F903F902F90089519
:1011B000CF92DF92EF92FF920F931F93CF93DF9323
:1011C000CDB7DEB766970FB6F894DEBF0FBECDBFC2
:1011D0006C017B016EE671E0CE0101962B8B3C8B9E
:1011E0004D8B5E8B0E947615B701CE0107960E944B
:1011F0006D152B893C894D895E8989019A01AE0163
:10120000495F5F4FB601CE010D960E946707BE0190
:10121000635F7F4FCE0101960E942F15CE010D9680
:101220000E946815CE0107960E946815B701CE018D
:1012300001960E94B7147C01CE0101960E946815A8
:1012400081E0EF20E09409F480E066960FB6F89410
:10125000DEBF0FBECDBFDF91CF911F910F91FF90E9
:10126000EF90DF90CF900895CF92DF92EF92FF92B0
:101270000F931F93CF93DF9300D000D000D0CDB752
:10128000DEB78C016EE671E0CE0101960E94761504
:101290000E9493046B017C010E949304AB01BC018A
:1012A0004C195D096E097F094A30510561057105C8
:1012B00070F5D8018D919C91DC01ED91FC91048039
:1012C000F581E02D0995892B39F3F8018081918111
:1012D000DC01ED91FC910680F781E02D09958823D2
:1012E000D9F2682FCE0101960E94D114BE016F5F22
:1012F0007F4FC8010E94FF05672B682B692B41F2C5
:101300006EE671E0CE0101960E940115C1CFCE01BB
:1013100001960E94681526960FB6F894DEBF0FBEA0
:10132000CDBFDF91CF911F910F91FF90EF90DF9094
:10133000CF9008958F929F92AF92BF92EF92FF92BB
:101340000F931F93CF93DF93EC018881882309F4D7
:1013500094C089859A85892B09F48FC00E949304D3
:101360002AE030E040E050E00E944A2D89819A81D5
:101370008901081B190B8D819E810817190708F434
:101380007EC0B80180E090E00E94D5344B015C0142
:1013900089859A85BC0180E090E00E94D5349B014C
:1013A000AC01C501B4010E94FE2D4B015C019B0103
:1013B000AC016B857C858D859E850E94922D6B8707
:1013C0007C878D879E8720E030E040E85FE3C501A1
:1013D000B4010E94A62E688587FD0FC080E090E0D2
:1013E000A8ECB2E48B879C87AD87BE871A861986E6
:1013F00070E0CE010E94F40D40C0EF80F12C862FEA
:1014000090E08E199F09BC01990F880B990B0E94DF
:10141000D734A50194010E9436354B015C0120E0D0
:1014200030E0A9010E94A62E20E030E040E05FE31A
:1014300087FD05C0C501B4010E94922D04C0C501FD
:10144000B4010E94912D0E94702E6E0D7F1DCE0161
:101450000E94F40D89859A85801B910B9A87898754
:101460000E9493042AE030E040E050E00E944A2DC0
:1014700029833A834B835C8302C080E001C081E012
:10148000DF91CF911F910F91FF90EF90BF90AF90A0
:101490009F908F900895FC018081882329F081E03E
:1014A00021853285232B09F480E00895AF92BF9205
:1014B000CF92DF92EF92FF921F93CF93DF93EC01D5
:1014C0001A8619861B861C861D861E86888188239F
:1014D00009F463C01F81611709F45FC0A62EB12C07
:1014E0004531510568F4B501CE01DF91CF911F91CF
:1014F000FF90EF90DF90CF90BF90AF900C94F40DE1
:101500005A8749876887BA0180E090E00E94D53405
:101510006B017C01812F90E08A199B0997FF03C022
:10152000919581959109BC01990F880B990B0E94A7
:10153000D7349B01AC01C701B6010E94FE2D6B019F
:101540007C0120E030E0A9010E94A62E20E030E0DE
:1015500040E05FE387FD05C0C701B6010E94922D00
:1015600004C0C701B6010E94912D0E94702E643103
:10157000710518F07E836D8304C084E190E09E8342
:101580008D830E9493042AE030E040E050E00E9406
:101590004A2D29833A834B835C83DF91CF911F913E
:1015A000FF90EF90DF90CF90BF90AF900895089597
:1015B000089585ED8093BC008091BC0084FDFCCF34
:1015C0001092F002089540917902262F30E0240F06
:1015D000311D21323105DCF42091F0022430C9F4B0
:1015E000FC0180E090E0861758F430917902219157
:1015F000DC01A95ABD4FA30FB11D2C930196F3CF67
:1016000080917902680F6093790280E0089581E00B
:10161000089582E008950895E091A1028091A002CA
:10162000E81730F4F0E0EE55FD4F808190E008952A
:101630008FEF9FEF08959091A1028091A0029817DB
:1016400050F4E92FF0E0EE55FD4F208130E09F5F30
:101650009093A10202C02FEF3FEFC901089580913E
:10166000A00290E02091A102821B91090895CF92DF
:10167000DF92EF92FF920F931F93CF93DF937C0142
:10168000262F972F8A018091F102882391F0C62F8F
:10169000D72F6E01C40ED51ECC15DD0571F06991F2
:1016A000D701ED91FC910190F081E02DC7010995E2
:1016B000F3CF642F822F0E94E30AC801DF91CF91FC
:1016C0001F910F91FF90EF90DF90CF900895CF93EF
:1016D000DF931F92CDB7DEB769832091F1022223F9
:1016E000D1F020911403203240F021E030E0FC01E1
:1016F0003383228380E090E015C08091F202E82FCE
:10170000F0E0ED50FD4F998190838F5F8093F2025E
:101710008093140305C061E0CE0101960E94E30AA4
:1017200081E090E00F90DF91CF910895AF92BF924A
:10173000CF92DF92EF92FF920F931F93CF93DF939D
:101740001F92CDB7DEB75C017B018B016C0184E099
:10175000C80ED11CF80161918F01C50169830E94F7
:10176000F4356981681719F0C5010E94FC35FFEF57
:10177000AF1ABF0AAC14BD0469F7C7010F90DF911F
:10178000CF911F910F91FF90EF90DF90CF90BF907E
:10179000AF900895CF92DF92EF92FF920F931F9335
:1017A000CF93DF93EB017B0124E0E20EF11C8B0170
:1017B0006C01C61AD70AC601800F911F0E94F4352A
:1017C000F80181938F01EE15FF05A9F7CE01DF9196
:1017D000CF911F910F91FF90EF90DF90CF900895E0
:1017E0000F931F93CF93DF931F92CDB7DEB78C017A
:1017F00069830E94F4356981681741F0C8010F9030
:10180000DF91CF911F910F910C94FC350F90DF91D8
:10181000CF911F910F9108950C94F435FB018081B5
:1018200091810E94B7316093050170930601809306
:101830000701909308010895FB01808191810E9426
:10184000B73160930C0170930D0180930E0190935A
:101850000F010895FB01808191810E94B73160934F
:101860001401709315018093160190931701089548
:10187000FB01808191810E94B73160931F017093B9
:10188000200180932101909322010895FB01808122
:1018900091810E94B731609323017093240180935A
:1018A0002501909326010895FB01808191810E947A
:1018B000993180932701282F30E0A0E7B7E10E94FB
:1018C000413660931B0170931C0180931D0190931E
:1018D0001E010895FB01808191810E9499318093BE
:1018E0005602813009F09CC080E090E00E940C0C10
:1018F00080931A0181E090E00E940C0C8093120109
:1019000082E090E00E940C0C80930A0183E090E05A
:101910000E940C0C8093030184E090E00E940C0C68
:101920008093440285E090E00E940C0C80931301A8
:1019300086E090E00E940C0C80930B0187E090E021
:101940000E940C0C8093040188E090E00E940C0C33
:101950008093190189E090E00E940C0C80931101A2
:101960008AE090E00E940C0C809309018BE090E0EB
:101970000E940C0C809302018CE090E00E940C0C01
:10198000809318018DE090E00E940C0C8093100170
:101990008EE090E00E940C0C809341028FE090E07A
:1019A0000E940C0C8093010180E190E00E940C0CDD
:1019B0008093430281E190E00E940C0C80934202EC
:1019C00082E190E00E940C0C8093400283E190E061
:1019D0000E940C0C8093000163E271E084E190E0CE
:1019E0000E94CA0B6FE171E088E190E00E94CA0B8F
:1019F00064E171E08CE190E00E94CA0B6CE071E060
:101A000080E290E00E94CA0B65E071E084E290E021
:101A10000E94CA0B6BE171E088E290E00C94CA0B63
:101A20000895FB01808191810E9499318093550234
:101A3000813009F09EC060911A0180E090E00E9420
:101A4000F00B6091120181E090E00E94F00B609138
:101A50000A0182E090E00E94F00B6091030183E0B4
:101A600090E00E94F00B6091440284E090E00E94BC
:101A7000F00B6091130185E090E00E94F00B609103
:101A80000B0186E090E00E94F00B6091040187E07A
:101A900090E00E94F00B6091190188E090E00E94B4
:101AA000F00B6091110189E090E00E94F00B6091D1
:101AB00009018AE090E00E94F00B609102018BE046
:101AC00090E00E94F00B609118018CE090E00E9481
:101AD000F00B609110018DE090E00E94F00B60919E
:101AE00041028EE090E00E94F00B609101018FE0D6
:101AF00090E00E94F00B6091430280E190E00E9430
:101B0000F00B6091420281E190E00E94F00B609145
:101B1000400282E190E00E94F00B6091000183E1BD
:101B200090E00E94F00B63E271E084E190E00E949B
:101B3000960B6FE171E088E190E00E94960B64E102
:101B400071E08CE190E00E94960B6CE071E080E225
:101B500090E00E94960B65E071E084E290E00E94C4
:101B6000960B6BE171E088E290E00E94960B109278
:101B700055020895FB0180E090E0A8ECB2E4809368
:101B80002E0390932F03A0933003B0933103109250
:101B90002D0310922C0380914502823081F018F4BD
:101BA000813031F00895833089F08430B1F00895A8
:101BB000808191810E9499318093430208958081B0
:101BC00091810E9499318093420208958081918190
:101BD0000E949931809340020895808191810E94F2
:101BE0009931809300010895CF93DF93DC018C91AC
:101BF0008823F9F077FD07C06F3F710529F024F0C5
:101C00006FEF70E001C060E017966C9317971F9616
:101C1000ED91FC915097309739F0ED01862F0995A1
:101C2000682F70E0888101C070E0DF91CF910C9443
:101C3000E303DF91CF9108951F920F920FB60F9299
:101C400011240F900FBE0F901F9018951F920F92A6
:101C50000FB60F9211242F933F934F935F936F937F
:101C60007F938F939F93AF93BF93EF93FF93809155
:101C7000B900887F803609F49CC068F5883209F481
:101C80005BC090F4803109F454C038F4882309F41F
:101C9000F6C0883009F44DC0F6C0883109F44CC054
:101CA000803209F45DC0EFC0803409F468C048F4A4
:101CB000803309F455C0883309F0E5C08093EE0203
:101CC000D8C0803509F44FC0883509F45DC0883428
:101CD00009F0D9C0D6C0883909F4C7C0A8F488373C
:101CE00009F467C038F4883609F463C0803709F412
:101CF00060C0C9C0883809F4B8C0803909F45FC031
:101D0000803809F0C0C05BC0803B09F486C038F45D
:101D1000803A09F466C0883A09F47FC0B4C0803CB8
:101D200009F4A7C0883C09F4A4C0883B09F48AC020
:101D3000AAC08091CB0210C09091ED028091EC027C
:101D4000981770F5E091ED0281E08E0F8093ED021F
:101D5000F0E0E453FD4F80818093BB0085EC86C0AA
:101D60008093EE028EC0E091ED0281E08E0F8093B1
:101D7000ED028091BB00F0E0E453FD4F8083909131
:101D8000ED028091EC026EC0E091ED0281E08E0FD9
:101D90008093ED028091BB00F0E0E453FD4F80831F
:101DA0008091EF0281116DC081E08093CA0284EAC4
:101DB00061C083E08093F00210929D02CFCF8091AA
:101DC0009D02803208F051C0E0919D0281E08E0FAB
:101DD00080939D028091BB00F0E0E358FD4F80832B
:101DE000BDCF85EC8093BC001092F00280919D02E3
:101DF000803230F4E0919D02F0E0E358FD4F108214
:101E000060919D0270E0E0917B02F0917C028DE791
:101E100092E0099510929D0236C084E08093F00212
:101E200010927A0210927902E0917702F091780292
:101E3000099580917902811105C081E08093790232
:101E400010925702E0917A0281E08E0F80937A021D
:101E5000F0E0E95AFD4F80818093BB0090917A02B7
:101E600080917902981708F479CF85E88093BC00B7
:101E70000AC085EC8093BC001092F00204C010925E
:101E8000EE020E94D90AFF91EF91BF91AF919F910D
:101E90008F917F916F915F914F913F912F910F9013
:101EA0000FBE0F901F9018958F929F92AF92BF9286
:101EB000EF92FF920F931F93CF93DF93CDB7DEB7CF
:101EC000C85AD1090FB6F894DEBF0FBECDBF7C0152
:101ED0008B0149015A01CE010196CD55DF4F9983FF
:101EE0008883C35AD040CB55DF4F19821882C55A18
:101EF000D04080E890E0C955DF4F99838883C75A66
:101F0000D04065EA71E0CE018D559F4F0E94A71B1E
:101F1000B801CE018D559F4F0E947C1C2AE0AE0176
:101F20004F575F4FC501B4010E94F231BE016F5798
:101F30007F4FCE018D559F4F0E94A71BCB55DF4F82
:101F400008811981C55AD04001501109CD55DF4F84
:101F500028813981C35AD04040E050E064E1C70194
:101F60000E948B15C855DF4F0FB6F894DEBF0FBE29
:101F7000CDBFDF91CF911F910F91FF90EF90BF9058
:101F8000AF909F908F900895CF92DF92EF92FF9243
:101F90000F931F93CF93DF93CDB7DEB7C658D10908
:101FA0000FB6F894DEBF0FBECDBF7C016B018A0176
:101FB000CE010196CF57DF4F99838883C158D04017
:101FC000CD57DF4F19821882C358D04080E890E087
:101FD000CB57DF4F99838883C558D04065EA71E0BD
:101FE000CE018F579F4F0E94A71BB601CE018F577E
:101FF0009F4F0E947C1CB801CE018F579F4F0E94BB
:102000007C1CCD57DF4F08811981C358D040015047
:102010001109CF57DF4F28813981C158D04040E0A6
:1020200050E064E1C7010E948B15CA57DF4F0FB61D
:10203000F894DEBF0FBECDBFDF91CF911F910F91FE
:10204000FF90EF90DF90CF900895EF92FF920F9363
:102050001F93CF93DF93CDB7DEB7C758D1090FB623
:10206000F894DEBF0FBECDBF7C018B01CE0101967F
:10207000CF57DF4F99838883C158D040CD57DF4F6A
:1020800019821882C358D04080E890E0CB57DF4FC8
:1020900099838883C558D04065EA71E0CE018F5797
:1020A0009F4FC957DF4F4883C758D0400E94A71B96
:1020B000B801CE018F579F4F0E947C1CC957DF4F3C
:1020C0004881C758D040642F70E0CE018F579F4F92
:1020D0000E947C1CCD57DF4F08811981C358D04026
:1020E00001501109CF57DF4F28813981C158D040A5
:1020F00040E050E064E1C7010E948B15C957DF4FF3
:102100000FB6F894DEBF0FBECDBFDF91CF911F9108
:102110000F91FF90EF90089580914502833009F46C
:102120007CC048F5813009F455C0823009F0C1C047
:102130004091120161E070E089ED94E00E94251069
:102140004091130162E070E089ED94E00E94251057
:102150004091110167E070E089ED94E00E94251044
:102160004091100168E070E089ED94E00E94251034
:102170004091420274C0843009F478C0853009F07F
:1021800098C040E050E061E070E089ED94E00E948A
:10219000C40F40E050E062E070E089ED94E00E94FE
:1021A000C40F40E050E067E070E089ED94E00E94E9
:1021B000C40F40E050E068E070E089ED94E00E94D8
:1021C000C40F40E050E069E070E089ED94E00E94C7
:1021D000C40F6FC040911A0161E070E089ED94E096
:1021E0000E9425104091440262E070E089ED94E085
:1021F0000E9425104091190167E070E089ED94E09C
:102200000E9425104091180168E070E089ED94E08B
:102210000E9425104091430222C040910A0161E0D2
:1022200070E089ED94E00E94251040910B0162E07E
:1022300070E089ED94E00E9425104091090167E06B
:1022400070E089ED94E00E9425104091410268E021
:1022500070E089ED94E00E9425104091400269E011
:1022600070E089ED94E00E94251023C040910301A5
:1022700061E070E089ED94E00E9425104091040136
:1022800062E070E089ED94E00E9425104091020127
:1022900067E070E089ED94E00E9425104091010113
:1022A00068E070E089ED94E00E9425104091000103
:1022B000D6CF60911B0170911C0180911D019091FE
:1022C0001E0120E737E140E050E00E946C2D60E104
:1022D00070E089ED94E00E94540F40914A0260E062
:1022E00070E089ED94E00C942510FC01EE5FFE4F48
:1022F000208131813297408151812417350739F48B
:102300003496808181110BC080E090E00895C9016E
:102310004217530708F09395841B950B089580E0AE
:1023200091E008958F929F92AF92BF92CF92DF92E9
:10233000EF92FF92CF93DF93A0917F03882311F058
:102340003A2F01C030E08091800390E0880F991F00
:102350008F5B9D4FC0908503D0908603E0908703EC
:10236000F090880340E050E0BA01FC01C591D4919F
:1023700028812A2323130FC04A015B012FEF821A01
:10238000920AA20AB20A4C155D056E057F0538F463
:10239000B501A401EACF342F252FCB0104C030E0D2
:1023A00020E080E090E0632F722FDF91CF91FF90CB
:1023B000EF90DF90CF90BF90AF909F908F90089557
:1023C000CF93DF93EC0188819981009711F00E94EF
:1023D0000131198218821D821C821B821A82DF91B0
:1023E000CF9108950F931F93CF93DF93EC018881D2
:1023F0009981009729F02A813B812617370788F4B5
:102400008B016F5F7F4F0E94302F009761F099839F
:1024100088831B830A832C813D81232B11F4FC01CB
:10242000108281E001C080E0DF91CF911F910F9178
:102430000895EF92FF920F931F93CF93DF93EC01D8
:102440007B018A01BA010E94F211811104C0CE0100
:102450000E94E01107C01D830C83B7018881998118
:102460000E941C30CE01DF91CF911F910F91FF9000
:10247000EF9008959091F0029111FCCF813208F015
:1024800080E291E09093F0029093EF022FEF20937F
:10249000EE021092ED02280F2093EC029093CB02F3
:1024A0009091CB02906D9093CB029091CA029130A3
:1024B00061F41092CA029091CB029093BB0090916C
:1024C000BC0093FDF8CF95EC01C095EE9093BC0055
:1024D0009091F0029130E1F39091ED02981710F491
:1024E0008091ED02ACECB2E022EA32E0F9019E2FDD
:1024F000921B981718F49D919193F9CF1092A10215
:102500008093A0020895CF92DF92EF92FF920F93F3
:102510001F93CF93DF936B017C018A018091340478
:102520009091350497FF1FC00E949304C6E1D4E048
:10253000E2EBF3E04AE853E0199211921192DA01CA
:102540006D937D938D939D93AD019F01225B3F4FD2
:10255000D9011D921C92B3E0E63CFB0769F710928B
:1025600035041092340480913404909135040A9714
:102570000CF046C0E2EBF3E0C0E0D0E08191919135
:10258000892BC9F501151105D9F1FE01EE0FFF1FC9
:10259000EE0FFF1FEA53FC4FC082D182E282F3822A
:1025A000FE01EE0FFF1FEE54FC4F11830083FE016E
:1025B000EE0FFF1FE251FC4F11821082FE01EA5E16
:1025C000FB4F81E080830E949304FE01EE0FFF1F0A
:1025D000EE0FFF1FE657FC4F608371838283938366
:1025E0008091340490913504019690933504809342
:1025F0003404CE0107C02196CA30D10509F0BECF00
:102600008FEF9FEFDF91CF911F910F91FF90EF9090
:10261000DF90CF900895CF92DF92EF92FF920F93C9
:102620001F93CF93DF93CDB7DEB7C054D1400FB621
:10263000F894DEBF0FBECDBF0E94930400918103CA
:102640001091820320918303309184036B017C01FC
:10265000C01AD10AE20AF30A40EDC41647E0D406D4
:10266000E104F10418F480918903BCC060938103F4
:1026700070938203809383039093840310927C036E
:1026800010927B0310927A031092790310927803D0
:1026900061E080917D030E9477036AEF70E080E043
:1026A00090E00E94590461E080917D030E94A7039D
:1026B00060E080917D030E94770364E170E080E038
:1026C00090E00E945904F89461E080917D030E949B
:1026D00077038BE990E00197F1F762E080917D0349
:1026E0000E94A70383E290E00197F1F780E00E9447
:1026F0009211672B682B692B21F41092890378942F
:102700003EC081E00E949211672B682B692BA9F3D0
:102710008E010F5F1F4F6E018FEBC81A8EEFD80A24
:10272000780180E00E949211F701608371838283B7
:10273000938381E00E949211F701648375838683FD
:102740009783F8E0EF0EF11CEC14FD0451F7789438
:1027500020E030E0F8014081518162817381C480C2
:10276000D580E680F780411551056105710529F096
:10277000C114D104E104F10421F41092890380E032
:1027800031C0F90183E0F595E7958A95E1F7E858BE
:10279000FC4F8081880F4C155D056E057F0508F4A0
:1027A000816080832F5F3F4F085F1F4F28323105C4
:1027B00089F620917C0330E0409178038091790381
:1027C00090E0840F911D40917A03840F911D4091F8
:1027D0007B03840F911D99272817390771F681E033
:1027E00080938903C05CDE4F0FB6F894DEBF0FBE46
:1027F000CDBFDF91CF911F910F91FF90EF90DF90B0
:10280000CF900895CF92DF92EF92FF92CF930E94E4
:102810000B138823D1F180917E038B3029F0A8F12E
:102820008551823048F031C060917A0370E080E0D9
:1028300090E00E94D5342DC0C0917A036C2F6F7741
:1028400070E080E090E00E94D73420E030E040E883
:1028500053E40E9436356B017C0180917B03682F25
:1028600070E080E090E00E94D7349B01AC01C7018A
:10287000B6010E94922D2DEC3CEC4CEC5DE30E94E5
:102880003635C7FF06C0905804C060E070E080ECA9
:102890009FE7CF91FF90EF90DF90CF9008958F92B8
:1028A0009F92AF92BF92CF92DF92EF92FF92809170
:1028B00021030E9442049C01990F440B550B60E0D8
:1028C00070E48CE990E00E946C2DCA01B90160515E
:1028D0007742810991090E94D7340E94B32E6B017F
:1028E0007C0123E73FE745E759E30E9436352BEEAD
:1028F0003FEF43E95AE30E94922D4B015C0129E529
:1029000037E44CEB53E3C701B6010E943635A7010B
:1029100096010E943635A70196010E9436359B012B
:10292000AC01C501B4010E94922D9B01AC0160E095
:1029300070E080E89FE30E94FE2D23E333E54CE83E
:1029400053E40E94912DFF90EF90DF90CF90BF90C5
:10295000AF909F908F900895FC01808191810097A6
:1029600011F00C94B73160E070E0CB010895CF9383
:10297000DF93FC0124813581232B71F0FB01DC0105
:10298000CD91DC9160817181CE010E94323000973F
:1029900019F08C1B9D0B02C08FEF9FEFDF91CF9141
:1029A0000895EF92FF920F931F93CF93DF9300D080
:1029B000CDB7DEB78C0169831A82FC01E480F58013
:1029C000FFEFEF1AFF0AB7010E94F211882381F08E
:1029D000F8012081318184819581BE016F5F7F4F35
:1029E000820F931F0E941C30F801F582E48281E07F
:1029F0000F900F90DF91CF911F910F91FF90EF906B
:102A00000895CF93DF93EC016115710559F0FB0137
:102A100001900020E9F73197AF01461B570B0E9448
:102A2000191202C00E94E011CE01DF91CF910895EA
:102A3000CF93DF93EC01FB018617970761F060816C
:102A400071816115710529F0448155810E94191227
:102A500002C00E94E011CE01DF91CF9108950F9343
:102A60001F93CF93DF938C01EB01FC018081918157
:102A70000097B1F0688179816115710579F0428123
:102A800053812C813D814217530740F00E941C3036
:102A90008C819D81F8019583848313C00E9401314C
:102AA00088819981F801918380838A819B819383B6
:102AB00082838C819D8195838483198218821B82F5
:102AC0001A821D821C82DF91CF911F910F91089570
:102AD000FC01808191810C940131FC0111821082F2
:102AE00013821282158214820C941815FC01118233
:102AF000108213821282158214826115710551F0C1
:102B0000FB0101900020E9F73197AF01461B570BFD
:102B10000C94191208952F923F924F925F926F92E8
:102B20007F928F929F92AF92BF92CF92DF92EF925D
:102B3000FF920F931F93CF93DF93CDB7DEB72E97FE
:102B40000FB6F894DEBF0FBECDBF7C018DB79EB728
:102B50009A87898741155105C1F4D70156964D9141
:102B60005C9157974115510581F48091C202909173
:102B7000C302019611F481E090E09093C302809328
:102B8000C2024091C2025091C302D701ED91FC9163
:102B900011978281882309F448C0862F8D7F41F0E8
:102BA000663031F058968D919C9159970197E9F5CF
:102BB0002115310509F05BC1212C312CB5E02B0E1C
:102BC000311CEDB7FEB7E219F3090FB6F894FEBF5A
:102BD0000FBEEDBF8DB79EB7019698878F83618337
:102BE000542745275427DC0112965C934E93119786
:102BF000902F812F14969C938E9313972115310556
:102C0000D9F5A12CB12CA214B30408F440C0A2142D
:102C1000B30409F4DCC0F701808191810E94D31ACA
:102C2000D70159961C921E92589709851A850FB69E
:102C3000F8941EBF0FBE0DBF09851A850FB6F89414
:102C40001EBF0FBE0DBF2E960FB6F894DEBF0FBE8F
:102C5000CDBFDF91CF911F910F91FF90EF90DF904B
:102C6000CF90BF90AF909F908F907F906F905F902C
:102C70004F903F902F9008950115110511F28DB7D7
:102C80009EB70696A801B9010E94FF2FBACF810115
:102C90000A191B090832110510F008E210E0D701EB
:102CA000ED91FC91C080D1802801612C712CC6016E
:102CB0000E9434096DE472E0F601808191810E94E6
:102CC00053202AE041E050E060E070E0D6018D91B1
:102CD0009C910E948C206BE472E0F60180819181CE
:102CE0000E945320D6018D909C902AE0B301A2014E
:102CF000C4010E948C206CE671E0C4010E94772020
:102D000068EA71E0CE0101960E94761528E833E169
:102D100040E050E0BE016F5F7F4FC6010E94D808BF
:102D2000982ECE0101960E946815911003C000E014
:102D300010E041C0C6010E9434098F8098848A0C3B
:102D40009B1C20E030E0A9012415350546055705F8
:102D5000D0F4F60180819181D4016D914D01DC01A7
:102D6000ED91FC910190F081E02D2B873C874D8700
:102D70005E8709952B853C854D855E852F5F3F4F8E
:102D80004F4F5F4FE1CF6AEA71E0CE0101960E949A
:102D9000761520E137E240E050E0BE016F5F7F4FE3
:102DA000C6010E94D808D82ECE0101960E9468154F
:102DB000DD2009F4BCCF60E070E0CB010E94590433
:102DC0000115110509F427CFA00EB11E1CCF0E94DA
:102DD00093044B015C01F70182899389A489B58929
:102DE000AC01BD0125E076956795579547952A95E5
:102DF000D1F78C019D01041B150B260B370BB90174
:102E0000A80182859385A485B58595018401081B59
:102E1000190B2A0B3B0BD901C80135E0B695A795D4
:102E2000979587953A95D1F70097A105B10519F4C3
:102E30008FEF9FEFDC01840F951FA61FB71FF701CF
:102E4000828B938BA48BB58BC297A105B10548F4F7
:102E5000808191810E94D31AD70159961C921E92AB
:102E60005897F70182869386A486B586DECE180130
:102E7000A5CEBF92CF92DF92EF92FF920F931F9356
:102E8000CF93DF937C016B018A01E9012417350799
:102E900020F4812F8901C42FD82F6EE671E0C7017D
:102EA0000E947615D60114968D919C91159708175E
:102EB0001907D0F48C179D0708F4EC01D601ED91A9
:102EC000FC911197EC0FFD1FB08010824D915C9129
:102ED000BA01600F711FC7010E940115D601ED9163
:102EE000FC91EC0FFD1FB082C701DF91CF911F91C4
:102EF0000F91FF90EF90DF90CF90BF900895FB016E
:102F000080E090E0A8ECB2E480933F03909340030C
:102F1000A0934103B093420310923E0310923D03ED
:102F200080914502823081F018F4813031F00895AB
:102F3000833089F08430B1F00895808191810E94BE
:102F40009931809318010895808191810E9499316F
:102F5000809310010895808191810E94993180931E
:102F600041020895808191810E94993180930101ED
:102F70000895FB0180E090E0A8ECB2E48093500358
:102F800090935103A0935203B093530310924F03B5
:102F900010924E0380914502823081F018F4813006
:102FA00031F00895833089F08430B1F00895808144
:102FB00091810E94993180931901089580819181B6
:102FC0000E949931809311010895808191810E941E
:102FD0009931809309010895808191810E949931EE
:102FE000809302010895FB0180E090E0A8ECB2E438
:102FF0008093720390937303A0937403B09375034B
:10300000109271031092700380914502823081F01A
:1030100018F4813031F00895833089F08430B1F0B4
:103020000895808191810E9499318093440208958E
:10303000808191810E94993180931301089580814C
:1030400091810E94993180930B0108958081918133
:103050000E949931809304010895FB0180E090E083
:10306000A8ECB2E48093610390936203A09363039E
:10307000B09364031092600310925F038091450245
:10308000823081F018F4813031F00895833089F076
:103090008430B1F00895808191810E9499318093AC
:1030A0001A010895808191810E94993180931201C3
:1030B0000895808191810E94993180930A01089539
:1030C000808191810E949931809303010895CF926C
:1030D000DF92EF92FF921F93CF93DF9300D000D047
:1030E00000D0CDB7DEB7FB01808191810E94B7315E
:1030F0006B017C016093C6027093C7028093C80283
:103100009093C90220E13EE040E050E00E946C2D27
:10311000122F2093C502C701B6012CE330E040E036
:1031200050E00E946C2D822FFCE31F9F8019112418
:103130008093C40290E1998394E09A839BE09B83FF
:103140001C838D831E82CE0101960E9473052696F4
:103150000FB6F894DEBF0FBECDBFDF91CF911F91A8
:10316000FF90EF90DF90CF900895FB0180819181D7
:103170000E94993180934A0280914502833009F47C
:103180007CC048F5813009F455C0823009F0C1C0D7
:103190004091120161E070E089ED94E00E942510F9
:1031A0004091130162E070E089ED94E00E942510E7
:1031B0004091110167E070E089ED94E00E942510D4
:1031C0004091100168E070E089ED94E00E942510C4
:1031D0004091420274C0843009F478C0853009F00F
:1031E00098C040E050E061E070E089ED94E00E941A
:1031F000C40F40E050E062E070E089ED94E00E948E
:10320000C40F40E050E067E070E089ED94E00E9478
:10321000C40F40E050E068E070E089ED94E00E9467
:10322000C40F40E050E069E070E089ED94E00E9456
:10323000C40F6FC040911A0161E070E089ED94E025
:103240000E9425104091440262E070E089ED94E014
:103250000E9425104091190167E070E089ED94E02B
:103260000E9425104091180168E070E089ED94E01B
:103270000E9425104091430222C040910A0161E062
:1032800070E089ED94E00E94251040910B0162E00E
:1032900070E089ED94E00E9425104091090167E0FB
:1032A00070E089ED94E00E9425104091410268E0B1
:1032B00070E089ED94E00E9425104091400269E0A1
:1032C00070E089ED94E00E94251023C04091030135
:1032D00061E070E089ED94E00E94251040910401C6
:1032E00062E070E089ED94E00E94251040910201B7
:1032F00067E070E089ED94E00E94251040910101A3
:1033000068E070E089ED94E00E9425104091000192
:10331000D6CF60911B0170911C0180911D0190918D
:103320001E0120E737E140E050E00E946C2D60E193
:1033300070E089ED94E00E94540F40914A0260E0F1
:1033400070E089ED94E00C9425102F923F924F92FB
:103350005F926F927F928F929F92AF92BF92CF9225
:10336000DF92EF92FF920F931F93CF93DF9300D0E2
:103370001F92CDB7DEB72A013B018901813009F0E8
:1033800078C0690123E0C20ED11C78018BEFE81AE6
:103390008EEFF80AD801AD5FBE4FBB83AA83480108
:1033A000B9EF8B1ABEEF9B0A4114510461047104FA
:1033B00009F45FC0D801ED91FC9180819181DC011D
:1033C000ED91FC910480F581E02D0995892B61F345
:1033D000D801ED91FC9180819181DC01ED91FC910E
:1033E0000680F781E02D0995382E8983C6010E9459
:1033F000751181159140B9F1F701808191812224E5
:1034000023948115F1E09F0709F4212CA22CB12C03
:10341000A501BE016F5F7F4F8C0D9D1D0E94FF2F88
:10342000D7018D919C911197A80EB91EBB24AD9226
:10343000BC9221100BC0F801EA0DFB1D3382BFEFD7
:10344000AB1ABB0ABB24F701B182A082AA81BB815F
:103450002D913C91F701808191812817390719F44A
:10346000E1E0D401EC93F1E04F1A510861087108D2
:103470009BCF0F900F900F90DF91CF911F910F91E5
:10348000FF90EF90DF90CF90BF90AF909F908F9084
:103490007F906F905F904F903F902F9008954F9244
:1034A0005F926F927F928F929F92AF92BF92CF92D4
:1034B000DF92EF92FF920F931F93CF93DF93EC0174
:1034C0005B017A010E9493042B013C016E0123E011
:1034D000C20ED11CC6010E9475118E159F0590F475
:1034E0000E949304DC01CB0184199509A609B70950
:1034F0008C3D9540A105B10528F4888199810E94F1
:103500003409E8CFC6010E9475118C01E816F9064E
:1035100008F4870101151105A1F1FE01E95FFE4FD5
:103520001082CD5FDE4F6881798180E091E0861B5B
:10353000970B78018017910708F47C016C0D7D1DB5
:10354000A701C5010E94FF2F288139812E0D3F1D43
:10355000332739832883E016F10698F448018E1842
:103560009F08B601620F731FA401C5018E0D9F1D38
:103570000E94FF2F88819981880E991E9924998233
:103580008882C801DF91CF911F910F91FF90EF903A
:10359000DF90CF90BF90AF909F908F907F906F9073
:1035A0005F904F900895CF92DF92EF92FF920F932A
:1035B0001F93CF93DF93CDB7DEB768970FB6F8941C
:1035C000DEBF0FBECDBFFC011282ED5FFE4F118248
:1035D000108232961182108232961082FC01C080D5
:1035E000D1806EE671E0CE0143960E947615C60149
:1035F0000E94340969E572E0F601808191810E94A0
:10360000532061E0F601808191810E94AF1D62EB41
:1036100071E0CE0107960E94761568E671E0CE0152
:1036200001960E94761518E8E12E13E1F12E00E0D4
:1036300010E09E01295F3F4FAE014F5F5F4FB60123
:10364000CE010D960E94EF06BE01635F7F4FCE0153
:1036500043960E942F15CE010D960E946815CE014B
:1036600001960E946815CE0107960E94681568E6CB
:1036700071E0CE0107960E947615BE01695F7F4F0B
:10368000CE0143960E94B714019651F462EB71E0AB
:10369000CE0101960E947615CE0101960E94681512
:1036A000CE0107960E946815CE0143960E946815C8
:1036B00068960FB6F894DEBF0FBECDBFDF91CF91F5
:1036C0001F910F91FF90EF90DF90CF900895EF92B0
:1036D000FF920F931F93CF93DF9300D000D000D0C1
:1036E000CDB7DEB7FC01E85FFE4F608171816115E7
:1036F0007105F9F03296E080F180E114F104C9F02F
:103700008C01CE0101960E947615970140E050E0B1
:10371000BE016F5F7F4FF801808191810E94741E0E
:10372000F8018283CE0101960E946815F80182811A
:1037300001C080E026960FB6F894DEBF0FBECDBF65
:10374000DF91CF911F910F91FF90EF9008950F930C
:103750001F93CF93DF93EC01FB0101900020E9F769
:103760008F01061B170B8A819B81A801480F591FE7
:103770002C813D812417350768F028813981A80103
:10378000820F931F0E94FF2F4A815B81400F511FC0
:103790005B834A83DF91CF911F910F910895CF9260
:1037A000DF92EF92FF920F931F93CF93DF93CDB7EA
:1037B000DEB7C658D1090FB6F894DEBF0FBECDBF35
:1037C0000E944F146B017C010E94021420E030E043
:1037D0004CE052E4C701B6010E94A62E1816CCF5A3
:1037E000CE010196CF57DF4F99838883C158D040CF
:1037F000CD57DF4F19821882C358D04080E890E03F
:10380000CB57DF4F99838883C558D0406EEB71E06A
:10381000CE018F579F4F0E94A71B65ED71E0CE012F
:103820008F579F4F0E94A71BCD57DF4F08811981EB
:10383000C358D04001501109CF57DF4F288139813B
:10384000C158D04040E050E06DE089ED94E00E9426
:103850008B1520E030E048EA51E4C701B6010E9430
:10386000D03487FF39C0CE010196CF57DF4F9983FF
:103870008883C158D040CD57DF4F19821882C35872
:10388000D04080E890E0CB57DF4F99838883C558BC
:10389000D0406EEB71E0CE018F579F4F0E94A71B67
:1038A0006BEF71E0CE018F579F4F0E94A71BCD5742
:1038B000DF4F08811981C358D04001501109CF57FB
:1038C000DF4F28813981C158D04040E050E06DE0A1
:1038D00089ED94E00E948B15CA57DF4F0FB6F8941C
:1038E000DEBF0FBECDBFDF91CF911F910F91FF9033
:1038F000EF90DF90CF9008950F931F93CF93DF93B6
:10390000CDB7DEB762970FB6F894DEBF0FBECDBF5E
:103910008C01CB014AE0BE016F5F7F4F0E94E7310F
:10392000BE016F5F7F4FC8010E94A71B62960FB652
:10393000F894DEBF0FBECDBFDF91CF911F910F91E5
:1039400008954F925F926F927F92BF92CF92DF92D3
:10395000EF92FF920F931F93CF93DF93CDB7DEB714
:10396000CD5AD1090FB6F894DEBF0FBECDBFCE0140
:1039700088559F4F0E94E9040E944F142B013C017F
:103980000E9402140E94772EB62E0E940B138823E9
:10399000B1F180917E038B3041F188F18551823005
:1039A00070F56091780370E080E090E00E94D5347B
:1039B00020E030E040E853E40E9436356B017C01A2
:1039C00080917903682F70E080E090E00E94D73406
:1039D0009B01AC01C701B6010E94922D2DEC3CEC7D
:1039E0004CEC5DE30E94363507C06091780370E0CF
:1039F00080E090E00E94D5346B017C0106C0C12CB0
:103A0000D12C80ECE82E8FE7F82ECE010196CE5512
:103A1000DF4F99838883C25AD040CC55DF4F19823B
:103A20001882C45AD04080E890E0CA55DF4F99838D
:103A30008883C65AD04065EA71E0CE018E559F4F0B
:103A40000E94A71B64E070E0CE018E559F4F0E943C
:103A50007C1C8E010F571F4F23E045E0C301B201CC
:103A60000E944C30B801CE018E559F4F0E94A71B7B
:103A7000CC55DF4F08811981C45AD040015011093B
:103A8000CE55DF4F28813981C25AD04040E050E006
:103A900064E189ED94E00E948B154B2D65E070E0A8
:103AA00089ED94E00E942510C701B6010E94772E8F
:103AB000462F66E070E089ED94E00E942510C55520
:103AC000DF4F4881CB5AD0406EE070E089ED94E042
:103AD0000E942510C455DF4F4881CC5AD0406FE07A
:103AE00070E089ED94E00E942510C455DF4F4881B5
:103AF000CC5AD040C555DF4F2881CB5AD04030E05A
:103B0000A0E1BEE00E9441365CE3459F9001112494
:103B10008901330F220B330BDC01CB01800F911F86
:103B2000A21FB31F8093460290934702A0934802BE
:103B3000B0934902C355DF4F0FB6F894DEBF0FBEF6
:103B4000CDBFDF91CF911F910F91FF90EF90DF904C
:103B5000CF90BF907F906F905F904F9008950F939C
:103B60001F93CF93DF93EC01462F50E060E070E0AD
:103B70002AE00E948C208C016CE671E0CE010E944C
:103B80007720800F911FDF91CF911F910F910895A2
:103B9000CF92DF92EF92FF920F931F93CF93DF9319
:103BA000CDB7DEB7A4970FB6F894DEBF0FBECDBF7A
:103BB0006C018B01BA01CE0149960E946D15B801C6
:103BC000CE014F960E946D156EE671E0CE014396D0
:103BD0000E947615C6010E94340963E872E0F6017E
:103BE000808191810E945320BE01615E7F4FF6016A
:103BF000808191810E9445206FE772E0F60180810B
:103C000091810E945320BE01675E7F4FF601808143
:103C100091810E9445206DE772E0F60180819181DB
:103C20000E94D52060E272E0CE0107960E947615D0
:103C300068E671E0CE0101960E94761510E1E12E52
:103C400017E2F12E00E010E09E01295F3F4FAE0128
:103C50004F5F5F4FB601CE010D960E94EF06BE0189
:103C6000635F7F4FCE0143960E942F15CE010D96C4
:103C70000E946815CE0101960E946815CE01079634
:103C80000E94681568E671E0CE0101960E947615E3
:103C9000BE016F5F7F4FCE0143960E94B7146C0147
:103CA000CE0101960E946815CE0143960E946815C8
:103CB000CE014F960E946815CE0149960E94681564
:103CC00081E0CD20C09409F480E0A4960FB6F8946A
:103CD000DEBF0FBECDBFDF91CF911F910F91FF903F
:103CE000EF90DF90CF9008958F929F92AF92BF9206
:103CF000CF92DF92EF92FF920F931F93CF93DF93B8
:103D0000CDB7DEB7AA970FB6F894DEBF0FBECDBF12
:103D10008C0149015A01CE014F960E946D1565E252
:103D200072E0CE0185960E9476156EE671E0CE01B6
:103D300049960E947615C8010E94340960E772E036
:103D4000D8018D919C910E9453202AE041E050E0DF
:103D500060E070E0F801808191810E948C206DE626
:103D600072E0D8018D919C910E945320BE016B5D41
:103D70007F4FF801808191810E94452069E672E0C1
:103D8000D8018D919C910E945320BE01615E7F4FAE
:103D9000F801808191810E94452066E672E0D80199
:103DA0008D919C910E945320F801E080F1802AE0DF
:103DB000B501A401C7010E948C206CE671E0C70127
:103DC0000E94772069E272E0CE010D960E9476157E
:103DD00069E372E0CE0107960E94761568E671E00D
:103DE000CE0101960E9476156EE671E0CE014396F3
:103DF0000E9476150E9493046B017C010E9493043B
:103E0000DC01CB018C199D09AE09BF0980319742B5
:103E1000A105B105A0F1BE016D5E7F4FCE014996AF
:103E20000E942F15CE0143960E946815CE0101967F
:103E30000E946815CE0107960E946815CE010D9666
:103E40000E94681568E671E0CE0107960E9476151B
:103E5000BE01695F7F4FCE0149960E94B71401965B
:103E600009F065C04EC0D8018D919C91DC01ED91A7
:103E7000FC910680F781E02D099581110EC0D801D3
:103E80008D919C91DC01ED91FC910480F581E02DF8
:103E90000995181619063CF3B1CF682FCE01439649
:103EA0000E94D114BE016F5F7F4FCE0143960E94E6
:103EB000B714019609F0AFCFBE01695F7F4FCE0105
:103EC00043960E94B714019609F0A5CFBE01635F27
:103ED0007F4FCE0143960E94B714019609F09BCF05
:103EE000BE016D5E7F4FC8010E94FF05672B682BE6
:103EF000692B29F26EE671E0CE0143960E9401150E
:103F0000BECF69E272E0CE0101960E947615BE0135
:103F10006F5F7F4FCE0149960E94B71411E0019662
:103F200009F410E0CE0101960E94681501C011E06D
:103F3000CE0107960E946815CE0149960E94681529
:103F4000CE0185960E946815CE014F960E94681595
:103F5000812FAA960FB6F894DEBF0FBECDBFDF91BA
:103F6000CF911F910F91FF90EF90DF90CF90BF9076
:103F7000AF909F908F900895382F209114039091C7
:103F80001303213208F049C08091F0028111FCCF67
:103F900042E04093F0023093EF023FEF3093EE02A5
:103FA0001092ED022093EC02A3EFB2E04CEC52E051
:103FB000FA013E2F341B321718F43D913193F9CF9B
:103FC0001092CB022091CB02990F922B9093CB02AF
:103FD0009091CA02913061F41092CA029091CB0282
:103FE0009093BB009091BC0093FDF8CF95EC01C07D
:103FF00095EE9093BC009091F0029230E1F3909195
:10400000EE029F3F79F08091EE02803241F0809184
:10401000EE02803331F084E005C081E003C082E02D
:1040200001C083E01092F202109214031092F10288
:1040300008950895CF92DF92EF92FF920F931F930E
:10404000CF93DF936C017A018B01C0E0D0E0CE15F5
:10405000DF0589F0D8016D918D01D601ED91FC91BC
:104060000190F081E02DC6010995892B11F47E01A4
:1040700002C02196ECCFC701DF91CF911F910F9124
:10408000FF90EF90DF90CF900895DC01ED91FC91CF
:10409000DB0114964D915C9115976D917C91028096
:1040A000F381E02D0994EF92FF920F931F93CF932A
:1040B000DF938C017B01C0E0D0E0F701EC0FFD1F26
:1040C0006491662361F0D801ED91FC910190F0813B
:1040D000E02DC8010995892B11F02196EECFCE0174
:1040E000DF91CF911F910F91FF90EF90089561158F
:1040F000710579F0FB0101900020E9F73197AF01DC
:10410000461B570BDC01ED91FC910280F381E02D01
:10411000099480E090E008954F925F926F927F92B1
:10412000EF92FF920F931F93CF93DF93CDB7DEB73C
:10413000A1970FB6F894DEBF0FBECDBF7C01FA0188
:10414000CB0119A2223008F42AE08E010F5D1F4F27
:10415000422E512C612C712CBF01A30192010E94AF
:104160004A2DF901CA01015011096A3014F4605D49
:1041700001C0695CD8016C93232B242B252B61F79C
:10418000B801C7010E947720A1960FB6F894DEBF50
:104190000FBECDBFDF91CF911F910F91FF90EF9098
:1041A0007F906F905F904F9008950F931F93CF93E0
:1041B000DF93EC010E9453208C016CE671E0CE018C
:1041C0000E947720800F911FDF91CF911F910F9157
:1041D0000895CF93DF93CDB7DEB7AA970FB6F894C3
:1041E000DEBF0FBECDBF789484B5826084BD84B538
:1041F000816084BD85B5826085BD85B5816085BDE2
:1042000080916E00816080936E0010928100809199
:104210008100826080938100809181008160809321
:104220008100809180008160809380008091B10046
:1042300084608093B1008091B00081608093B00071
:1042400080917A00846080937A0080917A00826005
:1042500080937A0080917A00816080937A008091C7
:104260007A00806880937A001092C10062E08091A9
:104270007D030E94A70380E398EFAFEFBFEF809329
:10428000810390938203A0938303B0938403E0910E
:104290004604F091470482E08083E0914204F0916B
:1042A00043041082E0914404F09145048FEC808334
:1042B00010924E04E0914A04F0914B0486E0808312
:1042C000E0914804F0914904808180618083E0910D
:1042D0004804F0914904808188608083E09148041B
:1042E000F0914904808180688083E0914804F091D6
:1042F000490480818F7D80836AE070E080E090E0F7
:104300000E94590441EA5CE168E273E280E090E0D7
:104310000E9483124FEC5BE160EC77E289E090E071
:104320000E9483128EE491E09093DC048093DB047E
:1043300083ED94E09093F4048093F304E091D90426
:10434000F091DA049183808385EA99E19093D60411
:104350008093D504F093D804E093D704DF01A85FDD
:10436000BE4F82E591E08D939C93E65FFE4F8AEF0E
:1043700090E29183808364EF71E080E090E00E949E
:1043800059040091F3041091F404C8010E94340907
:1043900069E171E0D8018D919C910E94532060E009
:1043A000F801808191810E94AF1D68E671E09E0155
:1043B0002F5F3F4F5901C9010E94761528EE33E067
:1043C00040E050E0B501C8010E94D808782EC50130
:1043D0000E946815772009F4CBC18090F304909077
:1043E000F4046EE671E0CE0183960E947615C40156
:1043F0000E94340968EB7BE080E090E00E94590461
:1044000068EE70E0D4018D919C910E94D52064E605
:1044100071E0C5010E9476156BE671E0CE01419610
:104420000E94761568E671E0CE0147960E947615E7
:1044300070E1C72E77E2D72EE12CF12C8E010D5DB5
:104440001F4F9501AE014F5E5F4FBE01695E7F4F0A
:10445000C4010E94D407CE0147960E946815CE0180
:1044600041960E946815C5010E946815C090F3042A
:10447000D090F4046EE671E0CE014D960E94761560
:10448000C6010E9434096FEE70E0F60180819181CF
:104490000E94532061E0D6018D919C910E94AF1D36
:1044A0006FE671E0CE0141960E94761568E671E0F4
:1044B000C5010E94761518EEE12E13E0F12E00E002
:1044C00010E09E012F5E3F4FA501B601CE01479639
:1044D0000E94EF06BE01695E7F4FCE014D960E949D
:1044E0002F15CE0147960E946815C5010E946815D8
:1044F000CE0141960E94681568E671E0C5010E94F0
:104500007615C5010E946815CE014D960E9468156A
:104510008090F3049090F4046EE671E0CE014D9625
:104520000E947615C4010E94340965E071E0F4012F
:10453000808191810E94D52064E671E0CE0147968A
:104540000E9476156FE771E0CE0141960E947615C4
:1045500068E671E0C5010E947615F8EECF2EF3E013
:10456000DF2EE12CF12C8E01035E1F4F9E01295E90
:104570003F4FAE014F5E5F4FB501C4010E94D407AB
:10458000182FC5010E946815CE0141960E9468153A
:10459000CE0147960E946815112331F0CE014D9649
:1045A0000E94AC14662E01C0712CCE014D960E9463
:1045B0006815772009F4D8C0F1E06F1609F46EC0D1
:1045C0006EE671E0CE014D960E947615C4010E9400
:1045D00034096AEF70E0D4018D919C910E945320C0
:1045E00061E0F401808191810E94AF1D61E871E07A
:1045F000CE0141960E94761568E671E0CE0147969D
:104600000E94761518EEE12E13E0F12E00E010E086
:104610009E012F5E3F4FAE01495E5F4FB401C50161
:104620000E94EF06B501CE014D960E942F15C501DF
:104630000E946815CE0147960E946815CE014196EA
:104640000E94681568E671E0C5010E947615B50103
:10465000CE014D960E94B7140196B1F461E871E065
:10466000CE0141960E947615BE016F5E7F4FCE014E
:104670004D960E94B71477247394019609F4712C17
:10468000CE0141960E946815C5010E946815CE01B1
:104690004D960E946815772009F466C06EE471E0BB
:1046A000C5010E9476156EE471E0CE0141960E942C
:1046B0007615A501BE016F5E7F4F8091F304909146
:1046C000F4040E94C81D182FCE0141960E9468155F
:1046D000C5010E946815112309F446C08090F304B7
:1046E0009090F4046EE671E0CE014D960E9476152E
:1046F000C4010E94340960E171E0D4018D919C9164
:104700000E94D52064E671E0C5010E9476156BE633
:1047100071E0CE0141960E94761568E671E0CE0107
:1047200047960E94761558EEC52E53E0D52EE12C03
:10473000F12C8E01035E1F4F9501AE014F5E5F4F5E
:10474000BE01695E7F4FC4010E94D407CE01479627
:104750000E946815CE0141960E946815C5010E940D
:104760006815C8010E946815CE0183960E946815DD
:104770001092A1021092A0021092F2021092140361
:104780001092F00211E01093EF021092CA0261E061
:1047900082E10E94770361E083E10E9477038091C8
:1047A000B9008E7F8093B9008091B9008D7F80938E
:1047B000B90088E48093B80085E48093BC00CE0102
:1047C00047960E94E90410934A0260E08BE00E9441
:1047D000770360E08AE00E94770360E085E00E9452
:1047E000770360E086E00E94770360E089E00E9442
:1047F00077031093F10288E6809313031092F2027C
:104800001092140360E085E193E00E94670B81E061
:104810000E94BC1F81E090E00E943A1285E193E083
:104820000E941B0B87FF5EC04BE050E066E271E028
:10483000C5010E94DE31CE010A960E94F205898BE5
:10484000E9818E2FEE0F990BAA0BBB0BFC01E154F3
:10485000F109E331F10540F5EC5CFF4F0C948B2D31
:104860008A81813639F08B818E3611F087E01BC04A
:1048700086E019C081E017C082E015C08B818237C5
:1048800011F088E010C084E00EC08B81823711F0F7
:1048900085E009C083E007C089E005C08AE003C065
:1048A0008BE001C08CE08A8BCE0105960E94F20558
:1048B0008B8B48E050E06DE171E0C5010E94DE3174
:1048C000C5010E94F2058C8BCE0104960E94F20570
:1048D0008D8BCE0107960E94F2058E8BCE014196FC
:1048E0000E94730587E693E00E949A0983E293E0B1
:1048F0000E949A0985E493E00E949A0984E393E078
:104900000E949A0986E593E00E949A0960E070E0AF
:10491000CB010E9459048091F1049091F204029716
:1049200009F42DC10091D9041091DA04F8015280E4
:10493000552009F447C0808191810E943409C80143
:1049400003960E94751118161906E4F545E050E02B
:10495000BE01695E7F4F8091D9049091DA040E9474
:104960004F1A009709F417C7059709F017C7888DE4
:10497000998D982789279827998F888FCA8CDB8CE7
:10498000DC24CD24DC24DB8ECA8E892B09F406C7F7
:104990008F898111B5C40E9493046093DF047093E2
:1049A000E0048093E1049093E2042091F1043091BB
:1049B000F2044A8D5B8D232B09F47FC445305105E9
:1049C00009F4ECC60E9493046B017C018091F10410
:1049D0009091F2048130910509F06DC0511005C02D
:1049E0001092F2041092F1045DC08091DF04909166
:1049F000E004A091E104B091E204A7019601281B14
:104A0000390B4A0B5B0BDA01C90181383EE393078E
:104A1000A105B10558F08091D9049091DA040E9463
:104A2000D31A1092F2041092F104A9C08131974276
:104A3000A105B105B0F48091E3049091E404A09144
:104A4000E504B091E604A7019601281B390B4A0B37
:104A50005B0BDA01C90181319742A105B10508F468
:104A60008EC08091E7049091E804A091E904B09190
:104A7000EA04A7019601281B390B4A0B5B0BDA01EC
:104A8000C901813D9740A105B10508F478C000E057
:104A900010E020E030E040E050E066E089ED94E096
:104AA0000E948B15C092E704D092E804E092E904DA
:104AB000F092EA0464C0892B09F061C08091E70498
:104AC0009091E804A091E904B091EA04552069F0BE
:104AD000C81AD90AEA0AFB0A41EDC41647E0D4060F
:104AE000E104F10408F44BC096CFA7019601281BFE
:104AF000390B4A0B5B0BDA01C90189389341A105D7
:104B0000B105E8F18091D9049091DA040E94D31A9A
:104B10008091D9049091DA040E94671B882311F2D6
:104B200088EE93E0A0E0B0E08093EB049093EC0477
:104B3000A093ED04B093EE042091DB043091DC04EB
:104B4000F90101900020E9F731978F01021B130B47
:104B500041E050E062E089ED94E00E948B15809185
:104B6000E3049091E404A091E504B091E6048093FD
:104B7000E7049093E804A093E904B093EA040E9448
:104B800093046B017C01AAE8B3E0BAA7A9A792E05D
:104B9000292E94E0392EF101812C912C178E168E3E
:104BA000CF0180559109DC018D919C91892B09F4ED
:104BB00048C0A9A5BAA54D915D916D917C911397BF
:104BC000DC960D911D912D913C91DF9726013701C7
:104BD000441A550A660A770A401651066206730699
:104BE00080F1400F511F621F731F4D935D936D93B2
:104BF0007C931397C4018A5E9B4FDC018C918823C0
:104C000001F1CF014497DC018D919C91009729F42B
:104C100021E030E0378F268F14C0208131812817A2
:104C200039077CF441E050E0578F468F2F5F3F4FAC
:104C3000318320832817390724F082E090E0978F92
:104C4000868F9FEF891A990AA9A5BAA51496BAA7C3
:104C5000A9A73296BAE08B16910409F09FCF82EB98
:104C6000E82E83E0F82E06EC13E0C12CD12CF101E4
:104C7000868D978D8130910519F0029731F02BC008
:104C8000D701ED91FC91099526C0D701ED91FC91DA
:104C9000099580913404909135040097E1F0F70173
:104CA00020813181232BB9F011821082F601EA5E56
:104CB000FB4F1082D1015F961C921E925E97F80105
:104CC00010821182128213821D921C92019790937E
:104CD000350480933404FFEFCF1ADF0A22E0E20E9E
:104CE000F11C0C5F1F4F32E0230E311C4AE0C4164A
:104CF000D10409F0BCCF80914A02813009F04EC244
:104D000010924B0240914602509147026091480236
:104D100070914902009123011091240120912501F5
:104D20003091260140175107620773070CF460C0E9
:104D300000911F0110912001209121013091220149
:104D400040175107620773070CF052C08093450269
:104D500087E693E00E944B0A81110AC040911B0133
:104D600050911C016091440287E693E00E94560A2C
:104D700086E593E00E944B0A81110AC040911B0115
:104D800050911C0160911A0186E593E00E94560A39
:104D900085E493E00E944B0A81110AC040911B01F7
:104DA00050911C016091190185E493E00E94560A1C
:104DB00084E393E00E944B0A81110AC040911B01D9
:104DC00050911C016091180184E393E00E94560AFF
:104DD00083E293E00E944B0A81110AC040911B01BB
:104DE00050911C016091430283E293E00E94560AB5
:104DF0008091460290914702A0914802B0914902E9
:104E000040911F0150912001609121017091220178
:104E100084179507A607B7070CF461C040911401E9
:104E20005091150160911601709117018417950733
:104E3000A607B7070CF053C082E08093450287E6CF
:104E400093E00E944B0A81110AC040911B015091CE
:104E50001C016091130187E693E00E94560A86E5E3
:104E600093E00E944B0A81110AC040911B015091AE
:104E70001C016091120186E593E00E94560A85E4C8
:104E800093E00E944B0A81110AC040911B0150918E
:104E90001C016091110185E493E00E94560A84E3AD
:104EA00093E00E944B0A81110AC040911B0150916E
:104EB0001C016091100184E393E00E94560A83E292
:104EC00093E00E944B0A81110AC040911B0150914E
:104ED0001C016091420283E293E00E94560A809195
:104EE000460290914702A0914802B0914902409138
:104EF00014015091150160911601709117018417EA
:104F00009507A607B7070CF461C040910C015091BA
:104F10000D0160910E0170910F0184179507A6078E
:104F2000B7070CF053C083E08093450287E693E017
:104F30000E944B0A81110AC040911B0150911C0133
:104F400060910B0187E693E00E94560A86E593E0A4
:104F50000E944B0A81110AC040911B0150911C0113
:104F600060910A0186E593E00E94560A85E493E089
:104F70000E944B0A81110AC040911B0150911C01F3
:104F80006091090185E493E00E94560A84E393E06E
:104F90000E944B0A81110AC040911B0150911C01D3
:104FA0006091410284E393E00E94560A83E293E019
:104FB0000E944B0A81110AC040911B0150911C01B3
:104FC0006091400283E293E00E94560A809146027B
:104FD00090914702A0914802B091490240910C0182
:104FE00050910D0160910E0170910F01841795078A
:104FF000A607B7070CF461C0409105015091060166
:10500000609107017091080184179507A607B707FB
:105010000CF053C084E08093450287E693E00E9441
:105020004B0A81110AC040911B0150911C016091F3
:10503000040187E693E00E94560A86E593E00E9409
:105040004B0A81110AC040911B0150911C016091D3
:10505000030186E593E00E94560A85E493E00E94EE
:105060004B0A81110AC040911B0150911C016091B3
:10507000020185E493E00E94560A84E393E00E94D3
:105080004B0A81110AC040911B0150911C01609193
:10509000010184E393E00E94560A83E293E00E94B8
:1050A0004B0A81110AC040911B0150911C01609173
:1050B000000183E293E00E94560A8091460290919B
:1050C0004702A0914802B0914902409105015091D8
:1050D0000601609107017091080184179507A607E2
:1050E000B70774F440912301509124016091250188
:1050F0007091260184179507A607B7070CF04EC0DC
:1051000085E08093450287E693E00E944B0A811177
:1051100009C040911B0150911C0160E087E693E0BB
:105120000E94560A86E593E00E944B0A811109C04D
:1051300040911B0150911C0160E086E593E00E94C4
:10514000560A85E493E00E944B0A811109C0409100
:105150001B0150911C0160E085E493E00E94560A17
:1051600084E393E00E944B0A811109C040911B0126
:1051700050911C0160E084E393E00E94560A83E2B0
:1051800093E00E944B0A811109C040911B0150918C
:105190001C0160E083E293E00E94560A80914A027B
:1051A000811188C080914B02811143C080E090E062
:1051B000A8ECB2E48093720390937303A0937403FA
:1051C000B093750310927103109270038093610382
:1051D00090936203A0936303B093640310926003FF
:1051E00010925F038093500390935103A093520356
:1051F000B093530310924F0310924E0380933F03DA
:1052000090934003A0934103B093420310923E0356
:1052100010923D0380932E0390932F03A0933003AD
:10522000B093310310922D0310922C0381E08093F0
:105230004B0287E693E00E944B0A811107C040EDC4
:1052400057E060E087E693E00E94560A86E593E027
:105250000E944B0A811107C040ED57E060E086E5EF
:1052600093E00E94560A85E493E00E944B0A811164
:1052700007C040ED57E060E085E493E00E94560AE5
:1052800084E393E00E944B0A811107C040ED57E090
:1052900060E084E393E00E94560A83E293E00E9478
:1052A0004B0A811107C040ED57E060E083E293E0D4
:1052B0000E94560A0E94C50215CB288D398D2130D7
:1052C000310509F07BCB4430510521F0483C5105B4
:1052D00009F064C26093E7047093E8048093E904E2
:1052E0009093EA0481E090E09093F2048093F104BB
:1052F0000E94E12B60E070E0CB010E9459044BC298
:105300008091D9049091DA04F1E0CF16DF0618F00D
:105310000E94671B40C28DB69EB696012F5F3F4F1D
:105320004DB75EB7421B530B0FB6F8945EBF0FBE6E
:105330004DBFADB7BEB711967D01A601BD010E945C
:105340004F1AC816D90609F01DC2EA8DFB8DEE0D65
:10535000FF1D10820E9493046093DF047093E004A9
:105360008093E1049093E2048F89843109F494C01E
:10537000E0F4863021F18F3009F48EC0823009F0DC
:10538000FAC181E090E09093F2048093F104488D9B
:10539000598D08EC10E020E030E060E089ED94E009
:1053A0000E948B150E94E12BEFC1823309F4ECC1FE
:1053B000873309F4E9C1893209F0DDC10CC0488D99
:1053C000598D08EC10E020E030E060E089ED94E0D9
:1053D0000E948B15D9C18091DD049091DE04892B48
:1053E00041F480E290E00E946C309093DE04809360
:1053F000DD04CA8CDB8CFA82E982CE0CDF1CEC1453
:10540000FD0408F0BFC140E250E0B7018091DD0427
:105410009091DE040E942330C5010E940E2CFC01F5
:10542000808191818C159D0530F489819A810E943B
:10543000B7318B0102C00AEF10E28091D90490913C
:10544000DA040E94D31A8091D9049091DA04FC0105
:10545000E85FFE4F2091DD043091DE04318320832C
:105460003296118300838091DF049091E004A09133
:10547000E104B091E20488589341A109B1098093F5
:10548000E7049093E804A093E904B093EA0410922F
:10549000F2041092F10478C1888D998D9093F004F4
:1054A0008093EF046A8C7B8CFE8EED8E6701C60CB8
:1054B000D71CEC14FD0408F059C1D7012D903C9085
:1054C000CE014D960E940E2CFC01808191818C159D
:1054D0009D0508F04BC18D8D9E8DDC012C912134F2
:1054E00049F401960E949931863091053CF41EE002
:1054F000180F05C00E949931182F01C01FEFB6E7A1
:105500002B16B2E73B0609F4E4C098F4F1E62F1637
:10551000F2E73F0609F49FC024E6221622E732068E
:1055200009F446C030E723163DE6330609F011C101
:1055300028C044E6241647E7340609F471C056E74C
:10554000251657E7350609F4DCC081E6281687E7FB
:10555000380609F0FEC0A5C0CE014D960E940E2C63
:10556000ED8CFE8C6BE871E0C7010E941330892B33
:1055700071F460E0812F0E94A703CE014D960E9436
:105580000E2C8D8D9E8D8C159D0530F3EFC06EE831
:1055900071E0C7010E941330892B09F410C162E940
:1055A00071E0C7010E941330892B09F408C1FDC0C6
:1055B000BA8AA98A1C8A1B8AA0E1B0E0BE8BAD8B97
:1055C00066E971E0CE0141960E94A71B012F10E011
:1055D000B801CE0141960E947C1CF801EE54FE4FAA
:1055E0008491F801EE55FD4FF490F801E257FD4F1C
:1055F0000491002391F081110E944E03E02FF0E00E
:10560000EE0FFF1FEF5BFD4FA591B491EC91FE22D1
:1056100061E070E0C1F560E036C060E070E033C08A
:10562000CE014D960E940E2CFC01808191818C153B
:105630009D0508F09BC061E0812F0E94A7038D8D1E
:105640009E8D0E94993161E0892B09F460E0812FE1
:105650000E9477038BC0BA8AA98A1C8A1B8A20E120
:1056600030E03E8B2D8B69E971E0CE0141960E94BE
:10567000A71B612F70E0CE0141960E947C1C812FF8
:105680000E944204BC01CE0141960E947C1C0B8901
:105690001C890150110929893A8940E050E064E1F0
:1056A00061C0CE014D960E940E2CDC018D919C9123
:1056B0008C159D0508F05AC061E0812F0E94A70358
:1056C0008D8D9E8D0E949931BC01812F0E94E30334
:1056D0004DC01983103208F049C0E12FF0E0EE0F01
:1056E000FF1FEE58FE4F259134912115310509F425
:1056F0003DC0BAE0283D3B07C9F1C501F901099554
:1057000035C0CE014D960E940E2C8D8D9E8DE81ACF
:10571000F90AE60CF71C9A838983FC82EB82FE82ED
:10572000ED82198B103210F5E12FF0E0EE0FFF1F24
:10573000EE5CFE4F2591349121153105B9F0FAE068
:10574000273D3F0799F0B501CE014196F901099532
:105750000DC04091EF045091F00402E010E020E011
:1057600030E060E089ED94E00E948B151092F00427
:105770001092EF0409C08091D9049091DA040E943C
:10578000671B02C080E001C0852D0FB6F8949EBE55
:105790000FBE8DBE01C0852D811114C98091D90421
:1057A0009091DA040E94D31AEAC96CE971E0C7014A
:1057B0000E941330892B09F0E0CE62E0DBCE61E07D
:1057C000D9CE0F931F93CF93DF93CDB7DEB7C656D5
:1057D000D1090FB6F894DEBF0FBECDBF46E650E04C
:1057E0006AED71E0CE0101960E94DE3106E610E01E
:1057F0009E012F5F3F4F40E050E061E189ED94E072
:105800000E948B15CA59DF4F0FB6F894DEBF0FBE4A
:10581000CDBFDF91CF911F910F910895DC01ED91E4
:10582000FC91119701900020E9F7ED93FC93089506
:10583000CF93DF93E6E3F4E01382128248EE53E065
:1058400060E070E0448355836683778382E391E070
:105850009183808385EC90E09587848784EC90E049
:105860009787868780EC90E0918B808B81EC90E02D
:10587000938B828B82EC90E0958B848B86EC90E00E
:10588000978B868B118E128E138E148EA5E1B3E04A
:1058900013961C921E92129714964D935D936D93DE
:1058A0007C93179782E491E08D939C93C5EFD4E0AD
:1058B000198218821A821092F9051092F805109236
:1058C000FB051092FA051092FC051092FE0510924D
:1058D000FD05109200061092FF05A9EDB4E01196A7
:1058E000DC93CE9313961C921E92129715961C92DF
:1058F0001E92149716961D921D921D921C92199736
:105900001A961D921D921D921C921D971E961D9215
:105910001D921D921C92519752961D921D921D929E
:105920001C92559757961C921E92569759961C9208
:105930001E9258975B961C921E925A97A3EDB4E064
:105940001196FC93EE9313961C921E921297159645
:105950001C921E9214978FEF9FEF909335048093C3
:105960003404A8E7B3E082E015968C93159786E19E
:1059700016968C931697E4EAF2E0E4911796EC936E
:105980001797E0E9F2E0E4911896EC93189740E855
:105990005EE360E070E01D964D935D936D937C93A4
:1059A0005097E7E6F3E08BE0808317821086118240
:1059B0001282138214821682158212861186138631
:1059C000148615861686108A1786E6E5F3E08AE0C7
:1059D00080831782108611821282138214821682AB
:1059E0001582128611861386148615861686108AED
:1059F0001786E5E4F3E085E0808317821086118244
:105A000012821382148216821582128611861386E0
:105A1000148615861686108A1786E4E3F3E086E07E
:105A2000808317821086118212821382148216825A
:105A30001582128611861386148615861686108A9C
:105A40001786E3E2F3E089E08083178210861182F3
:105A50001282138214821682158212861186138690
:105A6000148615861686108A17868EE090E090932D
:105A7000220380932103DF91CF910895991B79E050
:105A800004C0991F961708F0961B881F7A95C9F7CE
:105A900080950895A1E21A2EAA1BBB1BFD010DC023
:105AA000AA1FBB1FEE1FFF1FA217B307E407F507CE
:105AB00020F0A21BB30BE40BF50B661F771F881FAA
:105AC000991F1A9469F760957095809590959B0140
:105AD000AC01BD01CF010895052E97FB1EF4009483
