:100000000C94D9010C9401020C9401020C9401028D
:100010000C9401020C9401020C9401020C94010254
:100020000C9401020C9401020C9401020C94010244
:100030000C9401020C9401020C9401020C94010234
:100040000C94120C0C9401020C948F0A0C94690A03
:100050000C9401020C9401020C9401020C94010214
:100060000C940A060C9401026B24812481247F24C1
:10007000812469248124812481245D248124812494
:1000800072247D247B248124812481247924080006
:100090000000BE922449123EABAAAA2ABECDCCCC07
:1000A0004C3E00000080BEABAAAAAA3E00000000A1
:1000B000BF000000803F0000000000084178D3BB73
:1000C0004387D1133D190E3CC3BD4282AD2B3E6820
:1000D000EC8276BED98FE1A93E4C80EFFFBE01C411
:1000E000FF7F3F000000000041542B474D5200416C
:1000F000542B4349504D55583D0041542B43574DC7
:100100004F44453D0041542B43574D4F44453F001C
:1001100041542B4349465352004154450031373A2C
:1001200031343A3234004A616E2020362032303188
:100130003700D8189E1864189405030203020302BE
:100140005A052005E604720364033D049603030286
:10015000030280037008560348033A0303020302B4
:100160000302030203020302030203020302030267
:100170000302040204020402040204020402040250
:10018000040204020402040204020402040204023F
:10019000040204020402040204020402040204022F
:1001A000040204020402040204020402040204021F
:1001B0000402000000080002010000030407000020
:1001C00000000000000000000000240027002A00BA
:1001D00000000000250028002B0076657200302EFC
:1001E000342E3300682D6265617400313000627511
:1001F00066662D696E0032353600646576004172A0
:100200006475696E6F20556E6F00637075004154A0
:100210006D6567613332385000636F6E004553502F
:1002200038323636006275696C64004A616E20208F
:100230003620323031372031373A31343A323400D7
:1002400000000000002300260029002C0041542B50
:1002500043495053454E443D0041542B434950437C
:100260004C4F53453D00222C00222C22002C220012
:1002700041542B43495053544152543D00220022D3
:100280002C220041542B43574A41503D2200040484
:10029000040404040404020202020202030303032E
:1002A000030301020408102040800102040810200A
:1002B00001020408102000407A10F35A00A0724E88
:1002C00018090010A5D4E80000E87648170000E4FB
:1002D0000B54020000CA9A3B000000E1F505000043
:1002E00080969800000040420F000000A0860100A8
:1002F0000000102700000000E80300000000640078
:10030000000000000A0000000000010000000000E2
:100310002C76D888DC674F0823DFC1DFAE59E1B106
:10032000B796E5E3E453C63AE651997696E8E6C215
:100330008426EB898C9B62ED407C6FFCEFBC9C9F1C
:1003400040F2BAA56FA5F490055A2AF75C936B6C3E
:10035000F9676DC11BFCE0E40D47FEF520E6B50032
:10036000D0ED902E0300943577050080841E0800A0
:1003700000204E0A000000C80C333333330F986E50
:1003800012831141EF8D2114893BE65516CFFEE60D
:10039000DB18D1844B381BF77C1D901DA4BBE424D3
:1003A000203284725E228100C9F124ECA1E53D2750
:1003B0000E2C11241FBECFEFD8E0DEBFCDBF12E060
:1003C000A0E0B1E0EEE8FCE602C005900D92A43793
:1003D000B107D9F726E0A4E7B2E001C01D92A73328
:1003E000B207E1F711E0C9EDD1E004C02197FE01A9
:1003F0000E94802DC83DD107C9F70E9416210C9498
:1004000045360C9400000895089585ED8093BC0056
:100410008091BC0084FDFCCF10922203089540918E
:10042000AA02262F30E0240F311D21323105DCF4E1
:10043000209122032430C9F4FC0180E090E086176B
:1004400058F43091AA022191DC01A857BD4FA30FA7
:10045000B11D2C930196F3CF8091AA02680F60938F
:10046000AA0280E0089581E0089582E00895089549
:10047000E091D9028091D802E81730F4F0E0E6521A
:10048000FD4F808190E008958FEF9FEF0895909148
:10049000D9028091D802981750F4E92FF0E0E65283
:1004A000FD4F208130E09F5F9093D90202C02FEF73
:1004B0003FEFC90108958091D80290E02091D902C0
:1004C000821B91090895CF92DF92EF92FF920F93D2
:1004D0001F93CF93DF937C01262F972F8A01809162
:1004E0002303882391F0C62FD72F6E01C40ED51E8B
:1004F000CC15DD0571F06991D701ED91FC9101906A
:10050000F081E02DC7010995F3CF642F822F0E945F
:100510000F02C801DF91CF911F910F91FF90EF90D3
:10052000DF90CF900895CF93DF931F92CDB7DEB7C2
:100530006983209123032223D1F0209146032032A6
:1005400040F021E030E0FC013383228380E090E042
:1005500015C080912403E82FF0E0EB5DFC4F9981FA
:1005600090838F5F809324038093460305C061E0EE
:10057000CE0101960E940F0281E090E00F90DF9182
:10058000CF910895AF92BF92CF92DF92EF92FF92F8
:100590000F931F93CF93DF931F92CDB7DEB75C010C
:1005A0007B018B016C0184E0C80ED11CF8016191C4
:1005B0008F01C50169830E94E9356981681719F0C7
:1005C000C5010E94F135FFEFAF1ABF0AAC14BD049C
:1005D00069F7C7010F90DF91CF911F910F91FF90A5
:1005E000EF90DF90CF90BF90AF900895CF92DF92C1
:1005F000EF92FF920F931F93CF93DF93EB017B0159
:1006000024E0E20EF11C8B016C01C61AD70AC60168
:10061000800F911F0E94E935F80181938F01EE153B
:10062000FF05A9F7CE01DF91CF911F910F91FF90A8
:10063000EF90DF90CF9008950F931F93CF93DF93A8
:100640001F92CDB7DEB78C0169830E94E9356981BD
:10065000681741F0C8010F90DF91CF911F910F9162
:100660000C94F1350F90DF91CF911F910F91089568
:100670000C94E935FB01808191810E94AC3160933B
:100680000501709306018093070190930801089576
:10069000FB01808191810E94AC3160930C017093C9
:1006A0000D0180930E0190930F010895FB0180814D
:1006B00091810E94AC316093140170931501809375
:1006C0001601909317010895FB01808191810E948A
:1006D000AC3160931F0170932001809321019093AE
:1006E00022010895FB01808191810E94AC316093C9
:1006F000230170932401809325019093260108958E
:10070000FB01808191810E948E3180932701282FE7
:1007100030E0A0E7B7E10E94363660931B0170938A
:100720001C0180931D0190931E010895FB0180819F
:1007300091810E948E3180938702813009F09CC0A4
:1007400080E090E00E94380380931A0181E090E0FD
:100750000E9438038093120182E090E00E943803E7
:1007600080930A0183E090E00E94380380930301A4
:1007700084E090E00E9438038093780285E090E066
:100780000E9438038093130186E090E00E943803B2
:1007900080930B0187E090E00E943803809304016E
:1007A00088E090E00E9438038093190189E090E08E
:1007B0000E943803809311018AE090E00E94380380
:1007C000809309018BE090E00E943803809302013E
:1007D0008CE090E00E943803809318018DE090E057
:1007E0000E943803809310018EE090E00E9438034D
:1007F000809375028FE090E00E943803809301019E
:1008000080E190E00E9438038093770281E190E0DC
:100810000E9438038093760282E190E00E943803C0
:100820008093740283E190E00E943803809300017A
:1008300063E271E084E190E00E94F6026FE171E012
:1008400088E190E00E94F60264E171E08CE190E0C2
:100850000E94F6026CE071E080E290E00E94F602F5
:1008600065E071E084E290E00E94F6026BE171E0E5
:1008700088E290E00C94F6020895FB01808191815A
:100880000E948E3180938602813009F09EC0609173
:100890001A0180E090E00E941C036091120181E047
:1008A00090E00E941C0360910A0182E090E00E94A7
:1008B0001C036091030183E090E00E941C0360919F
:1008C000780284E090E00E941C036091130185E0AF
:1008D00090E00E941C0360910B0186E090E00E9472
:1008E0001C036091040187E090E00E941C0360916A
:1008F000190188E090E00E941C036091110189E0D9
:1009000090E00E941C03609109018AE090E00E943F
:100910001C03609102018BE090E00E941C03609137
:1009200018018CE090E00E941C03609110018DE0A2
:1009300090E00E941C03609175028EE090E00E949E
:100940001C03609101018FE090E00E941C03609104
:10095000770280E190E00E941C036091760281E1C1
:1009600090E00E941C036091740282E190E00E947A
:100970001C036091000183E190E00E941C0363E28C
:1009800071E084E190E00E94C2026FE171E088E1D1
:1009900090E00E94C20264E171E08CE190E00E946C
:1009A000C2026CE071E080E290E00E94C20265E069
:1009B00071E084E290E00E94C2026BE171E088E2A3
:1009C00090E00E94C202109286020895FB0180E02E
:1009D00090E0A8ECB2E48093600390936103A0934D
:1009E0006203B093630310925F0310925E038091E1
:1009F0007902823081F018F4813031F0089583302B
:100A000089F08430B1F00895808191810E948E3107
:100A1000809377020895808191810E948E31809326
:100A200076020895808191810E948E3180937402B4
:100A30000895808191810E948E31809300010895F4
:100A4000FB0180E090E0A8ECB2E480937103909306
:100A50007203A0937303B093740310927003109207
:100A60006F0380917902823081F018F4813031F087
:100A70000895833089F08430B1F0089580819181A8
:100A80000E948E31809318010895808191810E9487
:100A90008E31809310010895808191810E948E3162
:100AA000809375020895808191810E948E31809398
:100AB00001010895FB0180E090E0A8ECB2E480938E
:100AC000820390938303A0938403B09385031092D1
:100AD00081031092800380917902823081F018F4B2
:100AE000813031F00895833089F08430B1F0089579
:100AF000808191810E948E318093190108958081B7
:100B000091810E948E31809311010895808191819D
:100B10000E948E31809309010895808191810E9405
:100B20008E31809302010895CF92DF92EF92FF926F
:100B30001F93CF93DF9300D000D000D0CDB7DEB7A6
:100B4000FB01808191810E94AC316B017C0160933B
:100B5000820270938302809384029093850220E145
:100B60003EE040E050E00E94612D122F2093810270
:100B7000C701B6012CE330E040E050E00E94612D57
:100B8000822FFCE31F9F801911248093800290E143
:100B9000998394E09A839BE09B831C838D831E82C0
:100BA000CE0101960E94E60C26960FB6F894DEBFA1
:100BB0000FBECDBFDF91CF911F91FF90EF90DF90DF
:100BC000CF900895CF93DF93DC018C918823F9F0C7
:100BD00077FD07C06F3F710529F024F06FEF70E0DB
:100BE00001C060E017966C9317971F96ED91FC91EA
:100BF0005097309739F0ED01862F0995682F70E0F6
:100C0000888101C070E0DF91CF910C94560BDF9189
:100C1000CF9108951F920F920FB60F9211242F9328
:100C20003F934F935F936F937F938F939F93AF9374
:100C3000BF93EF93FF938091B900887F803609F4CA
:100C40009CC068F5883209F45BC090F4803109F4E7
:100C500054C038F4882309F4F6C0883009F44DC034
:100C6000F6C0883109F44CC0803209F45DC0EFC091
:100C7000803409F468C048F4803309F455C08833DF
:100C800009F0E5C080932003D8C0803509F44FC037
:100C9000883509F45DC0883409F0D9C0D6C08839D8
:100CA00009F4C7C0A8F4883709F467C038F4883657
:100CB00009F463C0803709F460C0C9C0883809F4FA
:100CC000B8C0803909F45FC0803809F0C0C05BC08B
:100CD000803B09F486C038F4803A09F466C0883A4B
:100CE00009F47FC0B4C0803C09F4A7C0883C09F473
:100CF000A4C0883B09F48AC0AAC08091FD0210C03C
:100D000090911F0380911E03981770F5E0911F03C7
:100D100081E08E0F80931F03F0E0E250FD4F808151
:100D20008093BB0085EC86C0809320038EC0E09149
:100D30001F0381E08E0F80931F038091BB00F0E0C2
:100D4000E250FD4F808390911F0380911E036EC07F
:100D5000E0911F0381E08E0F80931F038091BB0001
:100D6000F0E0E250FD4F80838091210381116DC03E
:100D700081E08093FC0284EA61C083E080932203D7
:100D80001092CE02CFCF8091CE02803208F051C0B7
:100D9000E091CE0281E08E0F8093CE028091BB0065
:100DA000F0E0E255FD4F8083BDCF85EC8093BC0021
:100DB000109222038091CE02803230F4E091CE0274
:100DC000F0E0E255FD4F10826091CE0270E0E091BC
:100DD000AC02F091AD028EEA92E009951092CE023B
:100DE00036C084E0809322031092AB021092AA02D4
:100DF000E091A802F091A90209958091AA028111BF
:100E000005C081E08093AA0210928802E091AB02B3
:100E100081E08E0F8093AB02F0E0E857FD4F8081B8
:100E20008093BB009091AB028091AA02981708F4BE
:100E300079CF85E88093BC000AC085EC8093BC0024
:100E40001092220304C0109220030E940502FF9119
:100E5000EF91BF91AF919F918F917F916F915F9132
:100E60004F913F912F910F900FBE0F901F901895AB
:100E70008F929F92AF92BF92EF92FF920F931F9328
:100E8000CF93DF93CDB7DEB7C85AD1090FB6F89428
:100E9000DEBF0FBECDBF7C018B0149015A01CE01DF
:100EA0000196CD55DF4F99838883C35AD040CB55E7
:100EB000DF4F19821882C55AD04080E890E0C955AA
:100EC000DF4F99838883C75AD04064ED71E0CE012B
:100ED0008D559F4F0E94CA1BB801CE018D559F4F63
:100EE0000E949F1C2AE0AE014F575F4FC501B4011D
:100EF0000E94E731BE016F577F4FCE018D559F4F46
:100F00000E94CA1BCB55DF4F08811981C55AD040BA
:100F100001501109CD55DF4F28813981C35AD04086
:100F200040E050E064E1C7010E944316C855DF4F1E
:100F30000FB6F894DEBF0FBECDBFDF91CF911F91EA
:100F40000F91FF90EF90BF90AF909F908F9008957A
:100F5000CF92DF92EF92FF920F931F93CF93DF9385
:100F6000CDB7DEB7C658D1090FB6F894DEBF0FBEB5
:100F7000CDBF7C016B018A01CE010196CF57DF4FB7
:100F800099838883C158D040CD57DF4F198218828A
:100F9000C358D04080E890E0CB57DF4F99838883D7
:100FA000C558D04064ED71E0CE018F579F4F0E942D
:100FB000CA1BB601CE018F579F4F0E949F1CB801DC
:100FC000CE018F579F4F0E949F1CCD57DF4F088146
:100FD0001981C358D04001501109CF57DF4F2881E4
:100FE0003981C158D04040E050E064E1C7010E941F
:100FF0004316CA57DF4F0FB6F894DEBF0FBECDBF02
:10100000DF91CF911F910F91FF90EF90DF90CF90E4
:101010000895EF92FF920F931F93CF93DF93CDB775
:10102000DEB7C758D1090FB6F894DEBF0FBECDBFEB
:101030007C018B01CE010196CF57DF4F99838883C6
:10104000C158D040CD57DF4F19821882C358D040C5
:1010500080E890E0CB57DF4F99838883C558D04014
:1010600064ED71E0CE018F579F4FC957DF4F488322
:10107000C758D0400E94CA1BB801CE018F579F4F5E
:101080000E949F1CC957DF4F4881C758D040642F2A
:1010900070E0CE018F579F4F0E949F1CCD57DF4FAE
:1010A00008811981C358D04001501109CF57DF4F33
:1010B00028813981C158D04040E050E064E1C70147
:1010C0000E944316C957DF4F0FB6F894DEBF0FBE1C
:1010D000CDBFDF91CF911F910F91FF90EF900895B9
:1010E00080917902833009F47CC048F5813009F49D
:1010F00055C0823009F0C1C04091120161E070E03A
:101100008BE095E00E9409084091130162E070E0D5
:101110008BE095E00E9409084091110167E070E0C2
:101120008BE095E00E9409084091100168E070E0B2
:101130008BE095E00E9409084091760274C08430EB
:1011400009F478C0853009F098C040E050E061E0D3
:1011500070E08BE095E00E94A80740E050E062E07C
:1011600070E08BE095E00E94A80740E050E067E067
:1011700070E08BE095E00E94A80740E050E068E056
:1011800070E08BE095E00E94A80740E050E069E045
:1011900070E08BE095E00E94A8076FC040911A01B3
:1011A00061E070E08BE095E00E94090840917802D0
:1011B00062E070E08BE095E00E940908409119011F
:1011C00067E070E08BE095E00E940908409118010B
:1011D00068E070E08BE095E00E940908409177029A
:1011E00022C040910A0161E070E08BE095E00E942E
:1011F000090840910B0162E070E08BE095E00E94ED
:1012000009084091090167E070E08BE095E00E94D9
:1012100009084091750268E070E08BE095E00E945B
:1012200009084091740269E070E08BE095E00E944B
:10123000090823C04091030161E070E08BE095E074
:101240000E9409084091040162E070E08BE095E0A3
:101250000E9409084091020167E070E08BE095E090
:101260000E9409084091010168E070E08BE095E080
:101270000E94090840910001D6CF60911B01709136
:101280001C0180911D0190911E0120E737E140E093
:1012900050E00E94612D60E170E08BE095E00E94DB
:1012A000380740917E0260E070E08BE095E00C949E
:1012B0000908FC01EE5FFE4F2081318132974081A9
:1012C00051812417350739F43496808181110BC080
:1012D00080E090E00895C9014217530708F0939504
:1012E000841B950B089580E091E00895FC01918D99
:1012F000828D981761F0828DDF01A80FB11D5D9678
:101300008C91928D9F5F9F73928F90E008958FEFE5
:101310009FEF0895FC01918D828D981731F0828D99
:10132000E80FF11D858D90E008958FEF9FEF0895F0
:10133000FC01918D228D892F90E0805C9F4F821B54
:1013400091098F739927089588E694E00E9498097F
:1013500021E0892B09F420E0822F0895FC01848D7F
:10136000DF01A80FB11DA35ABF4F2C91848D90E0CF
:1013700001968F739927848FA689B7892C93A089AA
:10138000B1898C9180648C93938D848D981306C061
:101390000288F389E02D80818F7D80830895EF920C
:1013A000FF920F931F93CF93DF93EC0181E0888F1F
:1013B0009B8D8C8D981305C0E889F989808185FD06
:1013C00024C0F62E0B8D10E00F5F1F4F0F731127F7
:1013D000E02E8C8DE8120CC00FB607FCFACFE8891E
:1013E000F989808185FFF5CFCE010E94AE09F1CF4A
:1013F0008B8DFE01E80FF11DE35AFF4FF0820B8F3A
:10140000EA89FB898081806207C0EE89FF89608359
:10141000E889F98980818064808381E090E0DF91B0
:10142000CF911F910F91FF90EF900895CF93DF938D
:10143000EC01888D8823C9F0EA89FB89808185FDCC
:1014400005C0A889B9898C9186FD0FC00FB607FC2D
:10145000F5CF808185FFF2CFA889B9898C9185FF6E
:10146000EDCFCE010E94AE09E7CFDF91CF91089575
:1014700080E090E0892B29F00E94A40981110C944E
:10148000000008953FB7F8948091D4029091D5025E
:10149000A091D602B091D70226B5A89B05C02F3FD8
:1014A00019F00196A11DB11D3FBFBA2FA92F982F8A
:1014B0008827820F911DA11DB11DBC01CD0142E005
:1014C000660F771F881F991F4A95D1F708950E94CC
:1014D000EF2F1F920F920FB60F9211242F933F936D
:1014E0004F935F936F937F938F939F93AF93BF932C
:1014F000EF93FF9388E694E00E94AE09FF91EF918D
:10150000BF91AF919F918F917F916F915F914F911B
:101510003F912F910F900FBE0F901F9018951F9223
:101520000F920FB60F9211242F938F939F93EF93E7
:10153000FF93E0917804F09179048081E0917E043A
:10154000F0917F0482FD12C09081809181048F5FB1
:101550008F7320918204821751F0E0918104F0E0B2
:10156000E859FB4F958F8093810401C08081FF91E2
:10157000EF919F918F912F910F900FBE0F901F9021
:101580001895833081F028F4813099F08230A1F0F1
:1015900008958730A9F08830B9F08430D1F4809173
:1015A00080008F7D03C0809180008F7780938000C2
:1015B000089584B58F7702C084B58F7D84BD08956A
:1015C0008091B0008F7703C08091B0008F7D8093B1
:1015D000B00008951F93CF93DF93282F30E0F901D7
:1015E000EE54FE4F8491F901EE55FD4FD491F9016F
:1015F000E257FD4FC491CC23C9F0162F81110E94F0
:10160000C10AEC2FF0E0EE0FFF1FE053FE4FA59153
:10161000B4918FB7F894111105C09C91ED2FE0950E
:10162000E92302C0EC91ED2BEC938FBFDF91CF91BA
:101630001F910895CF93DF9390E0FC01EE55FD4F8D
:101640002491FC01E257FD4F8491882361F190E0E1
:10165000880F991FFC01EA53FE4FC591D491FC01FC
:10166000E053FE4FA591B491611109C09FB7F89462
:101670008881209582238883EC912E230BC06230D1
:1016800061F49FB7F8943881822F809583238883F3
:10169000EC912E2B2C939FBF06C08FB7F894E88156
:1016A0002E2B28838FBFDF91CF9108951F93CF9367
:1016B000DF93182FEB0161E00E941A0B209711F4C1
:1016C00060E004C0CF3FD10539F461E0812FDF91A4
:1016D000CF911F910C94EA0AE12FF0E0EE54FE4FF7
:1016E000E491E330F9F048F4E130B9F0E230A1F5EB
:1016F00084B5806284BDC8BD34C0E730E9F0E8300D
:1017000019F1E43049F58091800080628093800077
:10171000D0938B00C0938A0024C084B5806884BDB8
:10172000C7BD1FC080918000806880938000D093E7
:101730008900C093880015C08091B00080688093B4
:10174000B000C093B3000DC08091B0008062809360
:10175000B000C093B40005C0C038D1050CF0B5CFBF
:10176000AFCFDF91CF911F9108958E3008F08E504A
:101770008770806480937C0080917A00806480937D
:101780007A0080917A0086FDFCCF809178002091CC
:10179000790090E0922B08958F929F92AF92BF9222
:1017A000CF92DF92EF92FF926B017C010E94420A7E
:1017B0004B015C01C114D104E104F104F1F00E9479
:1017C000420ADC01CB0188199909AA09BB09883EA4
:1017D0009340A105B10570F321E0C21AD108E108D8
:1017E000F10888EE880E83E0981EA11CB11CC1147C
:1017F000D104E104F10419F7DDCFFF90EF90DF9001
:10180000CF90BF90AF909F908F9008952FB7F8948E
:101810006091D0027091D1028091D2029091D30256
:101820002FBF08951F920F920FB60F9211242F937E
:101830003F938F939F93AF93BF938091D0029091EA
:10184000D102A091D202B091D3023091CF0223E015
:10185000230F2D3720F40196A11DB11D05C026E8E8
:10186000230F0296A11DB11D2093CF028093D002B9
:101870009093D102A093D202B093D3028091D4026C
:101880009091D502A091D602B091D7020196A11DE8
:10189000B11D8093D4029093D502A093D602B09349
:1018A000D702BF91AF919F918F913F912F910F9050
:1018B0000FBE0F901F901895CF92DF92EF92FF927C
:1018C0000F931F93CF93DF93EC0181E08093230369
:1018D00088E680934503109224031092460360E04B
:1018E00087E493E00E94930281E00E94E91F87E071
:1018F00090E00E94F21287E493E00E9447028F7703
:10190000982F92959F701AEF082F919F000D112428
:1019100087E493E00E9447029C01332794E03595C9
:1019200027959A95E1F7F82E129FF00C112487E481
:1019300093E00E9447029C01332744E035952795A8
:101940004A95E1F7E82E129FE00C112487E493E01A
:101950000E94470287E493E00E9447029C013327DC
:1019600054E0359527955A95E1F7D82E129FD00C63
:10197000112487E493E00E9447029C01332764E02E
:10198000359527956A95E1F7C82E129FC00C112452
:1019900087E493E00E9447029C01332774E0359569
:1019A00027957A95E1F7129F800D11248883C982CB
:1019B000DA82EB82FC820D83CE01DF91CF911F9101
:1019C0000F91FF90EF90DF90CF9008950F931F93AA
:1019D000CF938C0181E08093230388E680934503B5
:1019E000109224031092460360E087E493E00E9483
:1019F0009302F8012581CAE0822F6C2F0E94332DBB
:101A0000682F660F860F682F660F620F87E493E0DA
:101A10000E949302F8012481822F6C2F0E94332DA3
:101A2000682F660F860F682F660F620F87E493E0BA
:101A30000E949302F8012381822F6C2F0E94332D84
:101A4000682F660F860F682F660F620F87E493E09A
:101A50000E94930260E087E493E00E949302F80101
:101A60002281822F6C2F0E94332D682F660F860FE4
:101A7000682F660F620F87E493E00E949302F801DB
:101A80002181822F6C2F0E94332D682F660F860FC5
:101A9000682F660F620F87E493E00E949302F801BB
:101AA0002081822F6C2F0E94332D682F660F860FA6
:101AB000682F660F620F87E493E00E94930281E033
:101AC000CF911F910F910C94E91FFC0190819053CD
:101AD0009A3008F090E0818180532AE0929F800D37
:101AE000112408952F923F924F925F926F927F92AE
:101AF0008F929F92AF92BF92CF92DF92EF92FF921E
:101B00000F931F93CF93DF9300D000D000D0CDB7B9
:101B1000DEB75C016B0167ED71E0CE0101960E94BA
:101B20002E16BE016F5F7F4FC6010E946F154C01DC
:101B3000CE0101960E9420162FEF8216920629F4FC
:101B400060E070E080E090E0A4C085E0880E911C29
:101B5000D60114960D911C9115978016910678F474
:101B60006D907C906AE370E0C301880D991D0E941E
:101B7000FD2F009721F07C01E618F70803C0EE2442
:101B8000EA94FE2C17010F2C000C44085508BFEFF7
:101B90002B163B064B065B0699F28016910680F4E5
:101BA000F601608071806CE270E0C301880D991DC0
:101BB0000E94FD2F009721F08C010619170902C021
:101BC0000FEF1FEFC801012E000CAA0BBB0B8F3FBC
:101BD000FFEF9F07AF07BF07A1F182159305A4058B
:101BE000B5057CF59801A401B601CE0101960E94CD
:101BF0001E18CE0101960E946415962ECE01019604
:101C00000E94201624E0291508F49ACFA8014F5FFE
:101C10005F4F9701B601CE0101960E941E18CE01BA
:101C200001960E9464156B017C01CE0101960E9411
:101C300020161C141D041E041F040CF081CF892DD6
:101C400018C09701A401B601CE0101960E941E188A
:101C5000CE0101960E9464156B017C01CE010196B4
:101C60000E9420161C141D041E041F040CF068CFD3
:101C70008FEFD5011296ED91FC911397309739F0C3
:101C800014962D913C911597B701A6010995B601BF
:101C9000C70126960FB6F894DEBF0FBECDBFDF9109
:101CA000CF911F910F91FF90EF90DF90CF90BF9059
:101CB000AF909F908F907F906F905F904F903F90EC
:101CC0002F9008952F923F924F925F926F927F9242
:101CD0008F929F92AF92BF92CF92DF92EF92FF923C
:101CE0000F931F93CF93DF93EC011B014A0159011E
:101CF000270138016BE871E00E942E160E94060C45
:101D00006B017C010E94060CDC01CB018C199D0942
:101D1000AE09BF0984159505A605B705B8F5D1012B
:101D20008D919C91DC01ED91FC910480F581E02D79
:101D300009951816190634F7D1018D919C91DC0193
:101D4000ED91FC910680F781E02D0995882339F308
:101D5000682FCE010E948915B401CE010E946F1533
:101D60000196A1F4B501CE010E946F15019671F4A0
:101D7000BE01C1010E94720D672B682B692B79F29D
:101D80006BE871E0CE010E94B915C9CFCE01DF9199
:101D9000CF911F910F91FF90EF90DF90CF90BF9068
:101DA000AF909F908F907F906F905F904F903F90FB
:101DB0002F9008954F925F926F927F928F929F9291
:101DC000AF92BF92CF92DF92EF92FF920F931F9349
:101DD000CF93DF93EC017B016A01480159016BE865
:101DE00071E00E942E160E94060C2B013C010E94FD
:101DF000060CDC01CB0184199509A609B7098815E1
:101E00009905AA05BB0588F5F70180819181DC0160
:101E1000ED91FC910480F581E02D099518161906C5
:101E200034F7D7018D919C91DC01ED91FC910680F6
:101E3000F781E02D0995882339F3682FCE010E94A0
:101E40008915B601CE010E946F15019671F4BE018D
:101E5000C7010E94720D672B682B692BA9F26BE8F2
:101E600071E0CE010E94B915CFCFCE01DF91CF91A5
:101E70001F910F91FF90EF90DF90CF90BF90AF90A8
:101E80009F908F907F906F905F904F9008952F92CA
:101E90003F924F925F926F927F928F929F92AF92FA
:101EA000BF92CF92DF92EF92FF920F931F93CF9347
:101EB000DF93CDB7DEB762970FB6F894DEBF0FBEE3
:101EC000CDBF2C013B014A01190158016BE871E0BB
:101ED000CE0101960E942E16B301CE0107960E94F4
:101EE000251697018601AE01495F5F4FB201CE0111
:101EF0000D960E94DA0EBE01635F7F4FCE01019600
:101F00000E94E715CE010D960E942016CE0107967D
:101F10000E942016B301CE0101960E946F15019612
:101F200009F494C0B401CE0101960E946F152C01F2
:101F3000990F66087708B101CE0101960E946F15CE
:101F40009C01092E000CAA0BBB0B4FEF4416540644
:101F50006406740679F08F3F9F4FAF4FBF4F21F15A
:101F6000F40184819581B301A201480F591F611DBD
:101F7000711D07C08F3F9F4FAF4FBF4FA9F040E08B
:101F800050E0BE016F5F7F4FCE0107960E941E1882
:101F9000BE01695F7F4FC5010E94E715CE0107961C
:101FA0000E94201611E059C061E871E0CE01079649
:101FB0000E942E16BE01695F7F4FC5010E946F15FA
:101FC0004C01CE0107960E9420162FEF8216920632
:101FD000A1F0940140E050E0BE016F5F7F4FCE0161
:101FE00007960E941E18BE01695F7F4FC5010E94BF
:101FF000E715CE0107960E94201663E871E0CE0136
:1020000007960E942E16BE01695F7F4FC5010E9490
:102010006F154C01CE0107960E9420164FEF8416D3
:102020009406A1F0940140E050E0BE016F5F7F4F45
:10203000CE0107960E941E18BE01695F7F4FC50141
:102040000E94E715CE0107960E942016BE016F5F21
:102050007F4FC5010E94D01510E0CE0101960E946D
:102060002016812F62960FB6F894DEBF0FBECDBF4B
:10207000DF91CF911F910F91FF90EF90DF90CF9064
:10208000BF90AF909F908F907F906F905F904F9098
:102090003F902F900895CF92DF92EF92FF920F938F
:1020A0001F93CF93DF93CDB7DEB766970FB6F89443
:1020B000DEBF0FBECDBF6C017B016BE871E0CE01CE
:1020C00001962B8B3C8B4D8B5E8B0E942E16B7019D
:1020D000CE0107960E9425162B893C894D895E8981
:1020E00089019A01AE01495F5F4FB601CE010D969D
:1020F0000E94DA0EBE01635F7F4FCE0101960E94FF
:10210000E715CE010D960E942016CE0107960E947B
:102110002016B701CE0101960E946F157C01CE01F9
:1021200001960E94201681E0EF20E09409F480E0FF
:1021300066960FB6F894DEBF0FBECDBFDF91CF918C
:102140001F910F91FF90EF90DF90CF900895CF9265
:10215000DF92EF92FF920F931F93CF93DF9300D004
:1021600000D000D0CDB7DEB78C016BE871E0CE01B6
:1021700001960E942E160E94060C6B017C010E94A3
:10218000060CAB01BC014C195D096E097F094A3090
:1021900051056105710570F5D8018D919C91DC01A7
:1021A000ED91FC910480F581E02D0995892B39F39F
:1021B000F80180819181DC01ED91FC910680F7812D
:1021C000E02D09958823D9F2682FCE0101960E944F
:1021D0008915BE016F5F7F4FC8010E94720D672B8A
:1021E000682B692B41F26BE871E0CE0101960E94E9
:1021F000B915C1CFCE0101960E94201626960FB6C2
:10220000F894DEBF0FBECDBFDF91CF911F910F912C
:10221000FF90EF90DF90CF9008958F929F92AF92B2
:10222000BF92EF92FF920F931F93CF93DF93EC0136
:102230008881882309F494C089859A85892B09F4BB
:102240008FC00E94060C2AE030E040E050E00E947F
:102250003F2D89819A818901081B190B8D819E81EF
:102260000817190708F47EC0B80180E090E00E94CA
:10227000CA344B015C0189859A85BC0180E090E0FD
:102280000E94CA349B01AC01C501B4010E94F32D28
:102290004B015C019B01AC016B857C858D859E8526
:1022A0000E94872D6B877C878D879E8720E030E09A
:1022B00040E85FE3C501B4010E949B2E688587FD5D
:1022C0000FC080E090E0A8ECB2E48B879C87AD87DC
:1022D000BE871A86198670E0CE010E94E20540C0D2
:1022E000EF80F12C862F90E08E199F09BC01990F89
:1022F000880B990B0E94CC34A50194010E942B35C8
:102300004B015C0120E030E0A9010E949B2E20E0FF
:1023100030E040E05FE387FD05C0C501B4010E94E5
:10232000872D04C0C501B4010E94862D0E94652E30
:102330006E0D7F1DCE010E94E20589859A85801B66
:10234000910B9A8789870E94060C2AE030E040E0D2
:1023500050E00E943F2D29833A834B835C8302C067
:1023600080E001C081E0DF91CF911F910F91FF903C
:10237000EF90BF90AF909F908F900895FC01808167
:10238000882329F081E021853285232B09F480E020
:102390000895AF92BF92CF92DF92EF92FF921F9378
:1023A000CF93DF93EC011A8619861B861C861D8647
:1023B0001E868881882309F463C01F81611709F490
:1023C0005FC0A62EB12C4531510568F4B501CE0190
:1023D000DF91CF911F91FF90EF90DF90CF90BF9052
:1023E000AF900C94E2055A8749876887BA0180E06C
:1023F00090E00E94CA346B017C01812F90E08A1921
:102400009B0997FF03C0919581959109BC01990F94
:10241000880B990B0E94CC349B01AC01C701B6011B
:102420000E94F32D6B017C0120E030E0A9010E94A5
:102430009B2E20E030E040E05FE387FD05C0C70150
:10244000B6010E94872D04C0C701B6010E94862DE7
:102450000E94652E6431710518F07E836D8304C07F
:1024600084E190E09E838D830E94060C2AE030E098
:1024700040E050E00E943F2D29833A834B835C83E8
:10248000DF91CF911F91FF90EF90DF90CF90BF90A1
:10249000AF9008958F929F92AF92BF92CF92DF92AA
:1024A000EF92FF92CF93DF93A091B103882311F0B5
:1024B0003A2F01C030E08091B20390E0880F991F5D
:1024C0008F5B9D4FC090B703D090B803E090B903E5
:1024D000F090BA0340E050E0BA01FC01C591D491FC
:1024E00028812A2323130FC04A015B012FEF821A90
:1024F000920AA20AB20A4C155D056E057F0538F4F2
:10250000B501A401EACF342F252FCB0104C030E060
:1025100020E080E090E0632F722FDF91CF91FF9059
:10252000EF90DF90CF90BF90AF909F908F900895E5
:10253000CF93DF93EC0188819981009711F00E947D
:10254000F630198218821D821C821B821A82DF914A
:10255000CF9108950F931F93CF93DF93EC01888160
:102560009981009729F02A813B812617370788F443
:102570008B016F5F7F4F0E94252F009761F0998339
:1025800088831B830A832C813D81232B11F4FC015A
:10259000108281E001C080E0DF91CF911F910F9107
:1025A0000895EF92FF920F931F93CF93DF93EC0167
:1025B0007B018A01BA010E94AA12811104C0CE01D6
:1025C0000E94981207C01D830C83B70188819981EE
:1025D0000E941130CE01DF91CF911F910F91FF909A
:1025E000EF900895909122039111FCCF813208F071
:1025F00080E291E090932203909321032FEF2093A8
:10260000200310921F03280F20931E039093FD02B6
:102610009091FD02906D9093FD029091FC0291309B
:1026200061F41092FC029091FD029093BB00909196
:10263000BC0093FDF8CF95EC01C095EE9093BC00E3
:10264000909122039130E1F390911F03981710F4B9
:1026500080911F03AEEFB2E02AED32E0F9019E2F28
:10266000921B981718F49D919193F9CF1092D9026B
:102670008093D8020895CF92DF92EF92FF920F934A
:102680001F93CF93DF936B017C018A0180916604D5
:102690009091670497FF1FC00E94060CC8E4D4E025
:1026A000E4EEF3E04CEB53E0199211921192DA014F
:1026B0006D937D938D939D93AD019F01225B3F4F61
:1026C000D9011D921C92B3E0E83FFB0769F7109215
:1026D00067041092660480916604909167040A97DB
:1026E0000CF046C0E4EEF3E0C0E0D0E081919191BF
:1026F000892BC9F501151105D9F1FE01EE0FFF1F58
:10270000EE0FFF1FE850FC4FC082D182E282F382BD
:10271000FE01EE0FFF1FEC51FC4F11830083FE0101
:10272000EE0FFF1FE05EFB4F11821082FE01E85B9F
:10273000FB4F81E080830E94060CFE01EE0FFF1F1D
:10274000EE0FFF1FE454FC4F6083718382839383F9
:10275000809166049091670401969093670480933A
:102760006604CE0107C02196CA30D10509F0BECF5C
:102770008FEF9FEFDF91CF911F910F91FF90EF901F
:10278000DF90CF900895CF92DF92EF92FF920F9358
:102790001F93CF93DF93CDB7DEB7C054D1400FB6B0
:1027A000F894DEBF0FBECDBF0E94060C0091B303AC
:1027B0001091B4032091B5033091B6036B017C01F5
:1027C000C01AD10AE20AF30A40EDC41647E0D40663
:1027D000E104F10418F48091BB03BCC06093B3031F
:1027E0007093B4038093B5039093B6031092AE0335
:1027F0001092AD031092AC031092AB031092AA0397
:1028000061E08091AF030E94EA0A6AEF70E080E025
:1028100090E00E94CC0B61E08091AF030E941A0B04
:1028200060E08091AF030E94EA0A64E170E080E01A
:1028300090E00E94CC0BF89461E08091AF030E947D
:10284000EA0A8BE990E00197F1F762E08091AF032B
:102850000E941A0B83E290E00197F1F780E00E945A
:102860004A12672B682B692B21F41092BB037894D2
:102870003EC081E00E944A12672B682B692BA9F3A6
:102880008E010F5F1F4F6E018FEBC81A8EEFD80AB3
:10289000780180E00E944A12F7016083718382838D
:1028A000938381E00E944A12F701648375838683D3
:1028B0009783F8E0EF0EF11CEC14FD0451F77894C7
:1028C00020E030E0F8014081518162817381C48051
:1028D000D580E680F780411551056105710529F025
:1028E000C114D104E104F10421F41092BB0380E08F
:1028F00031C0F90183E0F595E7958A95E1F7E65552
:10290000FC4F8081880F4C155D056E057F0508F42E
:10291000816080832F5F3F4F085F1F4F2832310552
:1029200089F62091AE0330E04091AA038091AB0379
:1029300090E0840F911D4091AC03840F911D409154
:10294000AD03840F911D99272817390771F681E08F
:102950008093BB03C05CDE4F0FB6F894DEBF0FBEA2
:10296000CDBFDF91CF911F910F91FF90EF90DF903E
:10297000CF900895CF92DF92EF92FF92CF930E9473
:10298000C3138823D1F18091B0038B3029F0A8F1D3
:102990008551823048F031C06091AC0370E080E036
:1029A00090E00E94CA342DC0C091AC036C2F6F77A9
:1029B00070E080E090E00E94CC3420E030E040E81D
:1029C00053E40E942B356B017C018091AD03682F8D
:1029D00070E080E090E00E94CC349B01AC01C70124
:1029E000B6010E94872D2DEC3CEC4CEC5DE30E947F
:1029F0002B35C7FF06C0905804C060E070E080EC43
:102A00009FE7CF91FF90EF90DF90CF9008958F9246
:102A10009F92AF92BF92CF92DF92EF92FF928091FE
:102A200053030E94B50B9C01990F440B550B60E0BA
:102A300070E48CE990E00E94612DCA01B9016051F7
:102A40007742810991090E94CC340E94A82E6B0123
:102A50007C0123E73FE745E759E30E942B352BEE46
:102A60003FEF43E95AE30E94872D4B015C0129E5C2
:102A700037E44CEB53E3C701B6010E942B35A701A5
:102A800096010E942B35A70196010E942B359B01D0
:102A9000AC01C501B4010E94872D9B01AC0160E02F
:102AA00070E080E89FE30E94F32D23E333E54CE8D8
:102AB00053E40E94862DFF90EF90DF90CF90BF905F
:102AC000AF909F908F900895FC0180819181009735
:102AD00011F00C94AC3160E070E0CB010895CF931D
:102AE000DF93FC0124813581232B71F0FB01DC0194
:102AF000CD91DC9160817181CE010E9427300097D9
:102B000019F08C1B9D0B02C08FEF9FEFDF91CF91CF
:102B10000895EF92FF920F931F93CF93DF9300D00E
:102B2000CDB7DEB78C0169831A82FC01E480F580A1
:102B3000FFEFEF1AFF0AB7010E94AA12882381F063
:102B4000F8012081318184819581BE016F5F7F4FC3
:102B5000820F931F0E941130F801F582E48281E018
:102B60000F900F90DF91CF911F910F91FF90EF90F9
:102B70000895CF93DF93EC016115710559F0FB01C6
:102B800001900020E9F73197AF01461B570B0E94D7
:102B9000D11202C00E949812CE01DF91CF91089508
:102BA000CF93DF93EC01FB018617970761F06081FB
:102BB00071816115710529F0448155810E94D112FE
:102BC00002C00E949812CE01DF91CF9108950F9319
:102BD0001F93CF93DF938C01EB01FC0180819181E6
:102BE0000097B1F0688179816115710579F04281B2
:102BF00053812C813D814217530740F00E941130D0
:102C00008C819D81F8019583848313C00E94F630E6
:102C100088819981F801918380838A819B81938344
:102C200082838C819D8195838483198218821B8283
:102C30001A821D821C82DF91CF911F910F910895FE
:102C4000FC01808191810C94F630FC01118210828C
:102C500013821282158214820C94D015FC01118209
:102C6000108213821282158214826115710551F04F
:102C7000FB0101900020E9F73197AF01461B570B8C
:102C80000C94D11208952F923F924F925F926F92BF
:102C90007F928F929F92AF92BF92CF92DF92EF92EC
:102CA000FF920F931F93CF93DF93CDB7DEB72E978D
:102CB0000FB6F894DEBF0FBECDBF7C018DB79EB7B7
:102CC0009A87898741155105C1F4D70156964D91D0
:102CD0005C9157974115510581F48091FA029091CA
:102CE000FB02019611F481E090E09093FB02809347
:102CF000FA024091FA025091FB02D701ED91FC914A
:102D000011978281882309F448C0862F8D7F41F076
:102D1000663031F058968D919C9159970197E9F55D
:102D20002115310509F05BC1212C312CB5E02B0EAA
:102D3000311CEDB7FEB7E219F3090FB6F894FEBFE8
:102D40000FBEEDBF8DB79EB7019698878F836183C5
:102D5000542745275427DC0112965C934E93119714
:102D6000902F812F14969C938E93139721153105E4
:102D7000D9F5A12CB12CA214B30408F440C0A214BC
:102D8000B30409F4DCC0F701808191810E94F61A36
:102D9000D70159961C921E92589709851A850FB62D
:102DA000F8941EBF0FBE0DBF09851A850FB6F894A3
:102DB0001EBF0FBE0DBF2E960FB6F894DEBF0FBE1E
:102DC000CDBFDF91CF911F910F91FF90EF90DF90DA
:102DD000CF90BF90AF909F908F907F906F905F90BB
:102DE0004F903F902F9008950115110511F28DB766
:102DF0009EB70696A801B9010E94F42FBACF8101AF
:102E00000A191B090832110510F008E210E0D70179
:102E1000ED91FC91C080D1802801612C712CC601FC
:102E20000E94A7106DE472E0F601808191810E94FA
:102E300080202AE041E050E060E070E0D6018D9112
:102E40009C910E94B9206BE472E0F601808191812F
:102E50000E948020D6018D909C902AE0B301A201AF
:102E6000C4010E94B92069E871E0C4010E94A42055
:102E70006DED71E0CE0101960E942E1628E833E137
:102E800040E050E0BE016F5F7F4FC6010E944B10D3
:102E9000982ECE0101960E942016911003C000E0EA
:102EA00010E041C0C6010E94A7108F8098848A0C50
:102EB0009B1C20E030E0A901241535054605570587
:102EC000D0F4F60180819181D4016D914D01DC0136
:102ED000ED91FC910190F081E02D2B873C874D878F
:102EE0005E8709952B853C854D855E852F5F3F4F1D
:102EF0004F4F5F4FE1CF6FED71E0CE0101960E9421
:102F00002E1620E137E240E050E0BE016F5F7F4FB8
:102F1000C6010E944B10D82ECE0101960E942016A9
:102F2000DD2009F4BCCF60E070E0CB010E94CC0B47
:102F30000115110509F427CFA00EB11E1CCF0E9468
:102F4000060C4B015C01F70182899389A489B5893C
:102F5000AC01BD0125E076956795579547952A9573
:102F6000D1F78C019D01041B150B260B370BB90102
:102F7000A80182859385A485B58595018401081BE8
:102F8000190B2A0B3B0BD901C80135E0B695A79563
:102F9000979587953A95D1F70097A105B10519F452
:102FA0008FEF9FEFDC01840F951FA61FB71FF7015E
:102FB000828B938BA48BB58BC297A105B10548F486
:102FC000808191810E94F61AD70159961C921E9217
:102FD0005897F70182869386A486B586DECE1801BF
:102FE000A5CE0F931F93CF93DF93CDB7DEB7C65611
:102FF000D1090FB6F894DEBF0FBECDBF46E650E054
:103000006AED71E0CE0101960E94D33106E610E030
:103010009E012F5F3F4F40E050E061E18BE095E083
:103020000E944316CA59DF4F0FB6F894DEBF0FBE99
:10303000CDBFDF91CF911F910F910895BF92CF9295
:10304000DF92EF92FF920F931F93CF93DF937C0158
:103050006B018A01E9012417350720F4812F8901CA
:10306000C42FD82F6BE871E0C7010E942E16D6013D
:1030700014968D919C91159708171907D0F48C1709
:103080009D0708F4EC01D601ED91FC911197EC0F2E
:10309000FD1FB08010824D915C91BA01600F711FCD
:1030A000C7010E94B915D601ED91FC91EC0FFD1FEF
:1030B000B082C701DF91CF911F910F91FF90EF90E8
:1030C000DF90CF90BF900895FB0180E090E0A8ECE6
:1030D000B2E48093A4039093A503A093A603B093B6
:1030E000A7031092A3031092A20380917902823069
:1030F00081F018F4813031F00895833089F0843004
:10310000B1F00895808191810E948E318093780280
:103110000895808191810E948E31809313010895DA
:10312000808191810E948E3180930B01089580816E
:1031300091810E948E31809304010895FB0180E00B
:1031400090E0A8ECB2E48093930390939403A0934F
:103150009503B0939603109292031092910380917D
:103160007902823081F018F4813031F00895833093
:1031700089F08430B1F00895808191810E948E3170
:1031800080931A010895808191810E948E318093ED
:1031900012010895808191810E948E3180930A01ED
:1031A0000895808191810E948E318093030108955A
:1031B000FB01808191810E948E3180937E028091FB
:1031C0007902833009F47CC048F5813009F455C098
:1031D000823009F0C1C04091120161E070E08BE0E3
:1031E00095E00E9409084091130162E070E08BE0D5
:1031F00095E00E9409084091110167E070E08BE0C2
:1032000095E00E9409084091100168E070E08BE0B1
:1032100095E00E9409084091760274C0843009F458
:1032200078C0853009F098C040E050E061E070E07F
:103230008BE095E00E94A80740E050E062E070E07B
:103240008BE095E00E94A80740E050E067E070E066
:103250008BE095E00E94A80740E050E068E070E055
:103260008BE095E00E94A80740E050E069E070E044
:103270008BE095E00E94A8076FC040911A0161E0C1
:1032800070E08BE095E00E9409084091780262E0CE
:1032900070E08BE095E00E9409084091190167E019
:1032A00070E08BE095E00E9409084091180168E009
:1032B00070E08BE095E00E9409084091770222C0FF
:1032C00040910A0161E070E08BE095E00E940908FE
:1032D00040910B0162E070E08BE095E00E940908EC
:1032E0004091090167E070E08BE095E00E940908D9
:1032F0004091750268E070E08BE095E00E9409085B
:103300004091740269E070E08BE095E00E9409084A
:1033100023C04091030161E070E08BE095E00E94E2
:1033200009084091040162E070E08BE095E00E94A2
:1033300009084091020167E070E08BE095E00E948F
:1033400009084091010168E070E08BE095E00E947F
:10335000090840910001D6CF60911B0170911C01BA
:1033600080911D0190911E0120E737E140E050E07F
:103370000E94612D60E170E08BE095E00E943807CB
:1033800040917E0260E070E08BE095E00C940908CB
:103390002F923F924F925F926F927F928F929F9265
:1033A000AF92BF92CF92DF92EF92FF920F931F9353
:1033B000CF93DF9300D01F92CDB7DEB72A013B0138
:1033C0008901813009F078C0690123E0C20ED11C67
:1033D00078018BEFE81A8EEFF80AD801AD5FBE4F87
:1033E000BB83AA834801B9EF8B1ABEEF9B0A411435
:1033F00051046104710409F45FC0D801ED91FC919E
:1034000080819181DC01ED91FC910480F581E02DBA
:103410000995892B61F3D801ED91FC91808191810F
:10342000DC01ED91FC910680F781E02D0995382EA5
:103430008983C6010E94590981159140B9F1F701AC
:1034400080819181222423948115F1E09F0709F462
:10345000212CA22CB12CA501BE016F5F7F4F8C0DDA
:103460009D1D0E94F42FD7018D919C911197A80E5C
:10347000B91EBB24AD92BC9221100BC0F801EA0D1D
:10348000FB1D3382BFEFAB1ABB0ABB24F701B1822D
:10349000A082AA81BB812D913C91F701808191810D
:1034A0002817390719F4E1E0D401EC93F1E04F1A41
:1034B0005108610871089BCF0F900F900F90DF911A
:1034C000CF911F910F91FF90EF90DF90CF90BF9021
:1034D000AF909F908F907F906F905F904F903F90B4
:1034E0002F9008954F925F926F927F928F929F924A
:1034F000AF92BF92CF92DF92EF92FF920F931F9302
:10350000CF93DF93EC015B017A010E94060C2B0143
:103510003C016E0123E0C20ED11CC6010E94590974
:103520008E159F0590F40E94060CDC01CB018419D6
:103530009509A609B7098C3D9540A105B10528F468
:10354000888199810E94A710E8CFC6010E9459097D
:103550008C01E816F90608F4870101151105A1F19F
:10356000FE01E95FFE4F1082CD5FDE4F68817981F9
:1035700080E091E0861B970B78018017910708F493
:103580007C016C0D7D1DA701C5010E94F42F2881CF
:1035900039812E0D3F1D332739832883E016F1062C
:1035A00098F448018E189F08B601620F731FA4019A
:1035B000C5018E0D9F1D0E94F42F88819981880E70
:1035C000991E992499828882C801DF91CF911F9119
:1035D0000F91FF90EF90DF90CF90BF90AF909F90B2
:1035E0008F907F906F905F904F900895CF92DF9271
:1035F000EF92FF920F931F93CF93DF93CDB7DEB778
:1036000068970FB6F894DEBF0FBECDBFFC011282E3
:10361000ED5FFE4F11821082329611821082329637
:103620001082FC01C080D1806BE871E0CE0143962E
:103630000E942E16C6010E94A71069E572E0F601ED
:10364000808191810E94802061E0F60180819181DA
:103650000E94DC1D67EE71E0CE0107960E942E16D7
:1036600065E871E0CE0101960E942E1618E8E12E61
:1036700013E1F12E00E010E09E01295F3F4FAE0103
:103680004F5F5F4FB601CE010D960E94620EBE01E4
:10369000635F7F4FCE0143960E94E715CE010D96E2
:1036A0000E942016CE0101960E942016CE01079698
:1036B0000E94201665E871E0CE0107960E942E1642
:1036C000BE01695F7F4FCE0143960E946F15019640
:1036D00051F467EE71E0CE0101960E942E16CE01E4
:1036E00001960E942016CE0107960E942016CE0158
:1036F00043960E94201668960FB6F894DEBF0FBE60
:10370000CDBFDF91CF911F910F91FF90EF90DF9090
:10371000CF900895EF92FF920F931F93CF93DF9373
:1037200000D000D000D0CDB7DEB7FC01E85FFE4F7F
:103730006081718161157105F9F03296E080F18048
:10374000E114F104C9F08C01CE0101960E942E16FD
:10375000970140E050E0BE016F5F7F4FF80180812C
:1037600091810E94A11EF8018283CE0101960E94E0
:103770002016F801828101C080E026960FB6F894E9
:10378000DEBF0FBECDBFDF91CF911F910F91FF9094
:10379000EF9008950F931F93CF93DF93EC01FB01FC
:1037A00001900020E9F78F01061B170B8A819B818E
:1037B000A801480F591F2C813D812417350768F057
:1037C00028813981A801820F931F0E94F42F4A811A
:1037D0005B81400F511F5B834A83DF91CF911F9123
:1037E0000F910895CF92DF92EF92FF920F931F9364
:1037F000CF93DF93CDB7DEB7C658D1090FB6F89493
:10380000DEBF0FBECDBF0E9407156B017C010E9479
:10381000BA1420E030E04CE052E4C701B6010E9447
:103820009B2E1816CCF5CE010196CF57DF4F99830A
:103830008883C158D040CD57DF4F19821882C358B2
:10384000D04080E890E0CB57DF4F99838883C558FC
:10385000D04063EF71E0CE018F579F4F0E94CA1B8B
:103860006AE072E0CE018F579F4F0E94CA1BCD576E
:10387000DF4F08811981C358D04001501109CF573B
:10388000DF4F28813981C158D04040E050E06DE0E1
:103890008BE095E00E94431620E030E048EA51E4D6
:1038A000C701B6010E94C53487FF39C0CE01019619
:1038B000CF57DF4F99838883C158D040CD57DF4F12
:1038C00019821882C358D04080E890E0CB57DF4F70
:1038D00099838883C558D04063EF71E0CE018F573C
:1038E0009F4F0E94CA1B60E372E0CE018F579F4F2B
:1038F0000E94CA1BCD57DF4F08811981C358D040A1
:1039000001501109CF57DF4F28813981C158D0406C
:1039100040E050E06DE08BE095E00E944316CA570E
:10392000DF4F0FB6F894DEBF0FBECDBFDF91CF9152
:103930001F910F91FF90EF90DF90CF9008950F931C
:103940001F93CF93DF93CDB7DEB762970FB6F8948E
:10395000DEBF0FBECDBF8C01CB014AE0BE016F5F61
:103960007F4F0E94DC31BE016F5F7F4FC8010E9414
:10397000CA1B62960FB6F894DEBF0FBECDBFDF91B3
:10398000CF911F910F9108954F925F926F927F9206
:10399000BF92CF92DF92EF92FF920F931F93CF933C
:1039A000DF93CDB7DEB7CD5AD1090FB6F894DEBF9D
:1039B0000FBECDBFCE0188559F4F0E945C0C0E9468
:1039C00007152B013C010E94BA140E946C2EB62EE2
:1039D0000E94C3138823B1F18091B0038B3041F171
:1039E00088F18551823070F56091AA0370E080E023
:1039F00090E00E94CA3420E030E040E853E40E94A6
:103A00002B356B017C018091AB03682F70E080E067
:103A100090E00E94CC349B01AC01C701B6010E942A
:103A2000872D2DEC3CEC4CEC5DE30E942B3507C060
:103A30006091AA0370E080E090E00E94CA346B01BC
:103A40007C0106C0C12CD12C80ECE82E8FE7F82E2B
:103A5000CE010196CE55DF4F99838883C25AD0405C
:103A6000CC55DF4F19821882C45AD04080E890E0CC
:103A7000CA55DF4F99838883C65AD04064ED71E000
:103A8000CE018E559F4F0E94CA1B64E070E0CE01AC
:103A90008E559F4F0E949F1C8E010F571F4F23E092
:103AA00045E0C301B2010E944130B801CE018E55FC
:103AB0009F4F0E94CA1BCC55DF4F08811981C45A01
:103AC000D04001501109CE55DF4F28813981C25AAB
:103AD000D04040E050E064E18BE095E00E94431666
:103AE0004B2D65E070E08BE095E00E940908C7016E
:103AF000B6010E946C2E462F66E070E08BE095E0E8
:103B00000E940908C555DF4F4881CB5AD0406EE06E
:103B100070E08BE095E00E940908C455DF4F4881B2
:103B2000CC5AD0406FE070E08BE095E00E9409082D
:103B3000C455DF4F4881CC5AD040C555DF4F28814E
:103B4000CB5AD04030E0A0E1BEE00E9436365CE3C4
:103B5000459F900111248901330F220B330BDC01A7
:103B6000CB01800F911FA21FB31F80937A02909305
:103B70007B02A0937C02B0937D02C355DF4F0FB64A
:103B8000F894DEBF0FBECDBFDF91CF911F910F9193
:103B9000FF90EF90DF90CF90BF907F906F905F90FD
:103BA0004F900895DC01ED91FC9111970190002058
:103BB000E9F7ED93FC9308950F931F93CF93DF9351
:103BC000EC01462F50E060E070E02AE00E94B9204E
:103BD0008C0169E871E0CE010E94A420800F911F42
:103BE000DF91CF911F910F910895CF92DF92EF92C5
:103BF000FF920F931F93CF93DF93CDB7DEB7A497B8
:103C00000FB6F894DEBF0FBECDBF6C018B01BA01B9
:103C1000CE0149960E942516B801CE014F960E940A
:103C200025166BE871E0CE0143960E942E16C60160
:103C30000E94A71063E872E0F601808191810E94E2
:103C40008020BE01615E7F4FF601808191810E94DC
:103C500072206FE772E0F601808191810E948020DE
:103C6000BE01675E7F4FF601808191810E947220C4
:103C70006DE772E0F601808191810E94022165E585
:103C800072E0CE0107960E942E1665E871E0CE0123
:103C900001960E942E1610E1E12E17E2F12E00E0AF
:103CA00010E09E01295F3F4FAE014F5F5F4FB601AD
:103CB000CE010D960E94620EBE01635F7F4FCE0162
:103CC00043960E94E715CE010D960E942016CE0164
:103CD00001960E942016CE0107960E94201665E8E4
:103CE00071E0CE0101960E942E16BE016F5F7F4FDC
:103CF000CE0143960E946F156C01CE0101960E9481
:103D00002016CE0143960E942016CE014F960E94A7
:103D10002016CE0149960E94201681E0CD20C09445
:103D200009F480E0A4960FB6F894DEBF0FBECDBFB5
:103D3000DF91CF911F910F91FF90EF90DF90CF9087
:103D400008958F929F92AF92BF92CF92DF92EF929F
:103D5000FF920F931F93CF93DF93CDB7DEB7AA9750
:103D60000FB6F894DEBF0FBECDBF8C0149015A01DA
:103D7000CE014F960E9425166AE572E0CE01859627
:103D80000E942E166BE871E0CE0149960E942E1615
:103D9000C8010E94A71060E772E0D8018D919C9144
:103DA0000E9480202AE041E050E060E070E0F801ED
:103DB000808191810E94B9206DE672E0D8018D91D9
:103DC0009C910E948020BE016B5D7F4FF801808135
:103DD00091810E94722069E672E0D8018D919C91D8
:103DE0000E948020BE01615E7F4FF8018081918139
:103DF0000E94722066E672E0D8018D919C910E942B
:103E00008020F801E080F1802AE0B501A401C7011B
:103E10000E94B92069E871E0C7010E94A4206EE504
:103E200072E0CE010D960E942E166EE672E0CE0173
:103E300007960E942E1665E871E0CE0101960E9459
:103E40002E166BE871E0CE0143960E942E160E945A
:103E5000060C6B017C010E94060CDC01CB018C1965
:103E60009D09AE09BF0980319742A105B105A0F1B6
:103E7000BE016D5E7F4FCE0149960E94E715CE01CF
:103E800043960E942016CE0101960E942016CE0174
:103E900007960E942016CE010D960E94201665E816
:103EA00071E0CE0107960E942E16BE01695F7F4F1A
:103EB000CE0149960E946F15019609F065C04EC06B
:103EC000D8018D919C91DC01ED91FC910680F781E8
:103ED000E02D099581110EC0D8018D919C91DC01D6
:103EE000ED91FC910480F581E02D099518161906D5
:103EF0003CF3B1CF682FCE0143960E948915BE01D5
:103F00006F5F7F4FCE0143960E946F15019609F0B7
:103F1000AFCFBE01695F7F4FCE0143960E946F1500
:103F2000019609F0A5CFBE01635F7F4FCE01439696
:103F30000E946F15019609F09BCFBE016D5E7F4F09
:103F4000C8010E94720D672B682B692B29F26BE860
:103F500071E0CE0143960E94B915BECF6EE572E0C6
:103F6000CE0101960E942E16BE016F5F7F4FCE01DB
:103F700049960E946F1511E0019609F410E0CE01F8
:103F800001960E94201601C011E0CE0107960E9402
:103F90002016CE0149960E942016CE0185960E94D9
:103FA0002016CE014F960E942016812FAA960FB69A
:103FB000F894DEBF0FBECDBFDF91CF911F910F915F
:103FC000FF90EF90DF90CF90BF90AF909F908F9039
:103FD0000895382F2091460390914503213208F02F
:103FE00049C0809122038111FCCF42E0409322031B
:103FF000309321033FEF3093200310921F0320934F
:104000001E03A5E2B3E04EEF52E0FA013E2F341B4F
:10401000321718F43D913193F9CF1092FD0220919F
:10402000FD02990F922B9093FD029091FC0291302A
:1040300061F41092FC029091FD029093BB0090916C
:10404000BC0093FDF8CF95EC01C095EE9093BC00B9
:10405000909122039230E1F3909120039F3F79F0F9
:1040600080912003803241F080912003803331F031
:1040700084E005C081E003C082E001C083E01092CB
:104080002403109246031092230308950895CF92BB
:10409000DF92EF92FF920F931F93CF93DF936C0108
:1040A0007A018B01C0E0D0E0CE15DF0589F0D801A0
:1040B0006D918D01D601ED91FC910190F081E02D83
:1040C000C6010995892B11F47E0102C02196ECCF1F
:1040D000C701DF91CF911F910F91FF90EF90DF907B
:1040E000CF900895DC01ED91FC91DB0114964D9188
:1040F0005C9115976D917C910280F381E02D09947C
:10410000EF92FF920F931F93CF93DF938C017B016C
:10411000C0E0D0E0F701EC0FFD1F6491662361F071
:10412000D801ED91FC910190F081E02DC801099535
:10413000892B11F02196EECFCE01DF91CF911F9107
:104140000F91FF90EF9008956115710579F0FB01D3
:1041500001900020E9F73197AF01461B570BDC01B6
:10416000ED91FC910280F381E02D099480E090E0D4
:1041700008954F925F926F927F92EF92FF920F930A
:104180001F93CF93DF93CDB7DEB7A1970FB6F89407
:10419000DEBF0FBECDBF7C01FA01CB0119A22230D8
:1041A00008F42AE08E010F5D1F4F422E512C612C26
:1041B000712CBF01A30192010E943F2DF901CA0198
:1041C000015011096A3014F4605D01C0695CD801C6
:1041D0006C93232B242B252B61F7B801C7010E9478
:1041E000A420A1960FB6F894DEBF0FBECDBFDF911D
:1041F000CF911F910F91FF90EF907F906F905F9004
:104200004F9008950F931F93CF93DF93EC010E947B
:1042100080208C0169E871E0CE010E94A420800F0B
:10422000911FDF91CF911F910F910895CF93DF934D
:10423000CDB7DEB7AA970FB6F894DEBF0FBECDBFDD
:10424000789484B5826084BD84B5816084BD85B571
:10425000826085BD85B5816085BD80916E0081607D
:1042600080936E0010928100809181008260809323
:104270008100809181008160809381008091800025
:104280008160809380008091B10084608093B10050
:104290008091B00081608093B00080917A0084604A
:1042A00080937A0080917A00826080937A00809176
:1042B0007A00816080937A0080917A008068809390
:1042C0007A001092C10062E08091AF030E941A0B45
:1042D00080E398EFAFEFBFEF8093B3039093B40305
:1042E000A093B503B093B603E0917804F0917904FC
:1042F00082E08083E0917404F09175041082E09173
:104300007604F091770480E1808310928004E0913C
:104310007C04F0917D0486E08083E0917A04F09142
:104320007B04808180618083E0917A04F0917B043A
:10433000808188608083E0917A04F0917B048081A1
:1043400080688083E0917A04F0917B0480818F7D86
:1043500080836AE070E080E090E00E94CC0B44EC47
:104360005CE168E273E280E090E00E943B1342EF80
:104370005BE160EC77E289E090E00E943B138EE421
:1043800091E090930E0580930D0585E095E0909364
:10439000260580932505E0910B05F0910C0591838E
:1043A000808388EC99E19093080580930705F0934A
:1043B0000A05E0930905DF01A85FBE4F8FE691E093
:1043C0008D939C93E65FFE4F8AEF90E2918380830A
:1043D00064EF71E080E090E00E94CC0B0091250535
:1043E00010912605C8010E94A71069E171E0D8016B
:1043F0008D919C910E94802060E0F80180819181E4
:104400000E94DC1D65E871E09E012F5F3F4F59015E
:10441000C9010E942E1628EE33E040E050E0B501BD
:10442000C8010E944B10782EC5010E9420167720EB
:1044300009F4CBC180902505909026056BE871E0CA
:10444000CE0183960E942E16C4010E94A71068EB2D
:104450007BE080E090E00E94CC0B68EE70E0D4013D
:104460008D919C910E94022161E871E0C5010E943A
:104470002E1668E871E0CE0141960E942E1665E87E
:1044800071E0CE0147960E942E1670E1C72E77E2AA
:10449000D72EE12CF12C8E010D5D1F4F9501AE0141
:1044A0004F5E5F4FBE01695E7F4FC4010E94470FA0
:1044B000CE0147960E942016CE0141960E942016FA
:1044C000C5010E942016C0902505D09026056BE8F6
:1044D00071E0CE014D960E942E16C6010E94A710D3
:1044E0006FEE70E0F601808191810E94802061E092
:1044F000D6018D919C910E94DC1D6CE871E0CE018B
:1045000041960E942E1665E871E0C5010E942E16A4
:1045100018EEE12E13E0F12E00E010E09E012F5E78
:104520003F4FA501B601CE0147960E94620EBE0123
:10453000695E7F4FCE014D960E94E715CE014796EA
:104540000E942016C5010E942016CE0141960E94AD
:10455000201665E871E0C5010E942E16C5010E9473
:104560002016CE014D960E94201680902505909031
:1045700026056BE871E0CE014D960E942E16C4010F
:104580000E94A71065E071E0F401808191810E9492
:10459000022161E871E0CE0147960E942E166CE977
:1045A00071E0CE0141960E942E1665E871E0C501CA
:1045B0000E942E16F8EECF2EF3E0DF2EE12CF12C28
:1045C0008E01035E1F4F9E01295E3F4FAE014F5E7D
:1045D0005F4FB501C4010E94470F182FC5010E940B
:1045E0002016CE0141960E942016CE0147960E94C9
:1045F0002016112331F0CE014D960E946415662ECF
:1046000001C0712CCE014D960E942016772009F42E
:10461000D8C0F1E06F1609F46EC06BE871E0CE010E
:104620004D960E942E16C4010E94A7106AEF70E0FA
:10463000D4018D919C910E94802061E0F4018081E1
:1046400091810E94DC1D6EE971E0CE0141960E94CD
:104650002E1665E871E0CE0147960E942E1618EEE0
:10466000E12E13E0F12E00E010E09E012F5E3F4F9F
:10467000AE01495E5F4FB401C5010E94620EB501F3
:10468000CE014D960E94E715C5010E942016CE016D
:1046900047960E942016CE0141960E94201665E89A
:1046A00071E0C5010E942E16B501CE014D960E9403
:1046B0006F150196B1F46EE971E0CE0141960E944A
:1046C0002E16BE016F5E7F4FCE014D960E946F1574
:1046D00077247394019609F4712CCE0141960E94BF
:1046E0002016C5010E942016CE014D960E9420166C
:1046F000772009F466C069EB71E0C5010E942E16AF
:1047000066EC71E0CE0141960E942E16A501BE0115
:104710006F5E7F4F80912505909126050E94F51DC3
:10472000182FCE0141960E942016C5010E94201626
:10473000112309F446C080902505909026056BE86A
:1047400071E0CE014D960E942E16C4010E94A71062
:1047500060E171E0D4018D919C910E94022161E899
:1047600071E0C5010E942E1668E871E0CE01419605
:104770000E942E1665E871E0CE0147960E942E1623
:1047800058EEC52E53E0D52EE12CF12C8E01035EA0
:104790001F4F9501AE014F5E5F4FBE01695E7F4FB7
:1047A000C4010E94470FCE0147960E942016CE01F9
:1047B00041960E942016C5010E942016C8010E9441
:1047C0002016CE0183960E9420161092D9021092D4
:1047D000D80210922403109246031092220311E093
:1047E000109321031092FC0261E082E10E94EA0A28
:1047F00061E083E10E94EA0A8091B9008E7F809394
:10480000B9008091B9008D7F8093B90088E48093CE
:10481000B80085E48093BC00CE0147960E945C0CF2
:1048200010937E0260E08BE00E94EA0A60E08AE07A
:104830000E94EA0A60E085E00E94EA0A60E086E001
:104840000E94EA0A60E089E00E94EA0A10932303CA
:1048500088E680934503109224031092460360E09B
:1048600087E493E00E94930281E00E94E91F81E0C7
:1048700090E00E94F21287E493E00E94470287FFD3
:104880005EC04BE050E066E271E0C5010E94D331AA
:10489000CE010A960E94650D898BE9818E2FEE0F5D
:1048A000990BAA0BBB0BFC01E154F109E331F105B3
:1048B00040F5EC5CFF4F0C94802D8A81813639F0F5
:1048C0008B818E3611F087E01BC086E019C081E035
:1048D00017C082E015C08B81823711F088E010C0CC
:1048E00084E00EC08B81823711F085E009C083E03F
:1048F00007C089E005C08AE003C08BE001C08CE0FE
:104900008A8BCE0105960E94650D8B8B48E050E0A6
:104910006DE171E0C5010E94D331C5010E94650DB2
:104920008C8BCE0104960E94650D8D8BCE0107966F
:104930000E94650D8E8BCE0141960E94E60C89E99E
:1049400093E00E940D1185E593E00E940D1187E729
:1049500093E00E940D1186E693E00E940D1188E815
:1049600093E00E940D1160E070E0CB010E94CC0B3F
:104970008091230590912405029709F42DC100919F
:104980000B0510910C05F8015280552009F447C021
:10499000808191810E94A710C80103960E94590945
:1049A00018161906E4F545E050E0BE01695E7F4F38
:1049B00080910B0590910C050E94721A009709F4E2
:1049C00017C7059709F017C7888D998D98278927EC
:1049D0009827998F888FCA8CDB8CDC24CD24DC242B
:1049E000DB8ECA8E892B09F406C78F898111B5C465
:1049F0000E94060C609311057093120580931305B5
:104A00009093140520912305309124054A8D5B8DE8
:104A1000232B09F47FC44530510509F4ECC60E94EC
:104A2000060C6B017C018091230590912405813057
:104A3000910509F06DC0511005C010922405109227
:104A400023055DC08091110590911205A091130579
:104A5000B0911405A7019601281B390B4A0B5B0B7B
:104A6000DA01C90181383EE39307A105B10558F089
:104A700080910B0590910C050E94F61A1092240566
:104A800010922305A9C081319742A105B105B0F468
:104A90008091150590911605A0911705B091180504
:104AA000A7019601281B390B4A0B5B0BDA01C901E0
:104AB00081319742A105B10508F48EC08091190596
:104AC00090911A05A0911B05B0911C05A7019601B4
:104AD000281B390B4A0B5B0BDA01C901813D97405A
:104AE000A105B10508F478C000E010E020E030E056
:104AF00040E050E066E08BE095E00E944316C092F3
:104B00001905D0921A05E0921B05F0921C0564C0AD
:104B1000892B09F061C08091190590911A05A09127
:104B20001B05B0911C05552069F0C81AD90AEA0A7C
:104B3000FB0A41EDC41647E0D406E104F10408F491
:104B40004BC096CFA7019601281B390B4A0B5B0B74
:104B5000DA01C90189389341A105B105E8F18091D5
:104B60000B0590910C050E94F61A80910B0590910F
:104B70000C050E948A1B882311F288EE93E0A0E0C6
:104B8000B0E080931D0590931E05A0931F05B09380
:104B9000200520910D0530910E05F90101900020AE
:104BA000E9F731978F01021B130B41E050E062E0FF
:104BB0008BE095E00E9443168091150590911605B3
:104BC000A0911705B09118058093190590931A05C7
:104BD000A0931B05B0931C050E94060C6B017C0181
:104BE000ACEBB3E0BAA7A9A794E3292E94E0392E41
:104BF000F101812C912C178E168ECF0180559109D1
:104C0000DC018D919C91892B09F448C0A9A5BAA516
:104C10004D915D916D917C911397DC960D911D9155
:104C20002D913C91DF9726013701441A550A660AF7
:104C3000770A401651066206730680F1400F511F35
:104C4000621F731F4D935D936D937C931397C40103
:104C5000885B9B4FDC018C91882301F1CF01449745
:104C6000DC018D919C91009729F421E030E0378F91
:104C7000268F14C020813181281739077CF441E048
:104C800050E0578F468F2F5F3F4F31832083281787
:104C9000390724F082E090E0978F868F9FEF891A82
:104CA000990AA9A5BAA51496BAA7A9A73296BAE0F7
:104CB0008B16910409F09FCF84EEE82E83E0F82E46
:104CC00008EF13E0C12CD12CF101868D978D813036
:104CD000910519F0029731F02BC0D701ED91FC91AD
:104CE000099526C0D701ED91FC9109958091660444
:104CF000909167040097E1F0F70120813181232B27
:104D0000B9F011821082F601E85BFB4F1082D101ED
:104D10005F961C921E925E97F80110821182128299
:104D200013821D921C9201979093670480936604EE
:104D3000FFEFCF1ADF0A22E0E20EF11C0C5F1F4FDB
:104D400032E0230E311C4AE0C416D10409F0BCCF76
:104D500080917E02813009F04EC210927F02409114
:104D60007A0250917B0260917C0270917D020091E9
:104D70002301109124012091250130912601401733
:104D80005107620773070CF460C000911F01109176
:104D90002001209121013091220140175107620723
:104DA00073070CF052C08093790289E993E00E9466
:104DB000BE1181110AC040911B0150911C016091EC
:104DC000780289E993E00E94C91188E893E00E9483
:104DD000BE1181110AC040911B0150911C016091CC
:104DE0001A0188E893E00E94C91187E793E00E94C6
:104DF000BE1181110AC040911B0150911C016091AC
:104E0000190187E793E00E94C91186E693E00E94AA
:104E1000BE1181110AC040911B0150911C0160918B
:104E2000180186E693E00E94C91185E593E00E948F
:104E3000BE1181110AC040911B0150911C0160916B
:104E4000770285E593E00E94C91180917A029091E2
:104E50007B02A0917C02B0917D0240911F01509194
:104E60002001609121017091220184179507A60706
:104E7000B7070CF461C04091140150911501609185
:104E800016017091170184179507A607B7070CF054
:104E900053C082E08093790289E993E00E94BE11B9
:104EA00081110AC040911B0150911C0160911301B6
:104EB00089E993E00E94C91188E893E00E94BE113D
:104EC00081110AC040911B0150911C016091120197
:104ED00088E893E00E94C91187E793E00E94BE1121
:104EE00081110AC040911B0150911C016091110178
:104EF00087E793E00E94C91186E693E00E94BE1105
:104F000081110AC040911B0150911C016091100158
:104F100086E693E00E94C91185E593E00E94BE11E8
:104F200081110AC040911B0150911C0160917602D1
:104F300085E593E00E94C91180917A0290917B02ED
:104F4000A0917C02B0917D02409114015091150115
:104F5000609116017091170184179507A607B7078E
:104F60000CF461C040910C0150910D0160910E0153
:104F700070910F0184179507A607B7070CF053C06F
:104F800083E08093790289E993E00E94BE11811148
:104F90000AC040911B0150911C0160910B0189E9ED
:104FA00093E00E94C91188E893E00E94BE1181112C
:104FB0000AC040911B0150911C0160910A0188E8D0
:104FC00093E00E94C91187E793E00E94BE1181110E
:104FD0000AC040911B0150911C016091090187E7B3
:104FE00093E00E94C91186E693E00E94BE118111F0
:104FF0000AC040911B0150911C016091750286E628
:1050000093E00E94C91185E593E00E94BE118111D1
:105010000AC040911B0150911C016091740285E50A
:1050200093E00E94C91180917A0290917B02A09135
:105030007C02B0917D0240910C0150910D01609174
:105040000E0170910F0184179507A607B7070CF49E
:1050500061C0409105015091060160910701709176
:10506000080184179507A607B7070CF053C084E022
:105070008093790289E993E00E94BE1181110AC0F0
:1050800040911B0150911C016091040189E993E05A
:105090000E94C91188E893E00E94BE1181110AC0E4
:1050A00040911B0150911C016091030188E893E03D
:1050B0000E94C91187E793E00E94BE1181110AC0C6
:1050C00040911B0150911C016091020187E793E020
:1050D0000E94C91186E693E00E94BE1181110AC0A8
:1050E00040911B0150911C016091010186E693E003
:1050F0000E94C91185E593E00E94BE1181110AC08A
:1051000040911B0150911C016091000185E593E0E5
:105110000E94C91180917A0290917B02A0917C0239
:10512000B0917D0240910501509106016091070107
:105130007091080184179507A607B70774F440918A
:10514000230150912401609125017091260184175B
:105150009507A607B7070CF04EC085E0809379024B
:1051600089E993E00E94BE11811109C040911B01A1
:1051700050911C0160E089E993E00E94C91188E820
:1051800093E00E94BE11811109C040911B01509112
:105190001C0160E088E893E00E94C91187E793E072
:1051A0000E94BE11811109C040911B0150911C0148
:1051B00060E087E793E00E94C91186E693E00E94D1
:1051C000BE11811109C040911B0150911C0160E08A
:1051D00086E693E00E94C91185E593E00E94BE1126
:1051E000811109C040911B0150911C0160E085E5CF
:1051F00093E00E94C91180917E02811188C0809144
:105200007F02811143C080E090E0A8ECB2E480937B
:10521000A4039093A503A093A603B093A7031092B1
:10522000A3031092A2038093930390939403A093FB
:105230009503B0939603109292031092910380937A
:10524000820390938303A0938403B0938503109209
:105250008103109280038093710390937203A09353
:105260007303B09374031092700310926F038093D2
:10527000600390936103A0936203B0936303109261
:105280005F0310925E0381E080937F0289E993E0DF
:105290000E94BE11811107C040ED57E060E089E92E
:1052A00093E00E94C91188E893E00E94BE11811129
:1052B00007C040ED57E060E088E893E00E94C91124
:1052C00087E793E00E94BE11811107C040ED57E0CF
:1052D00060E087E793E00E94C91186E693E00E94B0
:1052E000BE11811107C040ED57E060E086E693E013
:1052F0000E94C91185E593E00E94BE11811107C08B
:1053000040ED57E060E085E593E00E94C9110E94FE
:10531000380A15CB288D398D2130310509F07BCB2A
:105320004430510521F0483C510509F064C26093B6
:10533000190570931A0580931B0590931C0581E055
:1053400090E090932405809323050E94F11760E07C
:1053500070E0CB010E94CC0B4BC280910B05909169
:105360000C05F1E0CF16DF0618F00E948A1B40C240
:105370008DB69EB696012F5F3F4F4DB75EB7421B6D
:10538000530B0FB6F8945EBF0FBE4DBFADB7BEB79F
:1053900011967D01A601BD010E94721AC816D90698
:1053A00009F01DC2EA8DFB8DEE0DFF1D10820E94DB
:1053B000060C60931105709312058093130590936A
:1053C00014058F89843109F494C0E0F4863021F10A
:1053D0008F3009F48EC0823009F0FAC181E090E08C
:1053E0009093240580932305488D598D08EC10E097
:1053F00020E030E060E08BE095E00E9443160E94E0
:10540000F117EFC1823309F4ECC1873309F4E9C124
:10541000893209F0DDC10CC0488D598D08EC10E0CF
:1054200020E030E060E08BE095E00E944316D9C1B7
:1054300080910F0590911005892B41F480E290E056
:105440000E9461309093100580930F05CA8CDB8C0D
:10545000FA82E982CE0CDF1CEC14FD0408F0BFC117
:1054600040E250E0B70180910F05909110050E9435
:105470001830C5010E94D21DFC01808191818C15DC
:105480009D0530F489819A810E94AC318B0102C064
:105490000AEF10E280910B0590910C050E94F61A1C
:1054A00080910B0590910C05FC01E85FFE4F209167
:1054B0000F053091100531832083329611830083CC
:1054C0008091110590911205A0911305B0911405DA
:1054D00088589341A109B1098093190590931A0541
:1054E000A0931B05B0931C05109224051092230570
:1054F00078C1888D998D90932205809321056A8CBF
:105500007B8CFE8EED8E6701C60CD71CEC14FD045F
:1055100008F059C1D7012D903C90CE014D960E94C4
:10552000D21DFC01808191818C159D0508F04BC135
:105530008D8D9E8DDC012C91213449F401960E94C1
:105540008E31863091053CF41EE0180F05C00E9494
:105550008E31182F01C01FEFB6E72B16B2E73B06BE
:1055600009F4E4C098F4F1E62F16F2E73F0609F4D7
:105570009FC024E6221622E7320609F446C030E72F
:1055800023163DE6330609F011C128C044E624166F
:1055900047E7340609F471C056E7251657E7350684
:1055A00009F4DCC081E6281687E7380609F0FEC05A
:1055B000A5C0CE014D960E94D21DED8CFE8C68EAEE
:1055C00071E0C7010E940830892B71F460E0812FDF
:1055D0000E941A0BCE014D960E94D21D8D8D9E8D7C
:1055E0008C159D0530F3EFC06BEA71E0C7010E9496
:1055F0000830892B09F410C16FEA71E0C7010E94DD
:105600000830892B09F408C1FDC0BA8AA98A1C8A0E
:105610001B8AA0E1B0E0BE8BAD8B63EB71E0CE01E5
:1056200041960E94CA1B012F10E0B801CE0141969D
:105630000E949F1CF801EE54FE4F8491F801EE5534
:10564000FD4FF490F801E257FD4F0491002391F0D3
:1056500081110E94C10AE02FF0E0EE0FFF1FEF5B07
:10566000FD4FA591B491EC91FE2261E070E0C1F58F
:1056700060E036C060E070E033C0CE014D960E941D
:10568000D21DFC01808191818C159D0508F09BC085
:1056900061E0812F0E941A0B8D8D9E8D0E948E31AC
:1056A00061E0892B09F460E0812F0E94EA0A8BC037
:1056B000BA8AA98A1C8A1B8A20E130E03E8B2D8B96
:1056C00066EB71E0CE0141960E94CA1B612F70E02B
:1056D000CE0141960E949F1C812F0E94B50BBC01F8
:1056E000CE0141960E949F1C0B891C890150110913
:1056F00029893A8940E050E064E161C0CE014D96CD
:105700000E94D21DDC018D919C918C159D0508F0A5
:105710005AC061E0812F0E941A0B8D8D9E8D0E94D0
:105720008E31BC01812F0E94560B4DC0198310325F
:1057300008F049C0E12FF0E0EE0FFF1FEE58FE4FDA
:10574000259134912115310509F43DC0B2E0243092
:105750003B07C9F1C501F901099535C0CE014D9648
:105760000E94D21D8D8D9E8DE81AF90AE60CF71C59
:105770009A838983FC82EB82FE82ED82198B103240
:1057800010F5E12FF0E0EE0FFF1FEE5CFE4F2591CC
:10579000349121153105B9F0F2E023303F0799F03B
:1057A000B501CE014196F90109950DC04091210541
:1057B0005091220502E010E020E030E060E08BE054
:1057C00095E00E944316109222051092210509C00F
:1057D00080910B0590910C050E948A1B02C080E00D
:1057E00001C0852D0FB6F8949EBE0FBE8DBE01C0C0
:1057F000852D811114C980910B0590910C050E9493
:10580000F61AEAC961ED71E0C7010E940830892BE0
:1058100009F0E0CE62E0DBCE61E0D9CECF93DF933A
:10582000E8E6F4E01382128248EE53E060E070E0B4
:10583000448355836683778382E391E091838083F9
:1058400085EC90E09587848784EC90E09787868745
:1058500080EC90E0918B808B81EC90E0938B828B3D
:1058600082EC90E0958B848B86EC90E0978B868B16
:10587000118E128E138E148EA7E4B3E013961C9231
:105880001E92129714964D935D936D937C93179788
:1058900082E491E08D939C93C7E2D5E0198218824F
:1058A0001A8210922B0610922A0610922D06109240
:1058B0002C0610922E061092300610922F0610928F
:1058C000320610923106ABE0B5E01196DC93CE9330
:1058D00013961C921E92129715961C921E92149764
:1058E00016961D921D921D921C9219971A961D9242
:1058F0001D921D921C921D971E961D921D921D9227
:105900001C92519752961D921D921D921C92559772
:1059100057961C921E92569759961C921E92589713
:105920005B961C921E925A97A5E0B5E01196FC93E7
:10593000EE9313961C921E92129715961C921E922D
:1059400014978FEF9FEF9093670480936604AAEA01
:10595000B3E082E015968C9315978BE016968C93A6
:105960001697E4EAF2E0E4911796EC931797E0E9D2
:10597000F2E0E4911896EC93189740E85EE360E05B
:1059800070E01D964D935D936D937C935097E9E97C
:10599000F3E08083178210861182128213821482B0
:1059A000168215821286118613861486158616862F
:1059B000108A1786E8E8F3E08AE080831782108671
:1059C0001182128213821482168215821286118627
:1059D0001386148615861686108A1786E7E7F3E085
:1059E00085E08083178210861182128213821482CE
:1059F00016821582128611861386148615861686DF
:105A0000108A1786E6E6F3E086E080831782108628
:105A100011821282138214821682158212861186D6
:105A20001386148615861686108A1786E5E5F3E038
:105A300089E0808317821086118212821382148279
:105A4000168215821286118613861486158616868E
:105A5000108A17868EE090E090935403809353034E
:105A6000DF91CF910895991B79E004C0991F961793
:105A700008F0961B881F7A95C9F780950895A1E2D2
:105A80001A2EAA1BBB1BFD010DC0AA1FBB1FEE1FB8
:105A9000FF1FA217B307E407F50720F0A21BB30B03
:105AA000E40BF50B661F771F881F991F1A9469F77F
:105AB00060957095809590959B01AC01BD01CF01DB
:105AC0000895052E97FB1EF400940E94782D57FD33
:105AD00007D00E943F2D07FC03D04EF40C94782D84
