:100000000C94BC010C94E4010C94E4010C942D16A6
:100010000C942D160C942D160C94E4010C94E40110
:100020000C94E4010C94E4010C94E4010C94E401BC
:100030000C94E4010C94E4010C94E4010C94E401AC
:100040000C940B1C0C94E4010C9491190C94560B19
:100050000C94E4010C94E4010C94E4010C94E4018C
:100060000C9437160C94E40108000000BE92244959
:10007000123EABAAAA2ABECDCCCC4C3E00000080DA
:10008000BEABAAAAAA3E00000000BF000000803F4D
:100090000000000000084178D3BB4387D1133D190D
:1000A0000E3CC3BD4282AD2B3E68EC8276BED98F3A
:1000B000E1A93E4C80EFFFBE01C4FF7F3F0000007E
:1000C000000041542B434950434C4F53453D0041A0
:1000D000542B474D520041542B4349504D55583DE8
:1000E0000041542B43574D4F44453D0041542B4351
:1000F000574D4F44453F0041542B4349465352000E
:1001000041544500000000080002010000030407FC
:100110000000000000000000F012F012F012F012D7
:10012000F012F012F012F012F012F012F012F012BF
:10013000F012F012F012F012F012F012F012F012AF
:10014000F012F012F012F012F012F012F012F0129F
:10015000F012F012F012F0120704CD0393036306BD
:10016000EF12EF12EF1259031F03E502550647067F
:100170009E05F704EF12EF12CF02E601F213E4132B
:10018000D613EF12EF12EF12EF12EF12EF12EF127F
:10019000EF12EF12EF12EF12000000002300260012
:1001A000290076657200302E342E3300682D62658A
:1001B000617400313000627566662D696E003235FB
:1001C00036006465760041726475696E6F20556E05
:1001D0006F006370750041546D656761333238504C
:1001E00000636F6E004553503832363600627569D1
:1001F0006C64004A616E2020322032303137203169
:10020000353A35333A30380000000000002400272A
:10021000002A0000000000250028002B002C0041CF
:10022000542B43495053454E443D00222C00222C70
:1002300022002C220041542B434950535441525424
:100240003D002200222C220041542B43574A4150AA
:100250003D22000404040404040404020202020215
:10026000020303030303030102040810204080017A
:10027000020408102001020408102000407A10F344
:100280005A00A0724E18090010A5D4E80000E876C4
:1002900048170000E40B54020000CA9A3B0000001B
:1002A000E1F505000080969800000040420F000034
:1002B00000A08601000000102700000000E80300F5
:1002C0000000006400000000000A000000000001BF
:1002D00000000000002C76D888DC674F0823DFC1BF
:1002E000DFAE59E1B1B796E5E3E453C63AE651997A
:1002F0007696E8E6C28426EB898C9B62ED407C6FA3
:10030000FCEFBC9C9F40F2BAA56FA5F490055A2A59
:10031000F75C936B6CF9676DC11BFCE0E40D47FE65
:10032000F520E6B500D0ED902E030094357705005A
:1003300080841E080000204E0A000000C80C3333E1
:1003400033330F986E12831141EF8D2114893BE6F0
:100350005516CFFEE6DB18D1844B381BF77C1D9079
:100360001DA4BBE424203284725E228100C9F124E2
:10037000ECA1E53D27002C2B11241FBECFEFD8E0C8
:10038000DEBFCDBF12E0A0E0B1E0ECECFAE602C0C7
:1003900005900D92A036B107D9F726E0A0E6B2E0AD
:1003A00001C01D92A532B207E1F711E0CCEBD1E01C
:1003B00004C02197FE010E949F2CCB3BD107C9F7B7
:1003C0000E9481230C9464350C94000080916F028C
:1003D000833009F47CC048F5813009F455C082307F
:1003E00009F0C1C04091130161E070E087EF94E033
:1003F0000E94AE184091140162E070E087EF94E033
:100400000E94AE184091120167E070E087EF94E01F
:100410000E94AE184091110168E070E087EF94E00F
:100420000E94AE1840916C0274C0843009F478C008
:10043000853009F098C040E050E061E070E087EF5F
:1004400094E00E944D1840E050E062E070E087EFD9
:1004500094E00E944D1840E050E067E070E087EFC4
:1004600094E00E944D1840E050E068E070E087EFB3
:1004700094E00E944D1840E050E069E070E087EFA2
:1004800094E00E944D186FC040911B0161E070E044
:1004900087EF94E00E94AE1840916E0262E070E037
:1004A00087EF94E00E94AE1840911A0167E070E077
:1004B00087EF94E00E94AE184091190168E070E067
:1004C00087EF94E00E94AE1840916D0222C04091E7
:1004D0000B0161E070E087EF94E00E94AE1840915C
:1004E0000C0162E070E087EF94E00E94AE1840914A
:1004F0000A0167E070E087EF94E00E94AE18409137
:100500006B0268E070E087EF94E00E94AE184091C3
:100510006A0269E070E087EF94E00E94AE1823C0A1
:100520004091040161E070E087EF94E00E94AE1812
:100530004091050162E070E087EF94E00E94AE1800
:100540004091030167E070E087EF94E00E94AE18ED
:100550004091020168E070E087EF94E00E94AE18DD
:1005600040910101D6CF60911C0170911D018091D5
:100570001E0190911F0120E737E140E050E00E940A
:10058000802C60E170E087EF94E00E94DD174091DD
:10059000740260E070E087EF94E00C94AE18FB0109
:1005A000808191810E94AD3080930001282F30E03E
:1005B000A0E7B7E10E94553560931C0170931D01BF
:1005C00080931E0190931F010895FB0180E090E04D
:1005D000A8ECB2E480934C0390934D03A0934E0398
:1005E000B0934F0310924B0310924A0380916F0215
:1005F000823081F018F4813031F00895833089F031
:100600008430B1F00895808191810E94AD30809353
:100610006D020895808191810E94AD3080936C02BB
:100620000895808191810E94AD3080936A0208957F
:10063000808191810E94AD30809301010895FB017A
:1006400080E090E0A8ECB2E480935D0390935E03B9
:10065000A0935F03B093600310925C0310925B035E
:1006600080916F02823081F018F4813031F008956A
:10067000833089F08430B1F00895808191810E94A7
:10068000AD30809319010895808191810E94AD3031
:10069000809311010895808191810E94AD308093F3
:1006A0006B020895808191810E94AD308093020198
:1006B0000895FB0180E090E0A8ECB2E480936E0323
:1006C00090936F03A0937003B093710310926D0326
:1006D00010926C0380916F02823081F018F48130A7
:1006E00031F00895833089F08430B1F0089580812D
:1006F00091810E94AD3080931A010895808191818B
:100700000E94AD30809312010895808191810E94F2
:10071000AD3080930A010895808191810E94AD30AF
:10072000809303010895FB0180E090E0A8ECB2E41F
:100730008093900390939103A0939203B0939303BB
:1007400010928F0310928E0380916F02823081F09D
:1007500018F4813031F00895833089F08430B1F09D
:100760000895808191810E94AD3080936E0208953A
:10077000808191810E94AD30809314010895808121
:1007800091810E94AD3080930C0108958081918108
:100790000E94AD30809305010895FB0180E090E058
:1007A000A8ECB2E480937F0390938003A09381032D
:1007B000B093820310927E0310927D0380916F02AA
:1007C000823081F018F4813031F00895833089F05F
:1007D0008430B1F00895808191810E94AD30809382
:1007E0001B010895808191810E94AD308093130197
:1007F0000895808191810E94AD3080930B0108950E
:10080000808191810E94AD30809304010895FB01A5
:10081000808191810E94AD308093740280916F023B
:10082000833009F47CC048F5813009F455C082302A
:1008300009F0C1C04091130161E070E087EF94E0DE
:100840000E94AE184091140162E070E087EF94E0DE
:100850000E94AE184091120167E070E087EF94E0CB
:100860000E94AE184091110168E070E087EF94E0BB
:100870000E94AE1840916C0274C0843009F478C0B4
:10088000853009F098C040E050E061E070E087EF0B
:1008900094E00E944D1840E050E062E070E087EF85
:1008A00094E00E944D1840E050E067E070E087EF70
:1008B00094E00E944D1840E050E068E070E087EF5F
:1008C00094E00E944D1840E050E069E070E087EF4E
:1008D00094E00E944D186FC040911B0161E070E0F0
:1008E00087EF94E00E94AE1840916E0262E070E0E3
:1008F00087EF94E00E94AE1840911A0167E070E023
:1009000087EF94E00E94AE184091190168E070E012
:1009100087EF94E00E94AE1840916D0222C0409192
:100920000B0161E070E087EF94E00E94AE18409107
:100930000C0162E070E087EF94E00E94AE184091F5
:100940000A0167E070E087EF94E00E94AE184091E2
:100950006B0268E070E087EF94E00E94AE1840916F
:100960006A0269E070E087EF94E00E94AE1823C04D
:100970004091040161E070E087EF94E00E94AE18BE
:100980004091050162E070E087EF94E00E94AE18AC
:100990004091030167E070E087EF94E00E94AE1899
:1009A0004091020168E070E087EF94E00E94AE1889
:1009B00040910101D6CF60911C0170911D01809181
:1009C0001E0190911F0120E737E140E050E00E94B6
:1009D000802C60E170E087EF94E00E94DD17409189
:1009E000740260E070E087EF94E00C94AE18FB01B5
:1009F000808191810E94AD3080936702813009F03F
:100A00009CC080E090E00E94DB1780931B0181E096
:100A100090E00E94DB178093130182E090E00E9437
:100A2000DB1780930B0183E090E00E94DB1780933B
:100A3000040184E090E00E94DB1780936E0285E061
:100A400090E00E94DB178093140186E090E00E9402
:100A5000DB1780930C0187E090E00E94DB17809306
:100A6000050188E090E00E94DB1780931A0189E07D
:100A700090E00E94DB17809312018AE090E00E94D0
:100A8000DB1780930A018BE090E00E94DB178093D4
:100A900003018CE090E00E94DB17809319018DE048
:100AA00090E00E94DB17809311018EE090E00E949D
:100AB000DB1780936B028FE090E00E94DB1780933E
:100AC000020180E190E00E94DB1780936D0281E1DA
:100AD00090E00E94DB1780936C0282E190E00E941C
:100AE000DB1780936A0283E190E00E94DB1780931A
:100AF000010164E271E084E190E00E94991760E2F4
:100B000071E088E190E00E94991765E171E08CE165
:100B100090E00E9499176DE071E080E290E00E9401
:100B2000991766E071E084E290E00E9499176CE109
:100B300071E088E290E00C9499170895FB018081A0
:100B400091810E94AD3080936602813009F09EC091
:100B500060911B0180E090E00E94BF17609113013B
:100B600081E090E00E94BF1760910B0182E090E06D
:100B70000E94BF176091040183E090E00E94BF17BC
:100B800060916E0284E090E00E94BF1760911401B2
:100B900085E090E00E94BF1760910C0186E090E034
:100BA0000E94BF176091050187E090E00E94BF1787
:100BB00060911A0188E090E00E94BF1760911201D5
:100BC00089E090E00E94BF1760910A018AE090E0FE
:100BD0000E94BF17609103018BE090E00E94BF1755
:100BE000609119018CE090E00E94BF1760911101A3
:100BF0008DE090E00E94BF1760916B028EE090E064
:100C00000E94BF17609102018FE090E00E94BF1721
:100C100060916D0280E190E00E94BF1760916C02CC
:100C200081E190E00E94BF1760916A0282E190E04A
:100C30000E94BF176091010183E190E00E94BF17FD
:100C400064E271E084E190E00E94651760E271E087
:100C500088E190E00E94651765E171E08CE190E029
:100C60000E9465176DE071E080E290E00E946517D8
:100C700066E071E084E290E00E9465176CE171E04B
:100C800088E290E00E946517109266020895FB01C9
:100C9000808191810E94CB3060932001709321016B
:100CA00080932201909323010895FB01808191811B
:100CB0000E94CB306093240170932501809326011C
:100CC000909327010895CF92DF92EF92FF920F93B6
:100CD0001F93CF93DF93FB01808191810E94CB30E2
:100CE0006B017C01609362027093630280936402E3
:100CF0009093650220E13EE040E050E00E94802CAD
:100D0000D22F20936102C701B6012CE330E040E00E
:100D100050E00E94802CC22FFCE3DF9FC0191124F9
:100D2000C093600281E080930F0388E680933103D3
:100D3000109210031092320360E083E393E00E946C
:100D40007F1360E083E393E00E947F131AE08C2F0F
:100D5000612F0E94522C982F880F980F990F692F9E
:100D60006C0F83E393E00E947F138D2F612F0E940D
:100D7000522C682F660F680F660F6D0F83E393E0A8
:100D80000E947F1360E083E393E00E947F1361E1A0
:100D900083E393E00E947F1364E083E393E00E9487
:100DA0007F1366E183E393E00E947F13DF91CF918D
:100DB0001F910F91FF90EF90DF90CF900C946C21DA
:100DC0002F923F924F925F926F927F928F929F925B
:100DD000AF92BF92CF92DF92EF92FF920F931F9349
:100DE000CF93DF9300D01F92CDB7DEB72A013B012E
:100DF0008901813009F078C0690123E0C20ED11C5D
:100E000078018BEFE81A8EEFF80AD801AD5FBE4F7C
:100E1000BB83AA834801B9EF8B1ABEEF9B0A41142A
:100E200051046104710409F45FC0D801ED91FC9193
:100E300080819181DC01ED91FC910480F581E02DB0
:100E40000995892B61F3D801ED91FC918081918105
:100E5000DC01ED91FC910680F781E02D0995382E9B
:100E60008983C6010E94151981159140B9F1F701D6
:100E700080819181222423948115F1E09F0709F458
:100E8000212CA22CB12CA501BE016F5F7F4F8C0DD0
:100E90009D1D0E94132FD7018D919C911197A80E33
:100EA000B91EBB24AD92BC9221100BC0F801EA0D13
:100EB000FB1D3382BFEFAB1ABB0ABB24F701B18223
:100EC000A082AA81BB812D913C91F7018081918103
:100ED0002817390719F4E1E0D401EC93F1E04F1A37
:100EE0005108610871089BCF0F900F900F90DF9110
:100EF000CF911F910F91FF90EF90DF90CF90BF9017
:100F0000AF909F908F907F906F905F904F903F90A9
:100F10002F9008954F925F926F927F928F929F923F
:100F2000AF92BF92CF92DF92EF92FF920F931F93F7
:100F3000CF93DF93EC015B017A010E94921B2B019E
:100F40003C016E0123E0C20ED11CC6010E9415199E
:100F50008E159F0590F40E94921BDC01CB01841931
:100F60009509A609B7098C3D9540A105B10528F45E
:100F7000888199810E94F91EE8CFC6010E94151947
:100F80008C01E816F90608F4870101151105A1F195
:100F9000FE01E95FFE4F1082CD5FDE4F68817981EF
:100FA00080E091E0861B970B78018017910708F489
:100FB0007C016C0D7D1DA701C5010E94132F2881A6
:100FC00039812E0D3F1D332739832883E016F10622
:100FD00098F448018E189F08B601620F731FA40190
:100FE000C5018E0D9F1D0E94132F88819981880E47
:100FF000991E992499828882C801DF91CF911F910F
:101000000F91FF90EF90DF90CF90BF90AF909F90A7
:101010008F907F906F905F904F900895CF92DF9266
:10102000EF92FF920F931F93CF93DF93CDB7DEB76D
:1010300068970FB6F894DEBF0FBECDBFFC011282D9
:10104000ED5FFE4F1182108232961182108232962D
:101050001082FC01C080D1806CEF71E0CE0143961C
:101060000E94F011C6010E94F91E62EC70E0F601C8
:10107000808191810E94591261E0F6018081918105
:101080000E945F1F6EE471E0CE0107960E94F0118E
:1010900066EF71E0CE0101960E94F01118E8E12E92
:1010A00013E1F12E00E010E09E01295F3F4FAE01F9
:1010B0004F5F5F4FB601CE010D960E94811EBE01AB
:1010C000635F7F4FCE0143960E94A911CE010D961A
:1010D0000E94E211CE0101960E94E211CE01079614
:1010E0000E94E21166EF71E0CE0107960E94F011B6
:1010F000BE01695F7F4FCE0143960E943111019678
:1011000051F46EE471E0CE0101960E94F011CE011F
:1011100001960E94E211CE0107960E94E211CE01D3
:1011200043960E94E21168960FB6F894DEBF0FBE98
:10113000CDBFDF91CF911F910F91FF90EF90DF9086
:10114000CF900895EF92FF920F931F93CF93DF9369
:1011500000D000D000D0CDB7DEB7FC01E85FFE4F75
:101160006081718161157105F9F03296E080F1803E
:10117000E114F104C9F08C01CE0101960E94F01136
:10118000970140E050E0BE016F5F7F4FF801808122
:1011900091810E942420F8018283CE0101960E9451
:1011A000E211F801828101C080E026960FB6F89422
:1011B000DEBF0FBECDBFDF91CF911F910F91FF908A
:1011C000EF9008950F931F93CF93DF93EC01FB01F2
:1011D00001900020E9F78F01061B170B8A819B8184
:1011E000A801480F591F2C813D812417350768F04D
:1011F00028813981A801820F931F0E94132F4A81F1
:101200005B81400F511F5B834A83DF91CF911F9118
:101210000F9108950F931F93CF93DF93CDB7DEB750
:1012200062970FB6F894DEBF0FBECDBF8C01CB0125
:101230004AE0BE016F5F7F4F0E94FB30BE016F5FCF
:101240007F4FC8010E94E20862960FB6F894DEBF95
:101250000FBECDBFDF91CF911F910F9108954F9297
:101260005F926F927F928F929F92AF92BF92CF9236
:10127000DF92EF92FF920F931F93CF93DF93CDB73F
:10128000DEB7CD5AD1090FB6F894DEBF0FBECDBF81
:10129000CE0188559F4F0E94551C80913F030E94AC
:1012A000411B9C01990F440B550B60E070E48CE9E5
:1012B00090E00E94802CCA01B901605177428109F7
:1012C00091090E94EB330E94C72D6B017C0123E73B
:1012D0003FE745E759E30E944A342BEE3FEF43E9ED
:1012E0005AE30E94A62C4B015C0129E537E44CEB44
:1012F00053E3C701B6010E944A34A70196010E9438
:101300004A34A70196010E944A349B01AC01C501F1
:10131000B4010E94A62C9B01AC0160E070E080E863
:101320009FE30E94122D23E333E54CE853E40E942F
:10133000A52C6B017C010E94500C8823D1F1809177
:101340009C038B3029F0A8F18551823048F031C0E0
:101350006091980370E080E090E00E94E9332DC036
:1013600010919803612F6F7770E080E090E00E9409
:10137000EB3320E030E040E853E40E944A344B0174
:101380005C0180919903682F70E080E090E00E94FA
:10139000EB339B01AC01C501B4010E94A62C2DECDE
:1013A0003CEC4CEC5DE30E944A3417FF06C09058B9
:1013B00004C060E070E080EC9FE70E948B2DB62EA9
:1013C0000E94500C8823A1F180919C038B3041F145
:1013D00078F18551823060F56091960370E080E08D
:1013E00090E00E94E93320E030E040E853E40E94BE
:1013F0004A342B013C0180919703682F70E080E014
:1014000090E00E94EB339B01AC01C301B2010E944A
:10141000A62C2DEC3CEC4CEC5DE30E944A340CC055
:101420006091960370E080E090E00E94E93304C090
:1014300060E070E080EC9FE70E948B2DA62E20E0FC
:1014400030E04CE052E4C701B6010E94BA2D9E0183
:101450002F5F3F4F49011816BCF5CF57DF4F398337
:101460002883C158D040CD57DF4F19821882C35806
:10147000D04080E890E0CB57DF4F99838883C558F0
:10148000D0406AE571E0CE018F579F4F0E94E2087D
:1014900061E771E0CE018F579F4F0E94E208CD5760
:1014A000DF4F08811981C358D04001501109CF572F
:1014B000DF4F28813981C158D04040E050E06DE0D5
:1014C00087EF94E00E94C92120E030E040EB51E436
:1014D000C701B6010E94E43387FF37C0CF57DF4F03
:1014E00099828882C158D040CD57DF4F1982188227
:1014F000C358D04080E890E0CB57DF4F9983888372
:10150000C558D0406AE571E0CE018F579F4F0E94C9
:10151000E20867E971E0CE018F579F4F0E94E20811
:10152000CD57DF4F08811981C358D04001501109B0
:10153000CF57DF4F28813981C158D04040E050E07B
:101540006DE087EF94E00E94C921CE55DF4F99826C
:101550008882C25AD040CC55DF4F19821882C45AB3
:10156000D04080E890E0CA55DF4F99838883C65AFF
:10157000D0406CEB71E0CE018E559F4F0E94E20887
:1015800064E070E0CE018E559F4F0E940A098E01E3
:101590000F571F4F23E045E0C701B6010E94602F9F
:1015A000B801CE018E559F4F0E94E208CC55DF4F07
:1015B00008811981C45AD04001501109CE55DF4F1E
:1015C00028813981C25AD04040E050E064E187EF81
:1015D00094E00E94C9214B2D65E070E087EF94E014
:1015E0000E94AE184A2D66E070E087EF94E00E94FA
:1015F000AE18C555DF4F4881CB5AD0406EE070E041
:1016000087EF94E00E94AE18C455DF4F4881CC5A52
:10161000D0406FE070E087EF94E00E94AE18C455B0
:10162000DF4F4881CC5AD040C555DF4F2881CB5A77
:10163000D04030E0A0E1BEE00E9455355CE3459F1C
:10164000900111248901330F220B330BDC01CB01F4
:10165000800F911FA21FB31F80937002909371029D
:10166000A0937202B0937302C355DF4F0FB6F89484
:10167000DEBF0FBECDBFDF91CF911F910F91FF90C5
:10168000EF90DF90CF90BF90AF909F908F907F9022
:101690006F905F904F90089584E594E00E945419F4
:1016A00021E0892B09F420E0822F08951F920F92E8
:1016B0000FB60F9211242F933F934F935F936F9325
:1016C0007F938F939F93AF93BF93EF93FF9384E5A3
:1016D00094E00E94C319FF91EF91BF91AF919F9148
:1016E0008F917F916F915F914F913F912F910F90CB
:1016F0000FBE0F901F9018958F929F92AF92BF923E
:10170000CF92DF92EF92FF92CF93DF93A0919D0350
:10171000882311F03A2F01C030E080919E0390E0C1
:10172000880F991F88569E4FC090A303D090A403A2
:10173000E090A503F090A60340E050E0BA01FC0160
:10174000C591D49128812A2323130FC04A015B013C
:101750002FEF821A920AA20AB20A4C155D056E0595
:101760007F0538F4B501A401EACF342F252FCB0132
:1017700004C030E020E080E090E0632F722FDF9122
:10178000CF91FF90EF90DF90CF90BF90AF909F9060
:101790008F9008950895CF92DF92EF92FF920F936A
:1017A0001F93CF93DF936C017A018B01C0E0D0E0EF
:1017B000CE15DF0589F0D8016D918D01D601ED912F
:1017C000FC910190F081E02DC6010995892B11F45F
:1017D0007E0102C02196ECCFC701DF91CF911F910E
:1017E0000F91FF90EF90DF90CF900895CF93DF930C
:1017F000EC0188819981009711F00E9415301982BF
:1018000018821D821C821B821A82DF91CF9108955B
:101810000F931F93CF93DF93EC01888199810097F9
:1018200029F02A813B812617370788F48B016F5FE7
:101830007F4F0E94442E009761F0998388831B8319
:101840000A832C813D81232B11F4FC01108281E05D
:1018500001C080E0DF91CF911F910F910895EF9229
:10186000FF920F931F93CF93DF93EC017B018A01CB
:10187000BA010E94080C811104C0CE010E94F60B2F
:1018800007C01D830C83B701888199810E94302F86
:10189000CE01DF91CF911F910F91FF90EF900895AE
:1018A000CF92DF92EF92FF920F931F93CF93DF932C
:1018B000CDB7DEB7C054D1400FB6F894DEBF0FBE2F
:1018C000CDBF0E94921B00919F031091A003209115
:1018D000A1033091A2036B017C01C01AD10AE20A74
:1018E000F30A40EDC41647E0D406E104F10418F40D
:1018F0008091A703BCC060939F037093A003809363
:10190000A1039093A20310929A031092990310924C
:101910009803109297031092960361E080919B03C5
:101920000E94761A6AEF70E080E090E00E94581BF7
:1019300061E080919B030E94A61A60E080919B0366
:101940000E94761A64E170E080E090E00E94581BEB
:10195000F89461E080919B030E94761A8BE990E0F5
:101960000197F1F762E080919B030E94A61A83E23F
:1019700090E00197F1F780E00E947C0B672B682BC9
:10198000692B21F41092A70378943EC081E00E9455
:101990007C0B672B682B692BA9F38E010F5F1F4F00
:1019A0006E018FEBC81A8EEFD80A780180E00E9492
:1019B0007C0BF701608371838283938381E00E94B3
:1019C0007C0BF7016483758386839783F8E0EF0EC1
:1019D000F11CEC14FD0451F7789420E030E0F8019C
:1019E0004081518162817381C480D580E680F78017
:1019F000411551056105710529F0C114D104E104B7
:101A0000F10421F41092A70380E031C0F90183E0D2
:101A1000F595E7958A95E1F7EA56FC4F8081880FA6
:101A20004C155D056E057F0508F4816080832F5F8E
:101A30003F4F085F1F4F2832310589F620919A03E6
:101A400030E0409196038091970390E0840F911DC0
:101A500040919803840F911D40919903840F911D2B
:101A600099272817390771F681E08093A703C05C96
:101A7000DE4F0FB6F894DEBF0FBECDBFDF91CF9122
:101A80001F910F91FF90EF90DF90CF9008952F92CC
:101A90003F925F926F927F928F929F92AF92BF928E
:101AA000CF92DF92EF92FF920F931F93CF93DF932A
:101AB000CDB7DEB76F970FB6F894DEBF0FBECDBFC0
:101AC0007C012DB73EB73F8F2E8F60E070E0CB01D9
:101AD0000E94581BD70158968D919C915997029757
:101AE00009F424C10D911C91F8015280552009F48C
:101AF00045C0808191810E94F91EC80103960E9411
:101B0000151918161906D4F545E050E0BE01695EB6
:101B10007F4FD7018D919C910E948A07009709F40D
:101B200065C3059709F0FDC0888D998D9827892791
:101B30009827998F888F0A8D1B8D102701271027D2
:101B40001B8F0A8F892B09F4ECC08F89811105C185
:101B50000E94921BD70116966D937D938D939C9353
:101B6000199758962D913C9159974A8D5B8D232B4F
:101B700009F4CBC04530510509F4D3C00E94921B33
:101B80004B015C01D70158968D919C9159978130FA
:101B9000910509F05EC051100AC059961C921E9220
:101BA0005897F70186869786A08AB18A2FC3F701D6
:101BB00086819781A085B185A5019401281B390BE9
:101BC0004A0B5B0BDA01C90181383EE39307A1059B
:101BD000B10548F0D7018D919C910E940E08F70144
:101BE000118E108EA3C081319742A105B10598F4E2
:101BF000F70182859385A485B585A5019401281BED
:101C0000390B4A0B5B0BDA01C90181319742A105FF
:101C1000B10508F4FBC2F70186859785A089B189D3
:101C2000A5019401281B390B4A0B5B0BDA01C90192
:101C3000813D9740A105B10508F4E8C200E010E03D
:101C400020E030E040E050E066E0C7010E94C9219A
:101C500031C0892B09F06CC0F70186859785A08972
:101C6000B189552069F0881A990AAA0ABB0AF1EDD0
:101C70008F16F7E09F06A104B10408F4C7C2AACFEB
:101C8000A5019401281B390B4A0B5B0BDA01C90132
:101C900089389341A105B10508F44AC0808191813A
:101CA0000E940E08F701808191810E94A208582E9F
:101CB000811108C0D7011E968D929D92AD92BC9263
:101CC0005197A4C288EE93E0A0E0B0E0F701828BC8
:101CD000938BA48BB58B22813381F9010190002075
:101CE000E9F731978F01021B130B41E050E062E0EE
:101CF000C7010E94C921F70182859385A485B58516
:101D000086879787A08BB18B81C2288D398D213032
:101D1000310509F02FCF4430510569F0483C510599
:101D200051F0F701808191810E940E08512C6EC202
:101D3000552453946BC2F70166877787808B918B0C
:101D400081E090E0918F808FC7010E94FB2A60E0C4
:101D500070E0CB010E94581B49C2D7018D919C9124
:101D60000130B1E01B0718F00E94A2083FC28DB6F7
:101D70009EB698012F5F3F4FEDB7FEB7E21BF30B06
:101D80000FB6F894FEBF0FBEEDBF2DB73EB72F5F65
:101D90003F4F6901A801B9010E948A070817190776
:101DA00009F01BC2EA8DFB8DEC0DFD1D10820E9417
:101DB000921BD70116966D937D938D939C931997E3
:101DC0008F89843109F48CC0D8F4863019F18F30B2
:101DD00009F486C0823009F0FAC181E090E0F70191
:101DE000918F808F488D598D08EC10E020E030E015
:101DF00060E0C7010E94C921C7010E94FB2AEFC110
:101E0000823309F4ECC1873309F4E9C1893209F05E
:101E1000DEC10BC0488D598D08EC10E020E030E0A9
:101E200060E0C7010E94C921DAC1D70114968D91E3
:101E30009C911597892B39F480E290E00E94802FC5
:101E4000F701958384830A8D1B8DDA82C9820C0D7C
:101E50001D1DC016D10608F0C0C140E250E0B60119
:101E6000D70114968D919C9115970E94372FCE0122
:101E700001960E947723FC01808191818017910750
:101E800030F489819A810E94CB308B0102C00AEF25
:101E900010E2D7018D919C910E940E08F70180817C
:101EA0009181FC01E85FFE4FD70114962D913C9182
:101EB00015973183208332961183008316968D9176
:101EC0009D910D90BC91A02D88589341A109B10915
:101ED000F70186879787A08BB18B118E108E7FC1FB
:101EE000888D998DD70157969C938E9356976A8CBF
:101EF0007B8CDD8ECC8E5601A60CB71CCA14DB047D
:101F000008F061C1F60120803180CE014C960E941C
:101F10007723DC018D919C918A159B0508F053C1B4
:101F20008C8D9D8DFC012081213449F401960E9405
:101F3000AD30863091053CF41EE0180F05C00E94BC
:101F4000AD30182F01C01FEFF6E72F16F2E73F065E
:101F500009F4E8C098F431E6231632E7330609F4B1
:101F6000A1C044E6241642E7340609F446C050E70F
:101F700025165DE6350609F019C128C084E6281645
:101F800087E7380609F473C096E7291697E73906FC
:101F900009F4E2C0A1E62A16A7E73A0609F006C14D
:101FA000A9C0CE014C960E947723CC8CDD8C6DE1CC
:101FB00072E0C6010E94272F892B71F460E0812F07
:101FC0000E94A61ACE014C960E9477238C8D9D8D7F
:101FD0008A159B0530F3F7C060E272E0C6010E94EB
:101FE000272F892B09F410C164E272E0C6010E9418
:101FF000272F892B09F408C1FDC0CE0101969A8BC9
:10200000898B1C8A1B8A80E190E09E8B8D8B68E215
:1020100072E0CE0141960E94E208012F10E0B80163
:10202000CE0141960E940A09F801EC5FFE4F8491AF
:10203000F801E959FD4FD490F801ED5AFD4F049194
:10204000002391F081110E944D1AE02FF0E0EE0F75
:10205000FF1FE856FE4FA591B491EC91DE2261E09E
:1020600070E0D1F560E038C060E070E035C0CE01CE
:102070004C960E947723FC01808191818A159B05F3
:1020800008F0A1C061E0812F0E94A61A8C8D9D8D61
:102090000E94AD3061E0892B09F460E0812F0E943D
:1020A000761A91C0CE0101969A8B898B1C8A1B8A65
:1020B00080E190E09E8B8D8B6BE272E0CE014196C9
:1020C0000E94E208612F70E0CE0141960E940A0949
:1020D000812F0E94411BBC01CE0141960E940A093A
:1020E0000B891C890150110929893A8940E050E087
:1020F00064E166C0CE014C960E947723DC018D918D
:102100009C918A159B0508F05EC061E0812F0E94BA
:10211000A61A8C8D9D8D0E94AD30BC01812F0E942E
:10212000E21A51C01983103208F04DC0E12FF0E0DF
:10213000EE0FFF1FE85EFE4F25913491211531050A
:1021400009F441C0B2E1203F3B0709F43CC0CE0195
:102150000196F901099537C0CE014C960E9477236C
:102160008C8D9D8DC81AD90AC60CD71C9A83898379
:10217000DC82CB82DE82CD82198B103220F5E12FFA
:10218000F0E0EE0FFF1FE85AFE4F25913491211524
:102190003105C9F0F2E12F3E3F07A9F0BE016F5FA4
:1021A0007F4FCE014196F90109950DC0D701569692
:1021B0004D915C91579702E010E020E030E060E044
:1021C000C7010E94C921F701178A168A08C0D701E2
:1021D0008D919C910E94A20802C080E001C0852DD3
:1021E0000FB6F8949EBE0FBE8DBE01C0852D811125
:1021F000C5CC97CD6EE272E0C6010E94272F892BD5
:1022000009F0E0CE62E0DBCE61E0D9CE852DEE8D27
:10221000FF8D0FB6F894FEBF0FBEEDBF6F960FB6E1
:10222000F894DEBF0FBECDBFDF91CF911F910F910C
:10223000FF90EF90DF90CF90BF90AF909F908F90E6
:102240007F906F905F903F902F900895FC01808168
:102250009181009711F00C94CB3060E070E0CB01DD
:102260000895CF93DF93FC0124813581232B71F0F6
:10227000FB01DC01CD91DC9160817181CE010E9476
:10228000462F009719F08C1B9D0B02C08FEF9FEF1C
:10229000DF91CF910895EF92FF920F931F93CF9309
:1022A000DF9300D0CDB7DEB78C0169831A82FC01C1
:1022B000E480F580FFEFEF1AFF0AB7010E94080CD7
:1022C000882381F0F8012081318184819581BE01CC
:1022D0006F5F7F4F820F931F0E94302FF801F582AE
:1022E000E48281E00F900F90DF91CF911F910F91C9
:1022F000FF90EF900895CF93DF93EC016115710586
:1023000059F0FB0101900020E9F73197AF01461B1E
:10231000570B0E942F0C02C00E94F60BCE01DF91DA
:10232000CF910895CF93DF93EC01FB0186179707B8
:1023300061F0608171816115710529F044815581D9
:102340000E942F0C02C00E94F60BCE01DF91CF91AC
:1023500008950F931F93CF93DF938C01EB01FC0142
:10236000808191810097B1F0688179816115710553
:1023700079F0428153812C813D814217530740F00F
:102380000E94302F8C819D81F8019583848313C036
:102390000E94153088819981F801918380838A8118
:1023A0009B81938382838C819D8195838483198211
:1023B00018821B821A821D821C82DF91CF911F918D
:1023C0000F910895FC01808191810C941530FC01DE
:1023D0001182108213821282158214820C9492113F
:1023E000FC011182108213821282158214826115FF
:1023F000710551F0FB0101900020E9F73197AF0121
:10240000461B570B0C942F0C0895BF92CF92DF926E
:10241000EF92FF920F931F93CF93DF937C016B0199
:102420008A01E9012417350720F4812F8901C42F7F
:10243000D82F6CEF71E0C7010E94F011D6011496FD
:102440008D919C91159708171907D0F48C179D074B
:1024500008F4EC01D601ED91FC911197EC0FFD1FF2
:10246000B08010824D915C91BA01600F711FC7015D
:102470000E947B11D601ED91FC91EC0FFD1FB08203
:10248000C701DF91CF911F910F91FF90EF90DF90E7
:10249000CF90BF900895DC01ED91FC91DB01149683
:1024A0004D915C9115976D917C910280F381E02DA7
:1024B0000994EF92FF920F931F93CF93DF938C01B8
:1024C0007B01C0E0D0E0F701EC0FFD1F64916623B3
:1024D00061F0D801ED91FC910190F081E02DC801EF
:1024E0000995892B11F02196EECFCE01DF91CF9186
:1024F0001F910F91FF90EF9008956115710579F08C
:10250000FB0101900020E9F73197AF01461B570B03
:10251000DC01ED91FC910280F381E02D099480E0D3
:1025200090E008954F925F926F927F92EF92FF92A8
:102530000F931F93CF93DF93CDB7DEB7A1970FB65D
:10254000F894DEBF0FBECDBF7C01FA01CB0119A20A
:10255000223008F42AE08E010F5D1F4F422E512CCD
:10256000612C712CBF01A30192010E945E2CF90124
:10257000CA01015011096A3014F4605D01C0695C40
:10258000D8016C93232B242B252B61F7B801C701AD
:102590000E947D12A1960FB6F894DEBF0FBECDBF8C
:1025A000DF91CF911F910F91FF90EF907F906F90EF
:1025B0005F904F9008950F931F93CF93DF93EC019B
:1025C0000E9459128C016AEF71E0CE010E947D12C7
:1025D000800F911FDF91CF911F910F910895089562
:1025E000089585ED8093BC008091BC0084FDFCCFF4
:1025F00010920E03089540919802262F30E0240F88
:10260000311D21323105DCF420910E032430C9F450
:10261000FC0180E090E0861758F4309198022191F7
:10262000DC01AA58BD4FA30FB11D2C930196F3CF27
:1026300080919802680F6093980280E0089581E08D
:10264000089582E008950895E091690280916802FA
:10265000E81730F4F0E0E154FD4F808190E00895F8
:102660008FEF9FEF0895909169028091680298170B
:1026700050F4E92FF0E0E154FD4F208130E09F5FFE
:102680009093690202C02FEF3FEFC9010895809136
:10269000680290E020916902821B91090895CF920F
:1026A000DF92EF92FF920F931F93CF93DF937C0102
:1026B000262F972F8A0180910F03882391F0C62F30
:1026C000D72F6E01C40ED51ECC15DD0571F06991B2
:1026D000D701ED91FC910190F081E02DC7010995A2
:1026E000F3CF642F822F0E94FB12C801DF91CF919C
:1026F0001F910F91FF90EF90DF90CF900895CF93AF
:10270000DF931F92CDB7DEB7698320910F03222399
:10271000D1F020913203203240F021E030E0FC0182
:102720003383228380E090E015C080911003E82F6E
:10273000F0E0EF5EFC4F998190838F5F80931003F0
:102740008093320305C061E0CE0101960E94FB1226
:1027500081E090E00F90DF91CF910895CF93DF93C8
:10276000DC018C918823F9F077FD07C06F3F71057C
:1027700029F024F06FEF70E001C060E017966C93D1
:1027800017971F96ED91FC915097309739F0ED0116
:10279000862F0995682F70E0888101C070E0DF9175
:1027A000CF910C94E21ADF91CF910895FB018081C3
:1027B00091810E94CB306093060170930701809352
:1027C0000801909309010895FB01808191810E9485
:1027D000CB3060930D0170930E0180930F019093A5
:1027E00010010895FB01808191810E94CB3060939C
:1027F00015017093160180931701909318010895A5
:102800002F923F924F925F926F927F928F929F9200
:10281000AF92BF92CF92DF92EF92FF920F931F93EE
:10282000CF93DF9300D000D000D0CDB7DEB75C01EE
:102830006B0161E372E0CE0101960E94F011BE01CE
:102840006F5F7F4FC6010E9431114C01CE0101968E
:102850000E94E2112FEF8216920629F460E070E0E8
:1028600080E090E0A4C085E0880E911CD60114960B
:102870000D911C9115978016910678F46D907C90BF
:102880006AE370E0C301880D991D0E941C2F009718
:1028900021F07C01E618F70803C0EE24EA94FE2C30
:1028A00017010F2C000C44085508BFEF2B163B06F0
:1028B0004B065B0699F28016910680F4F601608063
:1028C00071806CE270E0C301880D991D0E941C2F7D
:1028D000009721F08C010619170902C00FEF1FEFB6
:1028E000C801012E000CAA0BBB0B8F3FFFEF9F0707
:1028F000AF07BF07A1F182159305A405B5057CF5C7
:102900009801A401B601CE0101960E940512CE01E4
:1029100001960E942611962ECE0101960E94E21188
:1029200024E0291508F49ACFA8014F5F5F4F970163
:10293000B601CE0101960E940512CE0101960E94B9
:1029400026116B017C01CE0101960E94E2111C143C
:102950001D041E041F040CF081CF892D18C097019F
:10296000A401B601CE0101960E940512CE01019686
:102970000E9426116B017C01CE0101960E94E2119A
:102980001C141D041E041F040CF068CF8FEFD5012A
:102990001296ED91FC911397309739F014962D9182
:1029A0003C911597B701A6010995B601C701269676
:1029B0000FB6F894DEBF0FBECDBFDF91CF911F9150
:1029C0000F91FF90EF90DF90CF90BF90AF909F90CE
:1029D0008F907F906F905F904F903F902F900895D1
:1029E0008F929F92AF92BF92EF92FF920F931F939D
:1029F000CF93DF93EC018881882309F494C0898503
:102A00009A85892B09F48FC00E94921B2AE030E03E
:102A100040E050E00E945E2C89819A818901081B68
:102A2000190B8D819E810817190708F47EC0B80123
:102A300080E090E00E94E9334B015C0189859A8532
:102A4000BC0180E090E00E94E9339B01AC01C5012C
:102A5000B4010E94122D4B015C019B01AC016B85FE
:102A60007C858D859E850E94A62C6B877C878D87B3
:102A70009E8720E030E040E85FE3C501B4010E949A
:102A8000BA2D688587FD0FC080E090E0A8ECB2E425
:102A90008B879C87AD87BE871A86198670E0CE012A
:102AA0000E94AE1340C0EF80F12C862F90E08E196B
:102AB0009F09BC01990F880B990B0E94EB33A5016C
:102AC00094010E944A344B015C0120E030E0A901EE
:102AD0000E94BA2D20E030E040E05FE387FD05C0B2
:102AE000C501B4010E94A62C04C0C501B4010E9416
:102AF000A52C0E94842D6E0D7F1DCE010E94AE1369
:102B000089859A85801B910B9A8789870E94921BE1
:102B10002AE030E040E050E00E945E2C29833A83B6
:102B20004B835C8302C080E001C081E0DF91CF91E4
:102B30001F910F91FF90EF90BF90AF909F908F905B
:102B40000895FC018081882329F081E02185328568
:102B5000232B09F480E00895AF92BF92CF92DF92C9
:102B6000EF92FF921F93CF93DF93EC011A861986A1
:102B70001B861C861D861E868881882309F463C0F7
:102B80001F81611709F45FC0A62EB12C4531510594
:102B900068F4B501CE01DF91CF911F91FF90EF90C6
:102BA000DF90CF90BF90AF900C94AE135A874987B7
:102BB0006887BA0180E090E00E94E9336B017C01F4
:102BC000812F90E08A199B0997FF03C09195819509
:102BD0009109BC01990F880B990B0E94EB339B0163
:102BE000AC01C701B6010E94122D6B017C0120E0EF
:102BF00030E0A9010E94BA2D20E030E040E05FE320
:102C000087FD05C0C701B6010E94A62C04C0C701FC
:102C1000B6010E94A52C0E94842D6431710518F024
:102C20007E836D8304C084E190E09E838D830E9447
:102C3000921B2AE030E040E050E00E945E2C2983A5
:102C40003A834B835C83DF91CF911F91FF90EF908C
:102C5000DF90CF90BF90AF9008951F920F920FB664
:102C60000F9211240F900FBE0F901F9018951F9276
:102C70000F920FB60F9211242F933F934F935F93B0
:102C80006F937F938F939F93AF93BF93EF93FF9334
:102C90008091B900887F803609F49CC068F588323D
:102CA00009F45BC090F4803109F454C038F48823EF
:102CB00009F4F6C0883009F44DC0F6C0883109F433
:102CC0004CC0803209F45DC0EFC0803409F468C0A4
:102CD00048F4803309F455C0883309F0E5C0809387
:102CE0000C03D8C0803509F44FC0883509F45DC0A5
:102CF000883409F0D9C0D6C0883909F4C7C0A8F40F
:102D0000883709F467C038F4883609F463C080371F
:102D100009F460C0C9C0883809F4B8C0803909F422
:102D20005FC0803809F0C0C05BC0803B09F486C03A
:102D300038F4803A09F466C0883A09F47FC0B4C018
:102D4000803C09F4A7C0883C09F4A4C0883B09F47E
:102D50008AC0AAC08091E90210C090910B038091B3
:102D60000A03981770F5E0910B0381E08E0F8093B2
:102D70000B03F0E0E651FD4F80818093BB0085ECB2
:102D800086C080930C038EC0E0910B0381E08E0F10
:102D900080930B038091BB00F0E0E651FD4F8083F0
:102DA00090910B0380910A036EC0E0910B0381E0C8
:102DB0008E0F80930B038091BB00F0E0E651FD4F36
:102DC000808380910D0381116DC081E08093E802C2
:102DD00084EA61C083E080930E031092BC02CFCFDF
:102DE0008091BC02803208F051C0E091BC0281E0C9
:102DF0008E0F8093BC028091BB00F0E0E456FD4F43
:102E00008083BDCF85EC8093BC0010920E0380912F
:102E1000BC02803230F4E091BC02F0E0E456FD4F99
:102E200010826091BC0270E0E0919A02F0919B02E6
:102E30008CE992E009951092BC0236C084E0809340
:102E40000E031092990210929802E0919602F0916E
:102E50009702099580919802811105C081E08093C5
:102E6000980210927602E091990281E08E0F809391
:102E70009902F0E0EA58FD4F80818093BB00909169
:102E8000990280919802981708F479CF85E8809389
:102E9000BC000AC085EC8093BC0010920E0304C0F5
:102EA00010920C030E94F112FF91EF91BF91AF912C
:102EB0009F918F917F916F915F914F913F912F9152
:102EC0000F900FBE0F901F901895AF92BF92CF92A8
:102ED000DF92EF92FF920F931F93CF93DF931F9296
:102EE000CDB7DEB75C017B018B016C0184E0C80EBD
:102EF000D11CF80161918F01C50169830E940835D9
:102F00006981681719F0C5010E941035FFEFAF1AEB
:102F1000BF0AAC14BD0469F7C7010F90DF91CF91D0
:102F20001F910F91FF90EF90DF90CF90BF90AF90E7
:102F30000895CF92DF92EF92FF920F931F93CF935A
:102F4000DF93EB017B0124E0E20EF11C8B016C01AD
:102F5000C61AD70AC601800F911F0E940835F801D2
:102F600081938F01EE15FF05A9F7CE01DF91CF9177
:102F70001F910F91FF90EF90DF90CF9008950F93E6
:102F80001F93CF93DF931F92CDB7DEB78C01698378
:102F90000E9408356981681741F0C8010F90DF91E0
:102FA000CF911F910F910C9410350F90DF91CF911D
:102FB0001F910F9108950C9408358F929F92AF92B4
:102FC000BF92EF92FF920F931F93CF93DF93CDB7F2
:102FD000DEB7C85AD1090FB6F894DEBF0FBECDBF19
:102FE0007C018B0149015A01CE010196CD55DF4F7D
:102FF00099838883C35AD040CB55DF4F19821882FA
:10300000C55AD04080E890E0C955DF4F9983888346
:10301000C75AD0406CEB71E0CE018D559F4F0E9496
:10302000E208B801CE018D559F4F0E940A092AE09F
:10303000AE014F575F4FC501B4010E940631BE017A
:103040006F577F4FCE018D559F4F0E94E208CB55A1
:10305000DF4F08811981C55AD04001501109CD5563
:10306000DF4F28813981C35AD04040E050E064E10D
:10307000C7010E94C921C855DF4F0FB6F894DEBFC3
:103080000FBECDBFDF91CF911F910F91FF90EF90B9
:10309000BF90AF909F908F900895CF92DF92EF9264
:1030A000FF920F931F93CF93DF93CDB7DEB7C65830
:1030B000D1090FB6F894DEBF0FBECDBF7C016B0106
:1030C0008A01CE010196CF57DF4F99838883C1587B
:1030D000D040CD57DF4F19821882C358D04080E8C6
:1030E00090E0CB57DF4F99838883C558D0406CEB75
:1030F00071E0CE018F579F4F0E94E208B601CE01CA
:103100008F579F4F0E940A09B801CE018F579F4FDA
:103110000E940A09CD57DF4F08811981C358D0405A
:1031200001501109CF57DF4F28813981C158D04054
:1031300040E050E064E1C7010E94C921CA57DF4F57
:103140000FB6F894DEBF0FBECDBFDF91CF911F91B8
:103150000F91FF90EF90DF90CF900895EF92FF9244
:103160000F931F93CF93DF93CDB7DEB7C758D10925
:103170000FB6F894DEBF0FBECDBF7C018B01CE0130
:103180000196CF57DF4F99838883C158D040CD57E0
:10319000DF4F19821882C358D04080E890E0CB57A7
:1031A000DF4F99838883C558D0406CEB71E0CE0126
:1031B0008F579F4FC957DF4F4883C758D0400E9451
:1031C000E208B801CE018F579F4F0E940A09C957E4
:1031D000DF4F4881C758D040642F70E0CE018F5731
:1031E0009F4F0E940A09CD57DF4F08811981C358AC
:1031F000D04001501109CF57DF4F28813981C15884
:10320000D04040E050E064E1C7010E94C921C957A5
:10321000DF4F0FB6F894DEBF0FBECDBFDF91CF9169
:103220001F910F91FF90EF900895FC01EE5FFE4F0C
:10323000208131813297408151812417350739F43B
:103240003496808181110BC080E090E00895C9011F
:103250004217530708F09395841B950B089580E05F
:1032600091E00895FC01918D828D981761F0828D17
:10327000DF01A80FB11D5D968C91928D9F5F9F73AA
:10328000928F90E008958FEF9FEF0895FC01918D4C
:10329000828D981731F0828DE80FF11D858D90E0B9
:1032A00008958FEF9FEF0895FC01918D228D892F56
:1032B00090E0805C9F4F821B91098F73992708953E
:1032C00080E090E0892B29F00E944C0B81110C9436
:1032D000000008953FB7F8948091E4029091E502D0
:1032E000A091E602B091E70226B5A89B05C02F3F4A
:1032F00019F00196A11DB11D3FBFBA2FA92F982F1C
:103300008827820F911DA11DB11DBC01CD0142E096
:10331000660F771F881F991F4A95D1F708950E945D
:103320000E2F1F920F920FB60F9211242F938F938F
:103330009F93EF93FF93E0916404F0916504808183
:10334000E0916A04F0916B0482FD12C0908180913B
:103350006D048F5F8F7320916E04821751F0E0919E
:103360006D04F0E0EC5AFB4F958F80936D0401C023
:103370008081FF91EF919F918F912F910F900FBEC0
:103380000F901F901895FC01848DDF01A80FB11DCF
:10339000A35ABF4F2C91848D90E001968F7399278B
:1033A000848FA689B7892C93A089B1898C91806478
:1033B0008C93938D848D981306C00288F389E02D39
:1033C00080818F7D80830895EF92FF920F931F93EA
:1033D000CF93DF93EC0181E0888F9B8D8C8D9813C8
:1033E00005C0E889F989808185FD24C0F62E0B8D02
:1033F00010E00F5F1F4F0F731127E02E8C8DE81226
:103400000CC00FB607FCFACFE889F989808185FFE7
:10341000F5CFCE010E94C319F1CF8B8DFE01E80FCD
:10342000F11DE35AFF4FF0820B8FEA89FB898081FF
:10343000806207C0EE89FF896083E889F98980810D
:103440008064808381E090E0DF91CF911F910F91A4
:10345000FF90EF900895CF93DF93EC01888D882340
:10346000C9F0EA89FB89808185FD05C0A889B989F1
:103470008C9186FD0FC00FB607FCF5CF808185FFCC
:10348000F2CFA889B9898C9185FFEDCFCE010E943A
:10349000C319E7CFDF91CF910895833081F028F4ED
:1034A000813099F08230A1F008958730A9F08830FA
:1034B000B9F08430D1F4809180008F7D03C0809179
:1034C00080008F7780938000089584B58F7702C045
:1034D00084B58F7D84BD08958091B0008F7703C03F
:1034E0008091B0008F7D8093B00008951F93CF939B
:1034F000DF93282F30E0F901EC5FFE4F8491F90152
:10350000E959FD4FD491F901ED5AFD4FC491CC23F7
:10351000C9F0162F81110E944D1AEC2FF0E0EE0F2A
:10352000FF1FED5EFD4FA591B4918FB7F894111177
:1035300005C09C91ED2FE095E92302C0EC91ED2BA5
:10354000EC938FBFDF91CF911F910895CF93DF93BD
:1035500090E0FC01E959FD4F2491FC01ED5AFD4F2B
:103560008491882361F190E0880F991FFC01E75F47
:10357000FD4FC591D491FC01ED5EFD4FA591B49135
:10358000611109C09FB7F8948881209582238883B0
:10359000EC912E230BC0623061F49FB7F894388110
:1035A000822F809583238883EC912E2B2C939FBFB1
:1035B00006C08FB7F894E8812E2B28838FBFDF9148
:1035C000CF9108951F93CF93DF93182FEB0161E004
:1035D0000E94A61A209711F460E004C0CF3FD105E5
:1035E00039F461E0812FDF91CF911F910C94761A0D
:1035F000E12FF0E0EC5FFE4FE491E330F9F048F4A6
:10360000E130B9F0E230A1F584B5806284BDC8BD77
:1036100034C0E730E9F0E83019F1E43049F5809141
:103620008000806280938000D0938B00C0938A00DA
:1036300024C084B5806884BDC7BD1FC08091800050
:10364000806880938000D0938900C093880015C063
:103650008091B00080688093B000C093B3000DC02B
:103660008091B00080628093B000C093B40005C028
:10367000C038D1050CF0B5CFAFCFDF91CF911F91FE
:1036800008958E3008F08E508770806480937C009F
:1036900080917A00806480937A0080917A0086FD20
:1036A000FCCF809178002091790090E0922B0895D2
:1036B0008F929F92AF92BF92CF92DF92EF92FF9242
:1036C0006B017C010E946A194B015C01C114D10499
:1036D000E104F104F1F00E946A19DC01CB018819C0
:1036E0009909AA09BB09883E9340A105B10570F369
:1036F00021E0C21AD108E108F10888EE880E83E0C3
:10370000981EA11CB11CC114D104E104F10419F7E5
:10371000DDCFFF90EF90DF90CF90BF90AF909F9064
:103720008F9008952FB7F8946091E0027091E102B4
:103730008091E2029091E3022FBF08954F925F9231
:103740006F927F928F929F92AF92BF92CF92DF92B1
:10375000EF92FF920F931F93CF93DF93EC017B01C6
:103760006A01480159016CEF71E00E94F0110E945A
:10377000921B2B013C010E94921BDC01CB0184199E
:103780009509A609B70988159905AA05BB0588F505
:10379000F70180819181DC01ED91FC910480F5813C
:1037A000E02D09951816190634F7D7018D919C91D3
:1037B000DC01ED91FC910680F781E02D09958823CD
:1037C00039F3682FCE010E944B11B601CE010E9441
:1037D0003111019671F4BE01C7010E940014672BDC
:1037E000682B692BA9F26CEF71E0CE010E947B116E
:1037F000CFCFCE01DF91CF911F910F91FF90EF902E
:10380000DF90CF90BF90AF909F908F907F906F9000
:103810005F904F9008951F920F920FB60F92112450
:103820002F933F938F939F93AF93BF938091E00229
:103830009091E102A091E202B091E3023091DF02A7
:1038400023E0230F2D3720F40196A11DB11D05C0E3
:1038500026E8230F0296A11DB11D2093DF0280935D
:10386000E0029093E102A093E202B093E302809120
:10387000E4029091E502A091E602B091E702019680
:10388000A11DB11D8093E4029093E502A093E6028E
:10389000B093E702BF91AF919F918F913F912F918C
:1038A0000F900FBE0F901F901895CF92DF92EF925E
:1038B000FF920F931F93CF93DF93EC0181E08093EE
:1038C0000F0388E6809331031092100310923203A5
:1038D00060E083E393E00E947F130E946C2180915B
:1038E0000E038111FCCF81E080930E0380930D03C2
:1038F0009FEF90930C0310920B0396E090930A03B2
:103900008093E9028091E902806D8093E9028091C1
:10391000E802813061F41092E8028091E90280931C
:10392000BB008091BC0083FDF8CF85EC01C085EE23
:103930008093BC0080910E038130E1F380910B03F2
:10394000873018F480910B0301C087E0AAEEB2E043
:103950002FEB32E0F9019E2F921B981718F49D91DE
:103960009193F9CF109269028093680283E393E008
:103970000E9433138F77982F92959F701AEF082F1C
:10398000919F000D112483E393E00E9433139C0167
:10399000332794E0359527959A95E1F7F82E129FF5
:1039A000F00C112483E393E00E9433139C0133272E
:1039B00044E0359527954A95E1F7E82E129FE00CF3
:1039C000112483E393E00E94331383E393E00E9486
:1039D00033139C01332754E0359527955A95E1F729
:1039E000D82E129FD00C112483E393E00E9433134E
:1039F0009C01332764E0359527956A95E1F7C82E39
:103A0000129FC00C112483E393E00E9433139C01A6
:103A1000332774E0359527957A95E1F7129F800D4D
:103A200011248883C982DA82EB82FC820D83CE0165
:103A3000DF91CF911F910F91FF90EF90DF90CF908A
:103A400008952F923F924F925F926F927F928F9242
:103A50009F92AF92BF92CF92DF92EF92FF920F931D
:103A60001F93CF93DF93CDB7DEB762970FB6F8946D
:103A7000DEBF0FBECDBF2C013B014A011901580129
:103A80006CEF71E0CE0101960E94F011B301CE01FE
:103A900007960E94E71197018601AE01495F5F4FCB
:103AA000B201CE010D960E949E1BBE01635F7F4F47
:103AB000CE0101960E94A911CE010D960E94E2113D
:103AC000CE0107960E94E211B301CE0101960E9439
:103AD0003111019609F494C0B401CE0101960E94FF
:103AE00031112C01990F66087708B101CE010196BA
:103AF0000E9431119C01092E000CAA0BBB0B4FEF49
:103B0000441654066406740679F08F3F9F4FAF4FFA
:103B1000BF4F21F1F40184819581B301A201480FC7
:103B2000591F611D711D07C08F3F9F4FAF4FBF4F82
:103B3000A9F040E050E0BE016F5F7F4FCE010796D5
:103B40000E940512BE01695F7F4FC5010E94A91145
:103B5000CE0107960E94E21111E059C062EF71E0B8
:103B6000CE0107960E94F011BE01695F7F4FC5012B
:103B70000E9431114C01CE0107960E94E2112FEFF5
:103B800082169206A1F0940140E050E0BE016F5F02
:103B90007F4FCE0107960E940512BE01695F7F4FDD
:103BA000C5010E94A911CE0107960E94E21164EF9F
:103BB00071E0CE0107960E94F011BE01695F7F4F50
:103BC000C5010E9431114C01CE0107960E94E211FD
:103BD0004FEF84169406A1F0940140E050E0BE013E
:103BE0006F5F7F4FCE0107960E940512BE01695F8D
:103BF0007F4FC5010E94A911CE0107960E94E211D4
:103C0000BE016F5F7F4FC5010E94921110E0CE018F
:103C100001960E94E211812F62960FB6F894DEBFE2
:103C20000FBECDBFDF91CF911F910F91FF90EF900D
:103C3000DF90CF90BF90AF909F908F907F906F90CC
:103C40005F904F903F902F900895CF92DF92EF9228
:103C5000FF920F931F93CF93DF93CDB7DEB7669795
:103C60000FB6F894DEBF0FBECDBF6C017B016CEFC9
:103C700071E0CE0101962B8B3C8B4D8B5E8B0E94AD
:103C8000F011B701CE0107960E94E7112B893C89FC
:103C90004D895E8989019A01AE01495F5F4FB60186
:103CA000CE010D960E949E1BBE01635F7F4FCE0129
:103CB00001960E94A911CE010D960E94E211CE013B
:103CC00007960E94E211B701CE0101960E943111C0
:103CD0007C01CE0101960E94E21181E0EF20E09488
:103CE00009F480E066960FB6F894DEBF0FBECDBF34
:103CF000DF91CF911F910F91FF90EF90DF90CF90C8
:103D000008952F923F924F925F926F927F928F927F
:103D10009F92AF92BF92CF92DF92EF92FF920F935A
:103D20001F93CF93DF93EC011B014A015901270137
:103D300038016CEF71E00E94F0110E94921B6B0140
:103D40007C010E94921BDC01CB018C199D09AE09FC
:103D5000BF0984159505A605B705B8F5D1018D9164
:103D60009C91DC01ED91FC910480F581E02D099599
:103D70001816190634F7D1018D919C91DC01ED9153
:103D8000FC910680F781E02D0995882339F3682F8F
:103D9000CE010E944B11B401CE010E943111019657
:103DA000A1F4B501CE010E943111019671F4BE015A
:103DB000C1010E940014672B682B692B79F26CEF0C
:103DC00071E0CE010E947B11C9CFCE01DF91CF916E
:103DD0001F910F91FF90EF90DF90CF90BF90AF9029
:103DE0009F908F907F906F905F904F903F902F901B
:103DF0000895CF92DF92EF92FF920F931F93CF938C
:103E0000DF9300D000D000D0CDB7DEB78C016CEFCF
:103E100071E0CE0101960E94F0110E94921B6B018D
:103E20007C010E94921BAB01BC014C195D096E091B
:103E30007F094A3051056105710570F5D8018D91F2
:103E40009C91DC01ED91FC910480F581E02D0995B8
:103E5000892B39F3F80180819181DC01ED91FC918E
:103E60000680F781E02D09958823D9F2682FCE01CD
:103E700001960E944B11BE016F5F7F4FC8010E94E7
:103E80000014672B682B692B41F26CEF71E0CE01B7
:103E900001960E947B11C1CFCE0101960E94E211D2
:103EA00026960FB6F894DEBF0FBECDBFDF91CF913F
:103EB0001F910F91FF90EF90DF90CF9008950F9397
:103EC0001F93CF93DF93EC01462F50E060E070E04A
:103ED0002AE00E9492128C016AEF71E0CE010E94EA
:103EE0007D12800F911FDF91CF911F910F91089547
:103EF000CF92DF92EF92FF920F931F93CF93DF93B6
:103F0000CDB7DEB7A4970FB6F894DEBF0FBECDBF16
:103F10006C018B01BA01CE0149960E94E711B801EC
:103F2000CE014F960E94E7116CEF71E0CE014396EF
:103F30000E94F011C6010E94F91E68E472E0F601C9
:103F4000808191810E945912BE01615E7F4FF6010E
:103F5000808191810E944B1264E472E0F6018081BD
:103F600091810E945912BE01675E7F4FF6018081E8
:103F700091810E944B1262E472E0F601808191818E
:103F80000E94DB1267E372E0CE0107960E94F011F7
:103F900066EF71E0CE0101960E94F01110E1E12E72
:103FA00017E2F12E00E010E09E01295F3F4FAE01C5
:103FB0004F5F5F4FB601CE010D960E94811EBE017C
:103FC000635F7F4FCE0143960E94A911CE010D96EB
:103FD0000E94E211CE0101960E94E211CE010796E5
:103FE0000E94E21166EF71E0CE0101960E94F0118D
:103FF000BE016F5F7F4FCE0143960E9431116C016D
:10400000CE0101960E94E211CE0143960E94E21178
:10401000CE014F960E94E211CE0149960E94E21114
:1040200081E0CD20C09409F480E0A4960FB6F89406
:10403000DEBF0FBECDBFDF91CF911F910F91FF90DB
:10404000EF90DF90CF9008958F929F92AF92BF92A2
:10405000CF92DF92EF92FF920F931F93CF93DF9354
:10406000CDB7DEB7AA970FB6F894DEBF0FBECDBFAF
:104070008C0149015A01CE014F960E94E7116CE371
:1040800072E0CE0185960E94F0116CEF71E0CE01D6
:1040900049960E94F011C8010E94F91E65E372E082
:1040A000D8018D919C910E9459122AE041E050E084
:1040B00060E070E0F801808191810E94921262E3D9
:1040C00072E0D8018D919C910E945912BE016B5DE6
:1040D0007F4FF801808191810E944B126EE272E065
:1040E000D8018D919C910E945912BE01615E7F4F53
:1040F000F801808191810E944B126BE272E0D8013D
:104100008D919C910E945912F801E080F1802AE083
:10411000B501A401C7010E9492126AEF71E0C701C4
:104120000E947D1260E472E0CE010D960E94F011B3
:1041300060E572E0CE0107960E94F01166EF71E033
:10414000CE0101960E94F0116CEF71E0CE01439612
:104150000E94F0110E94921B6B017C010E94921B35
:10416000DC01CB018C199D09AE09BF098031974252
:10417000A105B105A0F1BE016D5E7F4FCE0149964C
:104180000E94A911CE0143960E94E211CE01019630
:104190000E94E211CE0107960E94E211CE010D9617
:1041A0000E94E21166EF71E0CE0107960E94F011C5
:1041B000BE01695F7F4FCE0149960E943111019681
:1041C00009F065C04EC0D8018D919C91DC01ED9144
:1041D000FC910680F781E02D099581110EC0D80170
:1041E0008D919C91DC01ED91FC910480F581E02D95
:1041F0000995181619063CF3B1CF682FCE014396E6
:104200000E944B11BE016F5F7F4FCE0143960E940B
:104210003111019609F0AFCFBE01695F7F4FCE012A
:1042200043960E943111019609F0A5CFBE01635F4C
:104230007F4FCE0143960E943111019609F09BCF2A
:10424000BE016D5E7F4FC8010E940014672B682B72
:10425000692B29F26CEF71E0CE0143960E947B112D
:10426000BECF60E472E0CE0101960E94F011BE0163
:104270006F5F7F4FCE0149960E94311111E0019688
:1042800009F410E0CE0101960E94E21101C011E094
:10429000CE0107960E94E211CE0149960E94E211DA
:1042A000CE0185960E94E211CE014F960E94E21146
:1042B000812FAA960FB6F894DEBF0FBECDBFDF9157
:1042C000CF911F910F91FF90EF90DF90CF90BF9013
:1042D000AF909F908F900895209132039091310379
:1042E000213208F04AC080910E038111FCCF32E0E8
:1042F00030930E0331E030930D033FEF30930C0306
:1043000010920B0320930A03A1E1B3E04AEE52E0BE
:10431000FA013E2F341B321718F43D913193F9CF37
:104320001092E9022091E902990F922B9093E902F1
:104330009091E802913061F41092E8029091E902C4
:104340009093BB009091BC0093FDF8CF95EC01C019
:1043500095EE9093BC0090910E039230E1F3909112
:104360000C039F3F79F080910C03803241F08091E3
:104370000C03803331F084E005C081E003C082E0AB
:1043800001C083E0109210031092320310920F03C9
:1043900008952F923F924F925F926F927F928F92E9
:1043A0009F92AF92BF92CF92DF92EF92FF920F93C4
:1043B0001F93CF93DF93CDB7DEB72E970FB6F89448
:1043C000DEBF0FBECDBF7C018DB79EB79A878987B0
:1043D00041155105C1F4D70156964D915C915797FF
:1043E0004115510581F480911F0690912006019698
:1043F00011F481E090E09093200680931F06409195
:104400001F0650912006D701ED91FC9111978281F2
:10441000882309F448C0862F8D7F41F0663031F043
:1044200058968D919C9159970197E9F52115310581
:1044300009F05BC1212C312CB5E02B0E311CEDB7FE
:10444000FEB7E219F3090FB6F894FEBF0FBEEDBF39
:104450008DB79EB7019698878F8361835427452730
:104460005427DC0112965C934E931197902F812F65
:1044700014969C938E93139721153105D9F5A12C91
:10448000B12CA214B30408F440C0A214B30409F47C
:10449000DCC0F701808191810E940E08D7015996F6
:1044A0001C921E92589709851A850FB6F8941EBF64
:1044B0000FBE0DBF09851A850FB6F8941EBF0FBE3B
:1044C0000DBF2E960FB6F894DEBF0FBECDBFDF91A5
:1044D000CF911F910F91FF90EF90DF90CF90BF9001
:1044E000AF909F908F907F906F905F904F903F9094
:1044F0002F9008950115110511F28DB79EB70696FC
:10450000A801B9010E94132FBACF81010A191B0912
:104510000832110510F008E210E0D701ED91FC918E
:10452000C080D1802801612C712CC6010E94F91E27
:104530006FE172E0F601808191810E9459122AE0B8
:1045400041E050E060E070E0D6018D919C910E94C6
:1045500092126DE172E0F601808191810E94591200
:10456000D6018D909C902AE0B301A201C4010E9463
:1045700092126AEF71E0C4010E947D1266E572E05A
:10458000CE0101960E94F01128E833E140E050E0AE
:10459000BE016F5F7F4FC6010E94251E982ECE017F
:1045A00001960E94E211911003C000E010E041C0AA
:1045B000C6010E94F91E8F8098848A0C9B1C20E003
:1045C00030E0A9012415350546055705D0F4F6015C
:1045D00080819181D4016D914D01DC01ED91FC91BF
:1045E0000190F081E02D2B873C874D875E870995F0
:1045F0002B853C854D855E852F5F3F4F4F4F5F4F2D
:10460000E1CF68E572E0CE0101960E94F01120E151
:1046100037E240E050E0BE016F5F7F4FC6010E946D
:10462000251ED82ECE0101960E94E211DD2009F44C
:10463000BCCF60E070E0CB010E94581B0115110552
:1046400009F427CFA00EB11E1CCF0E94921B4B0174
:104650005C01F70182899389A489B589AC01BD0108
:1046600025E076956795579547952A95D1F78C0162
:104670009D01041B150B260B370BB901A801828580
:104680009385A485B58595018401081B190B2A0B18
:104690003B0BD901C80135E0B695A795979587954D
:1046A0003A95D1F70097A105B10519F48FEF9FEF67
:1046B000DC01840F951FA61FB71FF701828B938B18
:1046C000A48BB58BC297A105B10548F48081918177
:1046D0000E940E08D70159961C921E925897F70116
:1046E00082869386A486B586DECE1801A5CEDC012F
:1046F000ED91FC91119701900020E9F7ED93FC9367
:104700000895CF93DF93CDB7DEB7A2970FB6F89495
:10471000DEBF0FBECDBF789484B5826084BD84B502
:10472000816084BD85B5826085BD85B5816085BDAC
:1047300080916E00816080936E0010928100809164
:1047400081008260809381008091810081608093EC
:104750008100809180008160809380008091B10011
:1047600084608093B1008091B00081608093B0003C
:1047700080917A00846080937A0080917A008260D0
:1047800080937A0080917A00816080937A00809192
:104790007A00806880937A001092C10062E0809174
:1047A0009B030E94A61A80E398EFAFEFBFEF8093C0
:1047B0009F039093A003A093A103B093A203E09161
:1047C0006404F091650482E08083E0916004F091DC
:1047D00061041082E0916204F09163048FEC8083A5
:1047E00010926C04E0916804F091690486E0808383
:1047F000E0916604F0916704808180618083E0919C
:104800006604F0916704808188608083E09166048B
:10481000F0916704808180688083E0916604F09164
:10482000670480818F7D80836AE070E080E090E0A3
:104830000E94581B809152049091530497FF21C00D
:104840000E94921B44E354E0E0EDF3E008EA13E039
:10485000DA011D92AD0111921192D8016D937D93F1
:104860008D939D938D019F01225B3F4FD9011D9236
:104870001C92B3E0E43EFB0759F7109253041092E8
:10488000520480915204909153040A970CF048C04E
:10489000E0EDF3E000E010E081919191892B31F09F
:1048A0000F5F1F4F0A301105B9F73AC0F801EE0F3C
:1048B000FF1FEE0FFF1FEC51FC4F88E293E2A0E0D8
:1048C000B0E080839183A283B383F801EE0FFF1FD2
:1048D000E053FC4F8FE299E091838083F801EE0F63
:1048E000FF1FE45FFB4F11821082F801EC5CFB4F6D
:1048F00081E080830E94921B000F111F000F111F87
:10490000F801E855FC4F6083718382839383809123
:10491000520490915304019690935304809352044F
:104920008FEB91E09093FA048093F90481EF94E087
:104930009093120580931105E091F704F091F8042B
:104940009183808380EE96E09093F4048093F30447
:10495000F093F604E093F504DF01A85FBE4F80EE0C
:1049600091E08D939C93E65FFE4F8AEF90E29183F6
:10497000808364EF71E080E090E00E94581B00911A
:10498000110510911205C8010E94F91E60E071E046
:10499000F801808191810E94591260E0D8018D91C7
:1049A0009C910E945F1F66EF71E0CE0101960E940C
:1049B000F01128EE33E040E050E0BE016F5F7F4F22
:1049C000C8010E94251E982ECE0101960E94E21178
:1049D000992009F4E9C1A0901105B09012056CEF7F
:1049E00071E0CE0149960E94F011C5010E94F91EA6
:1049F00068EB7BE080E090E00E94581B6FEC70E079
:104A0000F501808191810E94DB1262EF71E0CE019D
:104A100001960E94F01169EF71E0CE0107960E94A5
:104A2000F01166EF71E0CE010D960E94F01160E189
:104A3000C62E67E2D62EE12CF12C8E01075E1F4FA9
:104A40009E012F5F3F4FAE01495F5F4FBE01635F25
:104A50007F4FC5010E94211DCE010D960E94E211DB
:104A6000CE0107960E94E211CE0101960E94E2114A
:104A7000C0901105D09012056CEF71E0CE01439605
:104A80000E94F011C6010E94F91E66ED70E0D60189
:104A90008D919C910E94591261E0F6018081918173
:104AA0000E945F1F6DEF71E0CE0107960E94F0112A
:104AB00066EF71E0CE0101960E94F01118EEE12E32
:104AC00013E0F12E00E010E09E01295F3F4FAE01A0
:104AD0004F5F5F4FB601CE010D960E94811EBE0151
:104AE000635F7F4FCE0143960E94A911CE010D96C0
:104AF0000E94E211CE0101960E94E211CE010796BA
:104B00000E94E21166EF71E0CE0101960E94F01161
:104B1000CE0101960E94E211CE0143960E94E2115D
:104B2000A0901105B09012056CEF71E0CE01439694
:104B30000E94F011C5010E94F91E6CEE70E0D501D3
:104B40008D919C910E94DB1262EF71E0CE010D9677
:104B50000E94F0116DE072E0CE0107960E94F01104
:104B600066EF71E0CE0101960E94F011E8EECE2EC4
:104B7000E3E0DE2EE12CF12C8E010D5E1F4F9E0135
:104B8000235F3F4FAE01495F5F4FBE016F5F7F4FB5
:104B9000C5010E94211D182FCE0101960E94E2112D
:104BA000CE0107960E94E211CE010D960E94E211FD
:104BB000112331F0CE0143960E942611862E01C0AA
:104BC000912CCE0143960E94E211992009F4E8C08D
:104BD000B1E08B1609F476C06CEF71E0CE0143961C
:104BE0000E94F011C5010E94F91E61EE70E0F5010E
:104BF000808191810E94591261E0D5018D919C9133
:104C00000E945F1F6FE072E0CE0107960E94F011D4
:104C100066EF71E0CE010D960E94F01118EEE12EC4
:104C200013E0F12E00E010E09E01295F3F4FAE013E
:104C3000435F5F4FB501CE0101960E94811EBE0108
:104C40006F5F7F4FCE0143960E94A911CE0101965E
:104C50000E94E211CE010D960E94E211CE0107964C
:104C60000E94E21166EF71E0CE0101960E94F01100
:104C7000BE016F5F7F4FCE0143960E9431110196B6
:104C8000B1F46FE072E0CE0107960E94F011BE0110
:104C9000695F7F4FCE0143960E943111992493940E
:104CA000019609F4912CCE0107960E94E211CE01E3
:104CB00001960E94E211CE0143960E94E2119920D2
:104CC00009F46EC069E172E0CE0101960E94F01114
:104CD00069E172E0CE0107960E94F011AE014F5FCC
:104CE0005F4FBE01695F7F4F809111059091120562
:104CF0000E94781F182FCE0107960E94E211CE0164
:104D000001960E94E211112309F44AC0A0901105F6
:104D1000B09012056CEF71E0CE0143960E94F01145
:104D2000C5010E94F91E67EF70E0D5018D919C913D
:104D30000E94DB1262EF71E0CE0101960E94F01139
:104D400069EF71E0CE0107960E94F01166EF71E005
:104D5000CE010D960E94F01148EEC42E43E0D42EF1
:104D6000E12CF12C8E010D5E1F4F9E012F5F3F4FF6
:104D7000AE01495F5F4FBE01635F7F4FC5010E9477
:104D8000211DCE010D960E94E211CE0107960E94D0
:104D9000E211CE0101960E94E211C8010E94E211C7
:104DA000CE0149960E94E2118091F7049091F80497
:104DB0000E940E081092100510920F050E94921B7F
:104DC0006B017C0180910F0590911005019791F086
:104DD0000E94921BDC01CB018C199D09AE09BF0911
:104DE00080379741A105B10528F487EF94E00E9430
:104DF000470DE8CF80910F05909110050197A1F61E
:104E000010926902109268021092100310923203FD
:104E100010920E0311E010930D031092E80261E06E
:104E200082E10E94761A61E083E10E94761A809105
:104E3000B9008E7F8093B9008091B9008D7F8093F7
:104E4000B90088E48093B80085E48093BC00CE016B
:104E500001960E94551C1093740260E08BE00E9442
:104E6000761A60E08AE00E94761A60E085E00E948F
:104E7000761A60E086E00E94761A60E089E00E947F
:104E8000761AC12CD12C38ECE32E32E4F32E85E8CF
:104E900093E00E94F01481E493E00E94F01483E612
:104EA00093E00E94F01482E593E00E94F01484E7FE
:104EB00093E00E94F01487EF94E00E94470D0E9457
:104EC000921B28EA33E03AA329A320E2222E24E011
:104ED000322EF10118A21F8E178E168E9F012055BB
:104EE0003109D9012D913C91232B09F449C0A9A185
:104EF000BAA18D909D90AD90BC901397DC960D91CA
:104F00001D912D913C91DF972B013C0148185908C8
:104F10006A087B08401651066206730688F1080D80
:104F2000191D2A1D3B1D0D931D932D933C93139723
:104F30002F8D38A12C5C3B4FD9012C91222301F1FC
:104F40009F0124513109D9012D913C912115310541
:104F500019F421E030E012C040815181421753071B
:104F60007CF4A1E0B0E0B78FA68F4F5F5F4F518315
:104F700040834217530724F022E030E0378F268F1A
:104F8000AF8DB8A11196B8A3AF8F29A13AA12C5F1C
:104F90003F4F3AA329A332961A9709F09DCF80ED8F
:104FA000A82E83E0B82E04EE13E0812C912CD101C1
:104FB0005E968D919C915F978130910519F00297D3
:104FC00031F02BC0D501ED91FC91099526C0D5019A
:104FD000ED91FC91099580915204909153040097B2
:104FE000E1F0F50120813181232BB9F0118210828B
:104FF000F401EC5CFB4F1082D1015F961C921E9273
:105000005E97F80110821182128213821D921C9207
:1050100001979093530480935204FFEF8F1A9F0AD5
:1050200022E0A20EB11C0C5F1F4F32E0230E311C98
:105030008AE08816910409F0BACF80917402813019
:1050400009F04EC2109275024091700250917102A7
:1050500060917202709173020091240110912501F8
:1050600020912601309127014017510762077307ED
:105070000CF460C0009120011091210120912201C7
:105080003091230140175107620773070CF052C09B
:1050900080936F0285E893E00E94A11581110AC0F8
:1050A00040911C0150911D0160916E0285E893E0D2
:1050B0000E94AC1584E793E00E94A11581110AC0FB
:1050C00040911C0150911D0160911B0184E793E008
:1050D0000E94AC1583E693E00E94A11581110AC0DD
:1050E00040911C0150911D0160911A0183E693E0EB
:1050F0000E94AC1582E593E00E94A11581110AC0BF
:1051000040911C0150911D016091190182E593E0CD
:105110000E94AC1581E493E00E94A11581110AC0A0
:1051200040911C0150911D0160916D0281E493E05A
:105130000E94AC158091700290917102A091720250
:10514000B0917302409120015091210160912201A0
:105150007091230184179507A607B7070CF461C067
:10516000409115015091160160911701709118013D
:1051700084179507A607B7070CF053C082E0809309
:105180006F0285E893E00E94A11581110AC0409149
:105190001C0150911D016091140185E893E00E946B
:1051A000AC1584E793E00E94A11581110AC04091DB
:1051B0001C0150911D016091130184E793E00E944E
:1051C000AC1583E693E00E94A11581110AC04091BD
:1051D0001C0150911D016091120183E693E00E9431
:1051E000AC1582E593E00E94A11581110AC040919F
:1051F0001C0150911D016091110182E593E00E9414
:10520000AC1581E493E00E94A11581110AC0409180
:105210001C0150911D0160916C0281E493E00E9499
:10522000AC158091700290917102A0917202B091C0
:105230007302409115015091160160911701709110
:10524000180184179507A607B7070CF461C04091B1
:105250000D0150910E0160910F01709110018417A2
:105260009507A607B7070CF053C0A3E0A0936F0201
:1052700085E893E00E94A11581110AC040911C01AC
:1052800050911D0160910C0185E893E00E94AC15DE
:1052900084E793E00E94A11581110AC040911C018E
:1052A00050911D0160910B0184E793E00E94AC15C1
:1052B00083E693E00E94A11581110AC040911C0170
:1052C00050911D0160910A0183E693E00E94AC15A4
:1052D00082E593E00E94A11581110AC040911C0152
:1052E00050911D0160916B0282E593E00E94AC1524
:1052F00081E493E00E94A11581110AC040911C0134
:1053000050911D0160916A0281E493E00E94AC1506
:105310008091700290917102A0917202B09173021B
:1053200040910D0150910E0160910F01709110019B
:1053300084179507A607B7070CF461C040910601D2
:105340005091070160910801709109018417950738
:10535000A607B7070CF053C0B4E0B0936F0285E81E
:1053600093E00E94A11581110AC040911C01509147
:105370001D016091050185E893E00E94AC1584E76A
:1053800093E00E94A11581110AC040911C01509127
:105390001D016091040184E793E00E94AC1583E64F
:1053A00093E00E94A11581110AC040911C01509107
:1053B0001D016091030183E693E00E94AC1582E534
:1053C00093E00E94A11581110AC040911C015091E7
:1053D0001D016091020182E593E00E94AC1581E419
:1053E00093E00E94A11581110AC040911C015091C7
:1053F0001D016091010181E493E00E94AC15809150
:10540000700290917102A0917202B091730240916A
:1054100006015091070160910801709109018417FC
:105420009507A607B70774F4409124015091250110
:10543000609126017091270184179507A607B70789
:105440000CF04EC0E5E0E0936F0285E893E00E9427
:10545000A115811109C040911C0150911D0160E00E
:1054600085E893E00E94AC1584E793E00E94A115C3
:10547000811109C040911C0150911D0160E084E739
:1054800093E00E94AC1583E693E00E94A115811180
:1054900009C040911C0150911D0160E083E693E03A
:1054A0000E94AC1582E593E00E94A115811109C00C
:1054B00040911C0150911D0160E082E593E00E9443
:1054C000AC1581E493E00E94A115811109C04091BF
:1054D0001C0150911D0160E081E493E00E94AC1535
:1054E00080917402811184C08091750281113FC046
:1054F000C0929003D0929103E0929203F0929303B2
:1055000010928F0310928E03C0927F03D09280037B
:10551000E0928103F092820310927E0310927D0349
:10552000C0926E03D0926F03E0927003F092710309
:1055300010926D0310926C03C0925D03D0925E03D3
:10554000E0925F03F092600310925C0310925B03A1
:10555000C0924C03D0924D03E0924E03F0924F0361
:1055600010924B0310924A0381E08093750285E804
:1055700093E00E94A115811107C040ED57E060E063
:1055800085E893E00E94AC1584E793E00E94A115A2
:10559000811107C040ED57E060E084E793E00E948E
:1055A000AC1583E693E00E94A115811107C040ED80
:1055B00057E060E083E693E00E94AC1582E593E05B
:1055C0000E94A115811107C040ED57E060E082E51F
:1055D00093E00E94AC1581E493E00E94A115811133
:1055E00007C040ED57E060E081E493E00E94AC1515
:1055F0000E9460194CCCEF92FF920F931F93CF93B0
:10560000DF93CDB7DEB7C656D1090FB6F894DEBF2B
:105610000FBECDBF7C0146E650E062EA71E0CE01EC
:1056200001960E94F23006E610E09E012F5F3F4F88
:1056300040E050E061E1C7010E94C921CA59DF4F33
:105640000FB6F894DEBF0FBECDBFDF91CF911F9193
:105650000F91FF90EF900895CF93DF93E4E5F4E08E
:105660001382128248EE53E060E070E04483558379
:105670006683778382E391E09183808385EC90E079
:105680009587848784EC90E09787868780EC90E00C
:10569000918B808B81EC90E0938B828B82EC90E0FD
:1056A000958B848B86EC90E0978B868B118E128E77
:1056B000138E148EA3E3B3E013961C921E921297DE
:1056C00014964D935D936D937C93179782E491E0CC
:1056D0008D939C93C3E1D5E0198218821A821092AF
:1056E00017061092160610921906109218061092BC
:1056F0001A0610921C0610921B0610921E0610929B
:105700001D06A7EFB4E01196DC93CE9313961C927E
:105710001E92129715961C921E92149716961D9221
:105720001D921D921C9219971A961D921D921D9200
:105730001C921D971E961D921D921D921C925197B0
:1057400052961D921D921D921C92559757961C922F
:105750001E92569759961C921E9258975B961C92D1
:105760001E925A97A1EFB4E01196FC93EE93139614
:105770001C921E92129715961C921E9214978FEFF0
:105780009FEF9093530480935204A6E9B3E082E024
:1057900015968C93159786E116968C931697E9E6E5
:1057A000F2E0E4911796EC931797E5E5F2E0E491C7
:1057B0001896EC93189740E85EE360E070E01D9661
:1057C0004D935D936D937C935097E5E8F3E08BE008
:1057D00080831782108611821282138214821682AD
:1057E0001582128611861386148615861686108AEF
:1057F0001786E4E7F3E08AE080831782108611823F
:1058000012821382148216821582128611861386E2
:10581000148615861686108A1786E3E6F3E085E07F
:10582000808317821086118212821382148216825C
:105830001582128611861386148615861686108A9E
:105840001786E2E5F3E086E08083178210861182F6
:105850001282138214821682158212861186138692
:10586000148615861686108A1786E1E4F3E089E02F
:10587000808317821086118212821382148216820C
:105880001582128611861386148615861686108A4E
:1058900017868EE090E09093400380933F03DF9162
:1058A000CF910895991B79E004C0991F961708F0CD
:1058B000961B881F7A95C9F780950895A1E21A2E44
:1058C000AA1BBB1BFD010DC0AA1FBB1FEE1FFF1FA4
:1058D000A217B307E407F50720F0A21BB30BE40BF4
:1058E000F50B661F771F881F991F1A9469F760953B
:1058F0007095809590959B01AC01BD01CF010895F5
:10590000052E97FB1EF400940E94972C57FD07D09C
:105910000E945E2C07FC03D04EF40C94972C5095FB
:105920004095309521953F4F4F4F5F4F089590958B
:105930008095709561957F4F8F4F9F4F0895EE0F23
:10594000FF1F0590F491E02D09945058BB27AA271A
:105950000E94BD2C0C94CE340E94C03438F00E94BA
:10596000C73420F039F49F3F19F426F40C94BD3469
:105970000EF4E095E7FB0C94B734E92F0E94DF3476
:1059800058F3BA17620773078407950720F079F474
:10599000A6F50C9401350EF4E0950B2EBA2FA02D30
:1059A0000B01B90190010C01CA01A0011124FF27CC
:1059B000591B99F0593F50F4503E68F11A16F040C7
:1059C000A22F232F342F4427585FF3CF46953795C6
:1059D0002795A795F0405395C9F77EF41F16BA0B8B
:1059E000620B730B840BBAF09150A1F0FF0FBB1F39
:1059F000661F771F881FC2F70EC0BA0F621F731F82
:105A0000841F48F4879577956795B795F7959E3FDE
:105A100008F0B0CF9395880F08F09927EE0F97956F
:105A2000879508950E94262D0C94CE340E94C73489
:105A300058F00E94C03440F029F45F3F29F00C94E4
:105A4000B73451110C9402350C94BD340E94DF34EC
:105A500068F39923B1F3552391F3951B550BBB279D
:105A6000AA2762177307840738F09F5F5F4F220FE2
:105A7000331F441FAA1FA9F335D00E2E3AF0E0E8D9
:105A800032D091505040E695001CCAF72BD0FE2F23
:105A900029D0660F771F881FBB1F261737074807B7
:105AA000AB07B0E809F0BB0B802DBF01FF2793586F
:105AB0005F4F3AF09E3F510578F00C94B7340C9448
:105AC00002355F3FE4F3983ED4F38695779567956A
:105AD000B795F7959F5FC9F7880F911D96958795A4
