:100000000C94BC010C94E4010C94E4010C94621671
:100010000C9462160C9462160C94E4010C94E401A6
:100020000C94E4010C94E4010C94E4010C94E401BC
:100030000C94E4010C94E4010C94E4010C94E401AC
:100040000C94401C0C94E4010C94C6190C946A0B9B
:100050000C94E4010C94E4010C94E4010C94E4018C
:100060000C946C160C94E40108000000BE92244924
:10007000123EABAAAA2ABECDCCCC4C3E00000080DA
:10008000BEABAAAAAA3E00000000BF000000803F4D
:100090000000000000084178D3BB4387D1133D190D
:1000A0000E3CC3BD4282AD2B3E68EC8276BED98F3A
:1000B000E1A93E4C80EFFFBE01C4FF7F3F0000007E
:1000C000000041542B434950434C4F53453D0041A0
:1000D000542B474D520041542B4349504D55583DE8
:1000E0000041542B43574D4F44453D0041542B4351
:1000F000574D4F44453F0041542B4349465352000E
:1001000041544500000000080002010000030407FC
:100110000000000000000000001300130013001393
:100120000013001300130013001300130013001337
:100130000013001300130013001300130013001327
:100140000013001300130013001300130013001317
:1001500000130013001300131B04DD039F03770635
:10016000FF12FF12FF1261032303E50269065B061B
:10017000B2050B05FF12FF12CF02E6010214F413C1
:10018000E613FF12FF12FF12FF12FF12FF12FF12FF
:10019000FF12FF12FF12FF120000000023002600D2
:1001A000290076657200302E342E3200682D62658B
:1001B000617400313000627566662D696E003235FB
:1001C00036006465760041726475696E6F20556E05
:1001D0006F006370750041546D656761333238504C
:1001E00000636F6E004553503832363600627569D1
:1001F0006C64004465632032352032303136203261
:10020000313A30363A333100000000000024002734
:10021000002A0000000000250028002B002C0041CF
:10022000542B43495053454E443D00222C00222C70
:1002300022002C220041542B434950535441525424
:100240003D002200222C220041542B43574A4150AA
:100250003D22000404040404040404020202020215
:10026000020303030303030102040810204080017A
:10027000020408102001020408102000407A10F344
:100280005A00A0724E18090010A5D4E80000E876C4
:1002900048170000E40B54020000CA9A3B0000001B
:1002A000E1F505000080969800000040420F000034
:1002B00000A08601000000102700000000E80300F5
:1002C0000000006400000000000A000000000001BF
:1002D00000000000002C76D888DC674F0823DFC1BF
:1002E000DFAE59E1B1B796E5E3E453C63AE651997A
:1002F0007696E8E6C28426EB898C9B62ED407C6FA3
:10030000FCEFBC9C9F40F2BAA56FA5F490055A2A59
:10031000F75C936B6CF9676DC11BFCE0E40D47FE65
:10032000F520E6B500D0ED902E030094357705005A
:1003300080841E080000204E0A000000C80C3333E1
:1003400033330F986E12831141EF8D2114893BE6F0
:100350005516CFFEE6DB18D1844B381BF77C1D9079
:100360001DA4BBE424203284725E228100C9F124E2
:10037000ECA1E53D2700E32B11241FBECFEFD8E011
:10038000DEBFCDBF12E0A0E0B1E0E2E6FCE602C0D5
:1003900005900D92A637B107D9F726E0A6E7B2E09F
:1003A00001C01D92AF34B207E1F711E0CCEBD1E010
:1003B00004C02197FE010E946A2DCB3BD107C9F7EB
:1003C0000E94B6230C942F360C9400008091850275
:1003D000833009F47CC048F5813009F455C082307F
:1003E00009F0C1C04091130161E070E081E295E045
:1003F0000E94E3184091140162E070E081E295E010
:100400000E94E3184091120167E070E081E295E0FC
:100410000E94E3184091110168E070E081E295E0EC
:100420000E94E3184091820274C0843009F478C0BD
:10043000853009F098C040E050E061E070E081E272
:1004400095E00E94821840E050E062E070E081E2B6
:1004500095E00E94821840E050E067E070E081E2A1
:1004600095E00E94821840E050E068E070E081E290
:1004700095E00E94821840E050E069E070E081E27F
:1004800095E00E9482186FC040911B0161E070E00E
:1004900081E295E00E94E3184091840262E070E0FE
:1004A00081E295E00E94E31840911A0167E070E054
:1004B00081E295E00E94E3184091190168E070E044
:1004C00081E295E00E94E3184091830222C04091AE
:1004D0000B0161E070E081E295E00E94E318409139
:1004E0000C0162E070E081E295E00E94E318409127
:1004F0000A0167E070E081E295E00E94E318409114
:10050000810268E070E081E295E00E94E31840918A
:10051000800269E070E081E295E00E94E31823C068
:100520004091040161E070E081E295E00E94E318EF
:100530004091050162E070E081E295E00E94E318DD
:100540004091030167E070E081E295E00E94E318CA
:100550004091020168E070E081E295E00E94E318BA
:1005600040910101D6CF60911C0170911D018091D5
:100570001E0190911F0120E737E140E050E00E940A
:100580004B2D60E170E081E295E00E9412184091ED
:100590008A0260E070E081E295E00C94E318FB01D0
:1005A000808191810E94783180930001282F30E072
:1005B000A0E7B7E10E94203660931C0170931D01F3
:1005C00080931E0190931F010895FB0180E090E04D
:1005D000A8ECB2E48093660390936703A09368034A
:1005E000B093690310926203109263031092640344
:1005F0001092650380918502823081F018F4813079
:1006000031F00895833089F08430B1F0089580810D
:1006100091810E9478318093830208958081918135
:100620000E947831809382020895808191810E9496
:100630007831809380020895808191810E94783181
:10064000809301010895FB0180E090E0A8ECB2E402
:1006500080937B0390937C03A0937D03B0937E03F0
:1006600010927703109278031092790310927A0314
:1006700080918502823081F018F4813031F0089544
:10068000833089F08430B1F00895808191810E9497
:100690007831809319010895808191810E94783189
:1006A000809311010895808191810E947831809317
:1006B00081020895808191810E94783180930201A6
:1006C0000895FB0180E090E0A8ECB2E480939003F1
:1006D00090939103A0939203B093930310928C0391
:1006E00010928D0310928E0310928F0380918502D9
:1006F000823081F018F4813031F00895833089F030
:100700008430B1F00895808191810E947831809386
:100710001A010895808191810E947831809312019D
:100720000895808191810E94783180930A01089513
:10073000808191810E947831809303010895FB01AB
:1007400080E090E0A8ECB2E48093BA039093BB03FE
:10075000A093BC03B093BD031092B6031092B703ED
:100760001092B8031092B90380918502823081F013
:1007700018F4813031F00895833089F08430B1F07D
:100780000895808191810E94783180938402089538
:10079000808191810E947831809314010895808135
:1007A00091810E94783180930C010895808191811C
:1007B0000E947831809305010895FB0180E090E06C
:1007C000A8ECB2E48093A5039093A603A093A7039B
:1007D000B093A8031092A1031092A2031092A30356
:1007E0001092A40380918502823081F018F4813048
:1007F00031F00895833089F08430B1F0089580811C
:1008000091810E94783180931B01089580819181AC
:100810000E947831809313010895808191810E9414
:10082000783180930B010895808191810E94783105
:10083000809304010895FB01808191810E947831A9
:1008400080938A0280918502833009F47CC048F548
:10085000813009F455C0823009F0C1C040911301C4
:1008600061E070E081E295E00E94E318409114019C
:1008700062E070E081E295E00E94E318409112018D
:1008800067E070E081E295E00E94E3184091110179
:1008900068E070E081E295E00E94E31840918202F6
:1008A00074C0843009F478C0853009F098C040E005
:1008B00050E061E070E081E295E00E94821840E043
:1008C00050E062E070E081E295E00E94821840E032
:1008D00050E067E070E081E295E00E94821840E01D
:1008E00050E068E070E081E295E00E94821840E00C
:1008F00050E069E070E081E295E00E9482186FC0EC
:1009000040911B0161E070E081E295E00E94E318F4
:100910004091840262E070E081E295E00E94E31879
:1009200040911A0167E070E081E295E00E94E318CF
:100930004091190168E070E081E295E00E94E318BF
:100940004091830222C040910B0161E070E081E29E
:1009500095E00E94E31840910C0162E070E081E2B2
:1009600095E00E94E31840910A0167E070E081E29F
:1009700095E00E94E3184091810268E070E081E216
:1009800095E00E94E3184091800269E070E081E206
:1009900095E00E94E31823C04091040161E070E0FB
:1009A00081E295E00E94E3184091050162E070E069
:1009B00081E295E00E94E3184091030167E070E056
:1009C00081E295E00E94E3184091020168E070E046
:1009D00081E295E00E94E31840910101D6CF609139
:1009E0001C0170911D0180911E0190911F0120E753
:1009F00037E140E050E00E944B2D60E170E081E281
:100A000095E00E94121840918A0260E070E081E255
:100A100095E00C94E318FB01808191810E9478316C
:100A200080937D02813009F09CC080E090E00E94BC
:100A3000101880931B0181E090E00E9410188093B1
:100A4000130182E090E00E94101880930B0183E074
:100A500090E00E9410188093040184E090E00E94CE
:100A600010188093840285E090E00E941018809313
:100A7000140186E090E00E94101880930C0187E03A
:100A800090E00E9410188093050188E090E00E9499
:100A9000101880931A0189E090E00E94101880934A
:100AA00012018AE090E00E94101880930A018BE006
:100AB00090E00E941018809303018CE090E00E9467
:100AC0001018809319018DE090E00E941018809317
:100AD00011018EE090E00E941018809381028FE057
:100AE00090E00E9410188093020180E190E00E9443
:100AF00010188093830281E190E00E941018809387
:100B0000820282E190E00E9410188093800283E1CB
:100B100090E00E9410188093010164E271E084E18A
:100B200090E00E94CE1760E271E088E190E00E94C0
:100B3000CE1765E171E08CE190E00E94CE176DE088
:100B400071E080E290E00E94CE1766E071E084E2FE
:100B500090E00E94CE176CE171E088E290E00C9486
:100B6000CE170895FB01808191810E947831809396
:100B70007C02813009F09EC060911B0180E090E012
:100B80000E94F4176091130181E090E00E94F41735
:100B900060910B0182E090E00E94F41760910401E3
:100BA00083E090E00E94F4176091840284E090E07A
:100BB0000E94F4176091140185E090E00E94F41700
:100BC00060910C0186E090E00E94F41760910501AD
:100BD00087E090E00E94F41760911A0188E090E0AD
:100BE0000E94F4176091120189E090E00E94F417CE
:100BF00060910A018AE090E00E94F417609103017D
:100C00008BE090E00E94F417609119018CE090E075
:100C10000E94F417609111018DE090E00E94F4179A
:100C2000609181028EE090E00E94F41760910201D1
:100C30008FE090E00E94F4176091830280E190E0E1
:100C40000E94F4176091820281E190E00E94F41703
:100C50006091800282E190E00E94F41760910101AE
:100C600083E190E00E94F41764E271E084E190E097
:100C70000E949A1760E271E088E190E00E949A1762
:100C800065E171E08CE190E00E949A176DE071E0FF
:100C900080E290E00E949A1766E071E084E290E0C2
:100CA0000E949A176CE171E088E290E00E949A1726
:100CB00010927C020895FB01808191810E949631FF
:100CC000609320017093210180932201909323016E
:100CD0000895FB01808191810E94963160932401E7
:100CE0007093250180932601909327010895CF9258
:100CF000DF92EF92FF920F931F93CF93DF93FB014D
:100D0000808191810E9496316B017C016093780211
:100D10007093790280937A0290937B0220E13EE007
:100D200040E050E00E944B2DD22F20937702C70164
:100D3000B6012CE330E040E050E00E944B2DC22F82
:100D4000FCE3DF9FC0191124C093760281E08093F9
:100D5000250388E6809347031092260310924803E8
:100D600060E089E493E00E948F1360E089E493E0FF
:100D70000E948F131AE08C2F612F0E941D2D982F37
:100D8000880F980F990F692F6C0F89E493E00E94E8
:100D90008F138D2F612F0E941D2D682F660F680FF6
:100DA000660F6D0F89E493E00E948F1360E089E481
:100DB00093E00E948F1361E189E493E00E948F1316
:100DC00064E089E493E00E948F1366E189E493E094
:100DD0000E948F13DF91CF911F910F91FF90EF90A1
:100DE000DF90CF900C94A1212F923F924F925F926F
:100DF0006F927F928F929F92AF92BF92CF92DF922B
:100E0000EF92FF920F931F93CF93DF9300D01F9227
:100E1000CDB7DEB72A013B018901813009F078C0E6
:100E2000690123E0C20ED11C78018BEFE81A8EEF26
:100E3000F80AD801AD5FBE4FBB83AA834801B9EF62
:100E40008B1ABEEF9B0A411451046104710409F42A
:100E50005FC0D801ED91FC9180819181DC01ED9121
:100E6000FC910480F581E02D0995892B61F3D8016F
:100E7000ED91FC9180819181DC01ED91FC910680E6
:100E8000F781E02D0995382E8983C6010E944A1901
:100E900081159140B9F1F701808191812224239439
:100EA0008115F1E09F0709F4212CA22CB12CA5019A
:100EB000BE016F5F7F4F8C0D9D1D0E94DE2FD701FD
:100EC0008D919C911197A80EB91EBB24AD92BC9236
:100ED00021100BC0F801EA0DFB1D3382BFEFAB1AE6
:100EE000BB0ABB24F701B182A082AA81BB812D91EC
:100EF0003C91F701808191812817390719F4E1E0CD
:100F0000D401EC93F1E04F1A5108610871089BCFAE
:100F10000F900F900F90DF91CF911F910F91FF9045
:100F2000EF90DF90CF90BF90AF909F908F907F9089
:100F30006F905F904F903F902F9008954F925F92E7
:100F40006F927F928F929F92AF92BF92CF92DF92D9
:100F5000EF92FF920F931F93CF93DF93EC015B010E
:100F60007A010E94C71B2B013C016E0123E0C20ED7
:100F7000D11CC6010E944A198E159F0590F40E944B
:100F8000C71BDC01CB0184199509A609B7098C3D63
:100F90009540A105B10528F4888199810E942E1FF2
:100FA000E8CFC6010E944A198C01E816F90608F438
:100FB000870101151105A1F1FE01E95FFE4F1082C5
:100FC000CD5FDE4F6881798180E091E0861B970BD1
:100FD00078018017910708F47C016C0D7D1DA70135
:100FE000C5010E94DE2F288139812E0D3F1D332738
:100FF00039832883E016F10698F448018E189F087B
:10100000B601620F731FA401C5018E0D9F1D0E94C2
:10101000DE2F88819981880E991E99249982888271
:10102000C801DF91CF911F910F91FF90EF90DF905A
:10103000CF90BF90AF909F908F907F906F905F9078
:101040004F900895CF92DF92EF92FF920F931F93EC
:10105000CF93DF93CDB7DEB768970FB6F894DEBFB6
:101060000FBECDBFFC011282ED5FFE4F11821082D8
:1010700032961182108232961082FC01C080D1809B
:101080006CEF71E0CE0143960E940012C6010E94EF
:101090002E1F62EC70E0F601808191810E9469123E
:1010A00061E0F601808191810E94941F6EE471E0FD
:1010B000CE0107960E94001266EF71E0CE01019604
:1010C0000E94001218E8E12E13E1F12E00E010E07A
:1010D0009E01295F3F4FAE014F5F5F4FB601CE01CA
:1010E0000D960E94B61EBE01635F7F4FCE014396F0
:1010F0000E94B911CE010D960E94F211CE01019607
:101100000E94F211CE0107960E94F21166EF71E083
:10111000CE0107960E940012BE01695F7F4FCE018B
:1011200043960E944111019651F46EE471E0CE01A4
:1011300001960E940012CE0101960E94F211CE018A
:1011400007960E94F211CE0143960E94F211689612
:101150000FB6F894DEBF0FBECDBFDF91CF911F91C8
:101160000F91FF90EF90DF90CF900895EF92FF9254
:101170000F931F93CF93DF9300D000D000D0CDB753
:10118000DEB7FC01E85FFE4F60817181611571057A
:10119000F9F03296E080F180E114F104C9F08C019D
:1011A000CE0101960E940012970140E050E0BE017E
:1011B0006F5F7F4FF801808191810E945920F80173
:1011C0008283CE0101960E94F211F801828101C052
:1011D00080E026960FB6F894DEBF0FBECDBFDF913C
:1011E000CF911F910F91FF90EF9008950F931F9350
:1011F000CF93DF93EC01FB0101900020E9F78F0111
:10120000061B170B8A819B81A801480F591F2C814F
:101210003D812417350768F028813981A801820FA4
:10122000931F0E94DE2F4A815B81400F511F5B8319
:101230004A83DF91CF911F910F9108950F931F93D0
:10124000CF93DF93CDB7DEB762970FB6F894DEBFCA
:101250000FBECDBF8C01CB014AE0BE016F5F7F4F57
:101260000E94C631BE016F5F7F4FC8010E94F60821
:1012700062960FB6F894DEBF0FBECDBFDF91CF915F
:101280001F910F9108954F925F926F927F928F926C
:101290009F92AF92BF92CF92DF92EF92FF920F9305
:1012A0001F93CF93DF93CDB7DEB7CD5AD1090FB6D9
:1012B000F894DEBF0FBECDBFCE0188559F4F0E9470
:1012C0008A1C809155030E94761B9C01990F440B48
:1012D000550B60E070E48CE990E00E944B2DCA0150
:1012E000B90160517742810991090E94B6340E9488
:1012F000922E6B017C0123E73FE745E759E30E940B
:1013000015352BEE3FEF43E95AE30E94712D4B0157
:101310005C0129E537E44CEB53E3C701B6010E94B9
:101320001535A70196010E941535A70196010E9467
:1013300015359B01AC01C501B4010E94712D9B01C3
:10134000AC0160E070E080E89FE30E94DD2D23E3C4
:1013500033E54CE853E40E94702D6B017C010E9440
:10136000640C8823D1F18091C6038B3029F0A8F159
:101370008551823048F031C06091C20370E080E056
:1013800090E00E94B4342DC01091C203612F6F779A
:1013900070E080E090E00E94B63420E030E040E869
:1013A00053E40E9415354B015C018091C303682F03
:1013B00070E080E090E00E94B6349B01AC01C50172
:1013C000B4010E94712D2DEC3CEC4CEC5DE30E94CD
:1013D000153517FF06C0905804C060E070E080EC3F
:1013E0009FE70E94562EB62E0E94640C8823A1F11E
:1013F0008091C6038B3041F178F18551823060F5E0
:101400006091C00370E080E090E00E94B43420E07E
:1014100030E040E853E40E9415352B013C018091F7
:10142000C103682F70E080E090E00E94B6349B0119
:10143000AC01C301B2010E94712D2DEC3CEC4CECCF
:101440005DE30E9415350CC06091C00370E080E040
:1014500090E00E94B43404C060E070E080EC9FE74C
:101460000E94562EA62E20E030E04CE052E4C70148
:10147000B6010E94852E9E012F5F3F4F490118162D
:10148000BCF5CF57DF4F39832883C158D040CD57A3
:10149000DF4F19821882C358D04080E890E0CB57C4
:1014A000DF4F99838883C558D0406AE571E0CE014B
:1014B0008F579F4F0E94F60861E771E0CE018F576A
:1014C0009F4F0E94F608CD57DF4F08811981C358FE
:1014D000D04001501109CF57DF4F28813981C158C1
:1014E000D04040E050E06DE081E295E00E94FE21B6
:1014F00020E030E040EB51E4C701B6010E94AF3478
:1015000087FF37C0CF57DF4F99828882C158D040BC
:10151000CD57DF4F19821882C358D04080E890E041
:10152000CB57DF4F99838883C558D0406AE571E077
:10153000CE018F579F4F0E94F60867E971E0CE01F8
:101540008F579F4F0E94F608CD57DF4F08811981B2
:10155000C358D04001501109CF57DF4F288139813E
:10156000C158D04040E050E06DE081E295E00E943B
:10157000FE21CE55DF4F99828882C25AD040CC5589
:10158000DF4F19821882C45AD04080E890E0CA55D3
:10159000DF4F99838883C65AD0406CEB71E0CE014F
:1015A0008E559F4F0E94F60864E070E0CE018E5584
:1015B0009F4F0E941E098E010F571F4F23E045E0E9
:1015C000C701B6010E942B30B801CE018E559F4F46
:1015D0000E94F608CC55DF4F08811981C45AD040CB
:1015E00001501109CE55DF4F28813981C25AD040B0
:1015F00040E050E064E181E295E00E94FE214B2D45
:1016000065E070E081E295E00E94E3184A2D66E013
:1016100070E081E295E00E94E318C555DF4F4881F4
:10162000CB5AD0406EE070E081E295E00E94E31872
:10163000C455DF4F4881CC5AD0406FE070E081E262
:1016400095E00E94E318C455DF4F4881CC5AD04042
:10165000C555DF4F2881CB5AD04030E0A0E1BEE035
:101660000E9420365CE3459F900111248901330FCD
:10167000220B330BDC01CB01800F911FA21FB31F84
:101680008093860290938702A0938802B093890288
:10169000C355DF4F0FB6F894DEBF0FBECDBFDF914D
:1016A000CF911F910F91FF90EF90DF90CF90BF905F
:1016B000AF909F908F907F906F905F904F90089524
:1016C0008EE794E00E94891921E0892B09F420E03B
:1016D000822F08951F920F920FB60F9211242F930D
:1016E0003F934F935F936F937F938F939F93AF93AA
:1016F000BF93EF93FF938EE794E00E94F819FF9158
:10170000EF91BF91AF919F918F917F916F915F9179
:101710004F913F912F910F900FBE0F901F901895F2
:101720008F929F92AF92BF92CF92DF92EF92FF92F1
:10173000CF93DF93A091C703882311F03A2F01C004
:1017400030E08091C80390E0880F991F88569E4F23
:10175000C090CD03D090CE03E090CF03F090D003A3
:1017600040E050E0BA01FC01C591D49128812A23C0
:1017700023130FC04A015B012FEF821A920AA20ABB
:10178000B20A4C155D056E057F0538F4B501A4015C
:10179000EACF342F252FCB0104C030E020E080E0D9
:1017A00090E0632F722FDF91CF91FF90EF90DF9049
:1017B000CF90BF90AF909F908F9008950895CF9253
:1017C000DF92EF92FF920F931F93CF93DF936C0101
:1017D0007A018B01C0E0D0E0CE15DF0589F0D80199
:1017E0006D918D01D601ED91FC910190F081E02D7C
:1017F000C6010995892B11F47E0102C02196ECCF18
:10180000C701DF91CF911F910F91FF90EF90DF9073
:10181000CF900895CF93DF93EC0188819981009751
:1018200011F00E94E030198218821D821C821B82F6
:101830001A82DF91CF9108950F931F93CF93DF9377
:10184000EC0188819981009729F02A813B81261734
:10185000370788F48B016F5F7F4F0E940F2F00972F
:1018600061F0998388831B830A832C813D81232B1C
:1018700011F4FC01108281E001C080E0DF91CF9182
:101880001F910F910895EF92FF920F931F93CF93A3
:10189000DF93EC017B018A01BA010E941C0C8111CB
:1018A00004C0CE010E940A0C07C01D830C83B7013F
:1018B000888199810E94FB2FCE01DF91CF911F91EA
:1018C0000F91FF90EF900895CF92DF92EF92FF92E9
:1018D0000F931F93CF93DF93CDB7DEB7C054D140A2
:1018E0000FB6F894DEBF0FBECDBF0E94C71B00919C
:1018F000C9031091CA032091CB033091CC036B0133
:101900007C01C01AD10AE20AF30A40EDC41647E08E
:10191000D406E104F10418F48091D103BCC06093B3
:10192000C9037093CA038093CB039093CC031092A6
:10193000C4031092C3031092C2031092C103109209
:10194000C00361E08091C5030E94AB1A6AEF70E0AA
:1019500080E090E00E948D1B61E08091C5030E94B1
:10196000DB1A60E08091C5030E94AB1A64E170E06D
:1019700080E090E00E948D1BF89461E08091C503A7
:101980000E94AB1A8BE990E00197F1F762E0809139
:10199000C5030E94DB1A83E290E00197F1F780E033
:1019A0000E94900B672B682B692B21F41092D103B6
:1019B00078943EC081E00E94900B672B682B692BC6
:1019C000A9F38E010F5F1F4F6E018FEBC81A8EEFC8
:1019D000D80A780180E00E94900BF7016083718340
:1019E0008283938381E00E94900BF7016483758367
:1019F00086839783F8E0EF0EF11CEC14FD0451F799
:101A0000789420E030E0F801408151816281738157
:101A1000C480D580E680F7804115510561057105C8
:101A200029F0C114D104E104F10421F41092D1038E
:101A300080E031C0F90183E0F595E7958A95E1F7FB
:101A4000E054FC4F8081880F4C155D056E057F05C5
:101A500008F4816080832F5F3F4F085F1F4F28325B
:101A6000310589F62091C40330E04091C003809194
:101A7000C10390E0840F911D4091C203840F911D1A
:101A80004091C303840F911D99272817390771F6D8
:101A900081E08093D103C05CDE4F0FB6F894DEBFC7
:101AA0000FBECDBFDF91CF911F910F91FF90EF90AF
:101AB000DF90CF9008952F923F925F926F927F9226
:101AC0008F929F92AF92BF92CF92DF92EF92FF924E
:101AD0000F931F93CF93DF93CDB7DEB76F970FB6FA
:101AE000F894DEBF0FBECDBF7C012DB73EB73F8F50
:101AF0002E8F60E070E0CB010E948D1BD7015896BD
:101B00008D919C915997029709F424C10D911C91D4
:101B1000F8015280552009F445C0808191810E94CE
:101B20002E1FC80103960E944A1918161906D4F5EB
:101B300045E050E0BE01695E7F4FD7018D919C91D9
:101B40000E949E07009709F461C3059709F0FDC044
:101B5000888D998D982789279827998F888F0A8D46
:101B60001B8D1027012710271B8F0A8F892B09F443
:101B7000ECC08F89811105C10E94C71BD701169641
:101B80006D937D938D939C93199758962D913C91CD
:101B900059974A8D5B8D232B09F4CBC045305105F5
:101BA00009F4D3C00E94C71B4B015C01D7015896B2
:101BB0008D919C9159978130910509F05EC051102B
:101BC0000AC059961C921E925897F70186869786EE
:101BD000A08AB18A2BC3F70186819781A085B18540
:101BE000A5019401281B390B4A0B5B0BDA01C901D3
:101BF00081383EE39307A105B10548F0D7018D91E7
:101C00009C910E942208F701118E108EA3C0813191
:101C10009742A105B10598F4F70182859385A485C3
:101C2000B585A5019401281B390B4A0B5B0BDA0122
:101C3000C90181319742A105B10508F4F7C2F70146
:101C400086859785A089B189A5019401281B390B48
:101C50004A0B5B0BDA01C901813D9740A105B10533
:101C600008F4E4C200E010E020E030E040E050E0A2
:101C700066E0C7010E94FE2131C0892B09F06CC0CB
:101C8000F70186859785A089B189552069F0881A62
:101C9000990AAA0ABB0AF1ED8F16F7E09F06A10484
:101CA000B10408F4C3C2AACFA5019401281B390BC3
:101CB0004A0B5B0BDA01C90189389341A105B105D3
:101CC00008F44AC0808191810E942208F701808136
:101CD00091810E94B608582E811108C0D7011E9626
:101CE0008D929D92AD92BC925197A0C288EE93E0E6
:101CF000A0E0B0E0F701828B938BA48BB58B22819F
:101D00003381F90101900020E9F731978F01021B1F
:101D1000130B41E050E062E0C7010E94FE21F70191
:101D200082859385A485B58586879787A08BB18B9F
:101D30007DC2288D398D2130310509F02FCF4430F7
:101D4000510569F0483C510551F0F70180819181BE
:101D50000E942208512C6AC25524539467C2F7018D
:101D600066877787808B918B81E090E0918F808F61
:101D7000C7010E94B22B60E070E0CB010E948D1B76
:101D800045C2D7018D919C910130B1E01B0718F03D
:101D90000E94B6083BC28DB69EB698012F5F3F4F9A
:101DA000EDB7FEB7E21BF30B0FB6F894FEBF0FBE04
:101DB000EDBF2DB73EB72F5F3F4F6901A801B901B5
:101DC0000E949E070817190709F017C2EA8DFB8DBC
:101DD000EC0DFD1D10820E94C71BD70116966D9356
:101DE0007D938D939C9319978F898F3009F488C0C8
:101DF00080F48230B9F0863009F0F9C1488D598DF0
:101E000008EC10E020E030E060E0C7010E94FE2115
:101E1000F6C18932D1F0873309F4F1C1843109F078
:101E2000E6C16EC081E090E0F701918F808F488D10
:101E3000598D08EC10E020E030E060E0C7010E941E
:101E4000FE21C7010E94B22BDAC1D70114968D91F1
:101E50009C911597892B39F480E290E00E944B30D9
:101E6000F701958384830A8D1B8DDA82C9820C0D5C
:101E70001D1DC016D10608F0C0C140E250E0B601F9
:101E8000D70114968D919C9115970E940230CE0136
:101E900001960E94AC23FC018081918180179107FB
:101EA00030F489819A810E9496318B0102C00AEF39
:101EB00010E2D7018D919C910E942208F701808148
:101EC0009181FC01E85FFE4FD70114962D913C9162
:101ED00015973183208332961183008316968D9156
:101EE0009D910D90BC91A02D88589341A109B109F5
:101EF000F70186879787A08BB18B118E108E7FC1DB
:101F0000888D998DD70157969C938E9356976A8C9E
:101F10007B8CDD8ECC8E5601A60CB71CCA14DB045C
:101F200008F061C1F60120803180CE014C960E94FC
:101F3000AC23DC018D919C918A159B0508F053C15F
:101F40008C8D9D8DFC012081213449F401960E94E5
:101F50007831863091053CF41EE0180F05C00E94D0
:101F60007831182F01C01FEFF6E72F16F2E73F0672
:101F700009F4E8C098F431E6231632E7330609F491
:101F8000A1C044E6241642E7340609F446C050E7EF
:101F900025165DE6350609F019C128C084E6281625
:101FA00087E7380609F473C096E7291697E73906DC
:101FB00009F4E2C0A1E62A16A7E73A0609F006C12D
:101FC000A9C0CE014C960E94AC23CC8CDD8C62E380
:101FD00072E0C6010E94F22F892B71F460E0812F1C
:101FE0000E94DB1ACE014C960E94AC238C8D9D8DF5
:101FF0008A159B0530F3F7C065E372E0C6010E94C5
:10200000F22F892B09F410C169E372E0C6010E9426
:10201000F22F892B09F408C1FDC0CE0101969A8BDD
:10202000898B1C8A1B8A80E190E09E8B8D8B6DE3EF
:1020300072E0CE0141960E94F608012F10E0B8012F
:10204000CE0141960E941E09F801EC5FFE4F84917B
:10205000F801E959FD4FD490F801ED5AFD4F049174
:10206000002391F081110E94821AE02FF0E0EE0F20
:10207000FF1FE856FE4FA591B491EC91DE2261E07E
:1020800070E0D1F560E038C060E070E035C0CE01AE
:102090004C960E94AC23FC01808191818A159B059E
:1020A00008F0A1C061E0812F0E94DB1A8C8D9D8D0C
:1020B0000E94783161E0892B09F460E0812F0E9451
:1020C000AB1A91C0CE0101969A8B898B1C8A1B8A10
:1020D00080E190E09E8B8D8B60E472E0CE014196B2
:1020E0000E94F608612F70E0CE0141960E941E0901
:1020F000812F0E94761BBC01CE0141960E941E09D1
:102100000B891C890150110929893A8940E050E066
:1021100064E166C0CE014C960E94AC23DC018D9137
:102120009C918A159B0508F05EC061E0812F0E949A
:10213000DB1A8C8D9D8D0E947831BC01812F0E940D
:10214000171B51C01983103208F04DC0E12FF0E089
:10215000EE0FFF1FE85EFE4F2591349121153105EA
:1021600009F441C0B3E120303B0709F43CC0CE0183
:102170000196F901099537C0CE014C960E94AC2317
:102180008C8D9D8DC81AD90AC60CD71C9A83898359
:10219000DC82CB82DE82CD82198B103220F5E12FDA
:1021A000F0E0EE0FFF1FE85AFE4F25913491211504
:1021B0003105C9F0F2E12F3F3F07A9F0BE016F5F83
:1021C0007F4FCE014196F90109950DC0D701569672
:1021D0004D915C91579702E010E020E030E060E024
:1021E000C7010E94FE21F701178A168A08C0D7018D
:1021F0008D919C910E94B60802C080E001C0852D9F
:102200000FB6F8949EBE0FBE8DBE01C0852D811104
:10221000C9CC9BCD63E472E0C6010E94F22F892BEA
:1022200009F0E0CE62E0DBCE61E0D9CE852DEE8D07
:10223000FF8D0FB6F894FEBF0FBEEDBF6F960FB6C1
:10224000F894DEBF0FBECDBFDF91CF911F910F91EC
:10225000FF90EF90DF90CF90BF90AF909F908F90C6
:102260007F906F905F903F902F900895FC01808148
:102270009181009711F00C94963160E070E0CB01F1
:102280000895CF93DF93FC0124813581232B71F0D6
:10229000FB01DC01CD91DC9160817181CE010E9456
:1022A0001130009719F08C1B9D0B02C08FEF9FEF30
:1022B000DF91CF910895EF92FF920F931F93CF93E9
:1022C000DF9300D0CDB7DEB78C0169831A82FC01A1
:1022D000E480F580FFEFEF1AFF0AB7010E941C0CA3
:1022E000882381F0F8012081318184819581BE01AC
:1022F0006F5F7F4F820F931F0E94FB2FF801F582C3
:10230000E48281E00F900F90DF91CF911F910F91A8
:10231000FF90EF900895CF93DF93EC016115710565
:1023200059F0FB0101900020E9F73197AF01461BFE
:10233000570B0E94430C02C00E940A0CCE01DF9191
:10234000CF910895CF93DF93EC01FB018617970798
:1023500061F0608171816115710529F044815581B9
:102360000E94430C02C00E940A0CCE01DF91CF9163
:1023700008950F931F93CF93DF938C01EB01FC0122
:10238000808191810097B1F0688179816115710533
:1023900079F0428153812C813D814217530740F0EF
:1023A0000E94FB2F8C819D81F8019583848313C04B
:1023B0000E94E03088819981F801918380838A812D
:1023C0009B81938382838C819D81958384831982F1
:1023D00018821B821A821D821C82DF91CF911F916D
:1023E0000F910895FC01808191810C94E030FC01F3
:1023F0001182108213821282158214820C94A2110F
:10240000FC011182108213821282158214826115DE
:10241000710551F0FB0101900020E9F73197AF0100
:10242000461B570B0C94430C0895BF92CF92DF923A
:10243000EF92FF920F931F93CF93DF937C016B0179
:102440008A01E9012417350720F4812F8901C42F5F
:10245000D82F6CEF71E0C7010E940012D6011496CC
:102460008D919C91159708171907D0F48C179D072B
:1024700008F4EC01D601ED91FC911197EC0FFD1FD2
:10248000B08010824D915C91BA01600F711FC7013D
:102490000E948B11D601ED91FC91EC0FFD1FB082D3
:1024A000C701DF91CF911F910F91FF90EF90DF90C7
:1024B000CF90BF900895DC01ED91FC91DB01149663
:1024C0004D915C9115976D917C910280F381E02D87
:1024D0000994EF92FF920F931F93CF93DF938C0198
:1024E0007B01C0E0D0E0F701EC0FFD1F6491662393
:1024F00061F0D801ED91FC910190F081E02DC801CF
:102500000995892B11F02196EECFCE01DF91CF9165
:102510001F910F91FF90EF9008956115710579F06B
:10252000FB0101900020E9F73197AF01461B570BE3
:10253000DC01ED91FC910280F381E02D099480E0B3
:1025400090E008954F925F926F927F92EF92FF9288
:102550000F931F93CF93DF93CDB7DEB7A1970FB63D
:10256000F894DEBF0FBECDBF7C01FA01CB0119A2EA
:10257000223008F42AE08E010F5D1F4F422E512CAD
:10258000612C712CBF01A30192010E94292DF90138
:10259000CA01015011096A3014F4605D01C0695C20
:1025A000D8016C93232B242B252B61F7B801C7018D
:1025B0000E948D12A1960FB6F894DEBF0FBECDBF5C
:1025C000DF91CF911F910F91FF90EF907F906F90CF
:1025D0005F904F9008950F931F93CF93DF93EC017B
:1025E0000E9469128C016AEF71E0CE010E948D1287
:1025F000800F911FDF91CF911F910F910895089542
:10260000089585ED8093BC008091BC0084FDFCCFD3
:102610001092240308954091AE02262F30E0240F3B
:10262000311D21323105DCF4209124032430C9F41A
:10263000FC0180E090E0861758F43091AE022191C1
:10264000DC01A457BD4FA30FB11D2C930196F3CF0E
:102650008091AE02680F6093AE0280E0089581E041
:10266000089582E008950895E0917F0280917E02AE
:10267000E81730F4F0E0EB52FD4F808190E00895D0
:102680008FEF9FEF089590917F0280917E029817BF
:1026900050F4E92FF0E0EB52FD4F208130E09F5FD6
:1026A00090937F0202C02FEF3FEFC9010895809100
:1026B0007E0290E020917F02821B91090895CF92C3
:1026C000DF92EF92FF920F931F93CF93DF937C01E2
:1026D000262F972F8A0180912503882391F0C62FFA
:1026E000D72F6E01C40ED51ECC15DD0571F0699192
:1026F000D701ED91FC910190F081E02DC701099582
:10270000F3CF642F822F0E940B13C801DF91CF916A
:102710001F910F91FF90EF90DF90CF900895CF938E
:10272000DF931F92CDB7DEB7698320912503222363
:10273000D1F020914803203240F021E030E0FC014C
:102740003383228380E090E015C080912603E82F38
:10275000F0E0E95DFC4F998190838F5F80932603C1
:102760008093480305C061E0CE0101960E940B13DF
:1027700081E090E00F90DF91CF910895CF93DF93A8
:10278000DC018C918823F9F077FD07C06F3F71055C
:1027900029F024F06FEF70E001C060E019966C93AF
:1027A00019975396ED91FC915497309739F0ED01BC
:1027B000862F0995682F70E0888101C070E0DF9155
:1027C000CF910C94171BDF91CF910895FB0180816D
:1027D00091810E9496316093060170930701809366
:1027E0000801909309010895FB01808191810E9465
:1027F000963160930D0170930E0180930F019093B9
:1028000010010895FB01808191810E9496316093AF
:102810001501709316018093170190931801089584
:102820002F923F924F925F926F927F928F929F92E0
:10283000AF92BF92CF92DF92EF92FF920F931F93CE
:10284000CF93DF9300D000D000D0CDB7DEB75C01CE
:102850006B0166E472E0CE0101960E940012BE0197
:102860006F5F7F4FC6010E9441114C01CE0101965E
:102870000E94F2112FEF8216920629F460E070E0B8
:1028800080E090E0A4C085E0880E911CD6011496EB
:102890000D911C9115978016910678F46D907C909F
:1028A0006AE370E0C301880D991D0E94E72F00972D
:1028B00021F07C01E618F70803C0EE24EA94FE2C10
:1028C00017010F2C000C44085508BFEF2B163B06D0
:1028D0004B065B0699F28016910680F4F601608043
:1028E00071806CE270E0C301880D991D0E94E72F92
:1028F000009721F08C010619170902C00FEF1FEF96
:10290000C801012E000CAA0BBB0B8F3FFFEF9F07E6
:10291000AF07BF07A1F182159305A405B5057CF5A6
:102920009801A401B601CE0101960E941512CE01B4
:1029300001960E943611962ECE0101960E94F21148
:1029400024E0291508F49ACFA8014F5F5F4F970143
:10295000B601CE0101960E941512CE0101960E9489
:1029600036116B017C01CE0101960E94F2111C14FC
:102970001D041E041F040CF081CF892D18C097017F
:10298000A401B601CE0101960E941512CE01019656
:102990000E9436116B017C01CE0101960E94F2115A
:1029A0001C141D041E041F040CF068CF8FEFD5010A
:1029B0001296ED91FC911397309739F014962D9162
:1029C0003C911597B701A6010995B601C701269656
:1029D0000FB6F894DEBF0FBECDBFDF91CF911F9130
:1029E0000F91FF90EF90DF90CF90BF90AF909F90AE
:1029F0008F907F906F905F904F903F902F900895B1
:102A00008F929F92AF92BF92CF92DF92EF92FF92FE
:102A10000F931F93CF93DF93EC018881882309F4F0
:102A2000A3C08B859C85AD85BE85892B8A2B8B2B7E
:102A300009F49AC00E94C71B2AE030E040E050E051
:102A40000E94292D89819A81281B390B6901E12C6B
:102A5000F12C8D819E81AF81B885C816D906EA0612
:102A6000FB0608F483C0C701B6010E94B4344B01D1
:102A70005C016B857C858D859E850E94B4349B01AD
:102A8000AC01C501B4010E94DD2D4B015C019B012D
:102A9000AC016F85788989899A890E94712D6F8729
:102AA000788B898B9A8B20E030E040E85FE3C501AA
:102AB000B4010E94852E6A8587FD11C080E090E0F8
:102AC000A8ECB2E48F87988BA98BBA8B1B861C86E7
:102AD0001D861E8670E0CE010E94BE1345C009858A
:102AE00010E070E0601B710B072E000C880B990B37
:102AF0000E94B634A50194010E9415354B015C017A
:102B000020E030E0A9010E94852E20E030E040E086
:102B10005FE387FD05C0C501B4010E94712D04C0AB
:102B2000C501B4010E94702D0E944F2E600F711FCD
:102B3000CE010E94BE138B859C85AD85BE858C1908
:102B40009D09AE09BF098B879C87AD87BE870E9410
:102B5000C71B2AE030E040E050E00E94292D298385
:102B60003A834B835C8302C080E001C081E0DF9147
:102B7000CF911F910F91FF90EF90DF90CF90BF907A
:102B8000AF909F908F900895FC018081882349F039
:102B900081E04385548565857685452B462B472BFB
:102BA00009F480E00895AF92BF92CF92DF92EF9246
:102BB000FF921F93CF93DF93FC01A62F13861486F9
:102BC000158616861786108A118A128A70817723D5
:102BD00009F46EC01185611709F46AC0A62EB12CE4
:102BE000253131054105510560F4B501DF91CF91E3
:102BF0001F91FF90EF90DF90CF90BF90AF900C941B
:102C0000BE13CA01B901EF01638774878587968770
:102C1000AA870E94B4346B017C01412F50E04A190D
:102C20005B0957FF03C0519541955109BA01550FF2
:102C3000880B990B0E94B6349B01AC01C701B60109
:102C40000E94DD2D6B017C0120E030E0A9010E9493
:102C5000852E20E030E040E05FE387FD05C0C7013E
:102C6000B6010E94712D04C0C701B6010E94702DEB
:102C70000E944F2E643171058105910528F06D8306
:102C80007E838F83988708C084E190E0A0E0B0E065
:102C90008D839E83AF83B8870E94C71B2AE030E0F4
:102CA00040E050E00E94292D29833A834B835C83C6
:102CB000DF91CF911F91FF90EF90DF90CF90BF9069
:102CC000AF9008951F920F920FB60F9211240F909C
:102CD0000FBE0F901F9018951F920F920FB60F9274
:102CE00011242F933F934F935F936F937F938F9311
:102CF0009F93AF93BF93EF93FF938091B900887F29
:102D0000803609F49CC068F5883209F45BC090F401
:102D1000803109F454C038F4882309F4F6C08830AF
:102D200009F44DC0F6C0883109F44CC0803209F472
:102D30005DC0EFC0803409F468C048F4803309F402
:102D400055C0883309F0E5C080932203D8C0803590
:102D500009F44FC0883509F45DC0883409F0D9C042
:102D6000D6C0883909F4C7C0A8F4883709F467C009
:102D700038F4883609F463C0803709F460C0C9C0EC
:102D8000883809F4B8C0803909F45FC0803809F088
:102D9000C0C05BC0803B09F486C038F4803A09F4B7
:102DA00066C0883A09F47FC0B4C0803C09F4A7C06B
:102DB000883C09F4A4C0883B09F48AC0AAC0809169
:102DC000FF0210C09091210380912003981770F5A5
:102DD000E091210381E08E0F80932103F0E0E05029
:102DE000FD4F80818093BB0085EC86C080932203D9
:102DF0008EC0E091210381E08E0F809321038091AA
:102E0000BB00F0E0E050FD4F808390912103809162
:102E100020036EC0E091210381E08E0F8093210397
:102E20008091BB00F0E0E050FD4F80838091230350
:102E300081116DC081E08093FE0284EA61C083E06D
:102E4000809324031092D202CFCF8091D20280329D
:102E500008F051C0E091D20281E08E0F8093D2023F
:102E60008091BB00F0E0EE54FD4F8083BDCF85EC38
:102E70008093BC00109224038091D202803230F4FF
:102E8000E091D202F0E0EE54FD4F10826091D20248
:102E900070E0E091B002F091B10282EB92E009950E
:102EA0001092D20236C084E0809324031092AF02C5
:102EB0001092AE02E091AC02F091AD0209958091C2
:102EC000AE02811105C081E08093AE0210928C02A7
:102ED000E091AF0281E08E0F8093AF02F0E0E45703
:102EE000FD4F80818093BB009091AF028091AE0234
:102EF000981708F479CF85E88093BC000AC085EC68
:102F00008093BC001092240304C0109222030E94FC
:102F10000113FF91EF91BF91AF919F918F917F919D
:102F20006F915F914F913F912F910F900FBE0F9036
:102F30001F901895AF92BF92CF92DF92EF92FF92BF
:102F40000F931F93CF93DF931F92CDB7DEB75C0132
:102F50007B018B016C0184E0C80ED11CF8016191EA
:102F60008F01C50169830E94D3356981681719F003
:102F7000C5010E94DB35FFEFAF1ABF0AAC14BD04D8
:102F800069F7C7010F90DF91CF911F910F91FF90CB
:102F9000EF90DF90CF90BF90AF900895CF92DF92E7
:102FA000EF92FF920F931F93CF93DF93EB017B017F
:102FB00024E0E20EF11C8B016C01C61AD70AC6018F
:102FC000800F911F0E94D335F80181938F01EE1578
:102FD000FF05A9F7CE01DF91CF911F910F91FF90CF
:102FE000EF90DF90CF9008950F931F93CF93DF93CF
:102FF0001F92CDB7DEB78C0169830E94D3356981FA
:10300000681741F0C8010F90DF91CF911F910F9188
:103010000C94DB350F90DF91CF911F910F910895A4
:103020000C94D3358F929F92AF92BF92EF92FF9202
:103030000F931F93CF93DF93CDB7DEB7C85AD10953
:103040000FB6F894DEBF0FBECDBF7C018B014901E6
:103050005A01CE010196CD55DF4F99838883C35A1B
:10306000D040CB55DF4F19821882C55AD04080E836
:1030700090E0C955DF4F99838883C75AD0406CEBE5
:1030800071E0CE018D559F4F0E94F608B801CE0128
:103090008D559F4F0E941E092AE0AE014F575F4F8A
:1030A000C501B4010E94D131BE016F577F4FCE01DF
:1030B0008D559F4F0E94F608CB55DF4F088119812F
:1030C000C55AD04001501109CD55DF4F28813981B3
:1030D000C35AD04040E050E064E1C7010E94FE21A5
:1030E000C855DF4F0FB6F894DEBF0FBECDBFDF91DE
:1030F000CF911F910F91FF90EF90BF90AF909F9055
:103100008F900895CF92DF92EF92FF920F931F93CB
:10311000CF93DF93CDB7DEB7C658D1090FB6F89479
:10312000DEBF0FBECDBF7C016B018A01CE010196CF
:10313000CF57DF4F99838883C158D040CD57DF4F99
:1031400019821882C358D04080E890E0CB57DF4FF7
:1031500099838883C558D0406CEB71E0CE018F57BE
:103160009F4F0E94F608B601CE018F579F4F0E94D5
:103170001E09B801CE018F579F4F0E941E09CD57DF
:10318000DF4F08811981C358D04001501109CF5732
:10319000DF4F28813981C158D04040E050E064E1E0
:1031A000C7010E94FE21CA57DF4F0FB6F894DEBF59
:1031B0000FBECDBFDF91CF911F910F91FF90EF9088
:1031C000DF90CF900895EF92FF920F931F93CF93CC
:1031D000DF93CDB7DEB7C758D1090FB6F894DEBF7D
:1031E0000FBECDBF7C018B01CE010196CF57DF4FC3
:1031F00099838883C158D040CD57DF4F19821882F8
:10320000C358D04080E890E0CB57DF4F9983888344
:10321000C558D0406CEB71E0CE018F579F4FC95716
:10322000DF4F4883C758D0400E94F608B801CE014E
:103230008F579F4F0E941E09C957DF4F4881C758BB
:10324000D040642F70E0CE018F579F4F0E941E091F
:10325000CD57DF4F08811981C358D0400150110963
:10326000CF57DF4F28813981C158D04040E050E02E
:1032700064E1C7010E94FE21C957DF4F0FB6F894E1
:10328000DEBF0FBECDBFDF91CF911F910F91FF9099
:10329000EF900895FC01EE5FFE4F2081318132975F
:1032A000408151812417350739F43496808181118A
:1032B0000BC080E090E00895C9014217530708F061
:1032C0009395841B950B089580E091E00895FC018F
:1032D000918D828D981761F0828DDF01A80FB11D4D
:1032E0005D968C91928D9F5F9F73928F90E0089571
:1032F0008FEF9FEF0895FC01918D828D981731F02B
:10330000828DE80FF11D858D90E008958FEF9FEF7E
:103310000895FC01918D228D892F90E0805C9F4F54
:10332000821B91098F739927089580E090E0892B83
:1033300029F00E94600B81110C94000008953FB7A2
:10334000F8948091FA029091FB02A091FC02B09156
:10335000FD0226B5A89B05C02F3F19F00196A11DBF
:10336000B11D3FBFBA2FA92F982F8827820F911D1B
:10337000A11DB11DBC01CD0142E0660F771F881F62
:10338000991F4A95D1F708950E94D92F1F920F9245
:103390000FB60F9211242F938F939F93EF93FF9368
:1033A000E0918E04F0918F048081E0919404F0917B
:1033B000950482FD12C09081809197048F5F8F7376
:1033C00020919804821751F0E0919704F0E0E258C0
:1033D000FB4F958F8093970401C08081FF91EF91FF
:1033E0009F918F912F910F900FBE0F901F90189566
:1033F000FC01848DDF01A80FB11DA35ABF4F2C9192
:10340000848D90E001968F739927848FA689B78960
:103410002C93A089B1898C9180648C93938D848D39
:10342000981306C00288F389E02D80818F7D808308
:103430000895EF92FF920F931F93CF93DF93EC01C8
:1034400081E0888F9B8D8C8D981305C0E889F98960
:10345000808185FD24C0F62E0B8D10E00F5F1F4F7D
:103460000F731127E02E8C8DE8120CC00FB607FCED
:10347000FACFE889F989808185FFF5CFCE010E94D6
:10348000F819F1CF8B8DFE01E80FF11DE35AFF4FC4
:10349000F0820B8FEA89FB898081806207C0EE8908
:1034A000FF896083E889F98980818064808381E075
:1034B00090E0DF91CF911F910F91FF90EF900895D1
:1034C000CF93DF93EC01888D8823C9F0EA89FB89CB
:1034D000808185FD05C0A889B9898C9186FD0FC0C2
:1034E0000FB607FCF5CF808185FFF2CFA889B98997
:1034F0008C9185FFEDCFCE010E94F819E7CFDF91C7
:10350000CF910895833081F028F4813099F0823092
:10351000A1F008958730A9F08830B9F08430D1F453
:10352000809180008F7D03C0809180008F77809391
:103530008000089584B58F7702C084B58F7D84BDE7
:1035400008958091B0008F7703C08091B0008F7D87
:103550008093B00008951F93CF93DF93282F30E01E
:10356000F901EC5FFE4F8491F901E959FD4FD491C7
:10357000F901ED5AFD4FC491CC23C9F0162F8111EA
:103580000E94821AEC2FF0E0EE0FFF1FED5EFD4F60
:10359000A591B4918FB7F894111105C09C91ED2FAE
:1035A000E095E92302C0EC91ED2BEC938FBFDF9106
:1035B000CF911F910895CF93DF9390E0FC01E959DB
:1035C000FD4F2491FC01ED5AFD4F8491882361F158
:1035D00090E0880F991FFC01E75FFD4FC591D491E2
:1035E000FC01ED5EFD4FA591B491611109C09FB73B
:1035F000F8948881209582238883EC912E230BC038
:10360000623061F49FB7F8943881822F80958323CC
:103610008883EC912E2B2C939FBF06C08FB7F89414
:10362000E8812E2B28838FBFDF91CF9108951F93C0
:10363000CF93DF93182FEB0161E00E94DB1A2097F4
:1036400011F460E004C0CF3FD10539F461E0812F6F
:10365000DF91CF911F910C94AB1AE12FF0E0EC5F5A
:10366000FE4FE491E330F9F048F4E130B9F0E23094
:10367000A1F584B5806284BDC8BD34C0E730E9F0EF
:10368000E83019F1E43049F5809180008062809340
:103690008000D0938B00C0938A0024C084B58068DA
:1036A00084BDC7BD1FC0809180008068809380006A
:1036B000D0938900C093880015C08091B0008068C5
:1036C0008093B000C093B3000DC08091B0008062C1
:1036D0008093B000C093B40005C0C038D1050CF091
:1036E000B5CFAFCFDF91CF911F9108958E3008F005
:1036F0008E508770806480937C0080917A00806413
:1037000080937A0080917A0086FDFCCF80917800CA
:103710002091790090E0922B08958F929F92AF9222
:10372000BF92CF92DF92EF92FF926B017C010E94D9
:103730009F194B015C01C114D104E104F104F1F0C3
:103740000E949F19DC01CB0188199909AA09BB09BC
:10375000883E9340A105B10570F321E0C21AD1085B
:10376000E108F10888EE880E83E0981EA11CB11CC8
:10377000C114D104E104F10419F7DDCFFF90EF90FB
:10378000DF90CF90BF90AF909F908F9008952FB70C
:10379000F8946091F6027091F7028091F80290918E
:1037A000F9022FBF08954F925F926F927F928F928E
:1037B0009F92AF92BF92CF92DF92EF92FF920F93C0
:1037C0001F93CF93DF93EC017B016A0148015901FC
:1037D0006CEF71E00E9400120E94C71B2B013C019C
:1037E0000E94C71BDC01CB0184199509A609B70902
:1037F00088159905AA05BB0588F5F7018081918197
:10380000DC01ED91FC910480F581E02D09951816FD
:10381000190634F7D7018D919C91DC01ED91FC9153
:103820000680F781E02D0995882339F3682FCE01B2
:103830000E945B11B601CE010E944111019671F404
:10384000BE01C7010E941014672B682B692BA9F2D7
:103850006CEF71E0CE010E948B11CFCFCE01DF91D2
:10386000CF911F910F91FF90EF90DF90CF90BF907D
:10387000AF909F908F907F906F905F904F90089542
:103880001F920F920FB60F9211242F933F938F9395
:103890009F93AF93BF938091F6029091F702A0910E
:1038A000F802B091F9023091F50223E0230F2D3791
:1038B00020F40196A11DB11D05C026E8230F029634
:1038C000A11DB11D2093F5028093F6029093F7029B
:1038D000A093F802B093F9028091FA029091FB0252
:1038E000A091FC02B091FD020196A11DB11D809333
:1038F000FA029093FB02A093FC02B093FD02BF91E9
:10390000AF919F918F913F912F910F900FBE0F908C
:103910001F901895CF92DF92EF92FF920F931F9313
:10392000CF93DF93EC0181E08093250388E68093B9
:103930004703109226031092480360E089E493E065
:103940000E948F130E94A121809124038111FCCF3A
:1039500081E080932403809323039FEF90932203BD
:103960001092210396E0909320038093FF028091B0
:10397000FF02806D8093FF028091FE02813061F42E
:103980001092FE028091FF028093BB008091BC00E8
:1039900083FDF8CF85EC01C085EE8093BC0080915B
:1039A00024038130E1F380912103873018F4809162
:1039B000210301C087E0A0E0B3E025ED32E0F9018A
:1039C0009E2F921B981718F49D919193F9CF109206
:1039D0007F0280937E0289E493E00E9443138F77F5
:1039E000982F92959F701AEF082F919F000D112428
:1039F00089E493E00E9443139C01332794E03595BA
:103A000027959A95E1F7F82E129FF00C112489E47E
:103A100093E00E9443139C01332744E0359527959A
:103A20004A95E1F7E82E129FE00C112489E493E017
:103A30000E94431389E493E00E9443139C013327BF
:103A400054E0359527955A95E1F7D82E129FD00C62
:103A5000112489E493E00E9443139C01332764E01E
:103A6000359527956A95E1F7C82E129FC00C112451
:103A700089E493E00E9443139C01332774E0359559
:103A800027957A95E1F7129F800D11248883C982CA
:103A9000DA82EB82FC820D83CE01DF91CF911F9100
:103AA0000F91FF90EF90DF90CF9008952F923F926B
:103AB0004F925F926F927F928F929F92AF92BF923E
:103AC000CF92DF92EF92FF920F931F93CF93DF93EA
:103AD000CDB7DEB762970FB6F894DEBF0FBECDBF8D
:103AE0002C013B014A01190158016CEF71E0CE0134
:103AF00001960E940012B301CE0107960E94F711B1
:103B000097018601AE01495F5F4FB201CE010D966C
:103B10000E94D31BBE01635F7F4FCE0101960E94BE
:103B2000B911CE010D960E94F211CE0107960E94A6
:103B3000F211B301CE0101960E944111019609F4E0
:103B400094C0B401CE0101960E9441112C01990F3D
:103B500066087708B101CE0101960E9441119C01CF
:103B6000092E000CAA0BBB0B4FEF4416540664063B
:103B7000740679F08F3F9F4FAF4FBF4F21F1F40193
:103B800084819581B301A201480F591F611D711DE8
:103B900007C08F3F9F4FAF4FBF4FA9F040E050E0AD
:103BA000BE016F5F7F4FCE0107960E941512BE01C6
:103BB000695F7F4FC5010E94B911CE0107960E942F
:103BC000F21111E059C062EF71E0CE0107960E9438
:103BD0000012BE01695F7F4FC5010E9441114C0177
:103BE000CE0107960E94F2112FEF82169206A1F0E5
:103BF000940140E050E0BE016F5F7F4FCE01079619
:103C00000E941512BE01695F7F4FC5010E94B91164
:103C1000CE0107960E94F21164EF71E0CE01079683
:103C20000E940012BE01695F7F4FC5010E944111D1
:103C30004C01CE0107960E94F2114FEF84169406B4
:103C4000A1F0940140E050E0BE016F5F7F4FCE01D4
:103C500007960E941512BE01695F7F4FC5010E9441
:103C6000B911CE0107960E94F211BE016F5F7F4F1E
:103C7000C5010E94A21110E0CE0101960E94F2112E
:103C8000812F62960FB6F894DEBF0FBECDBFDF91D5
:103C9000CF911F910F91FF90EF90DF90CF90BF9049
:103CA000AF909F908F907F906F905F904F903F90DC
:103CB0002F900895CF92DF92EF92FF920F931F9370
:103CC000CF93DF93CDB7DEB766970FB6F894DEBF1C
:103CD0000FBECDBF6C017B016CEF71E0CE01019690
:103CE0002B8B3C8B4D8B5E8B0E940012B701CE015B
:103CF00007960E94F7112B893C894D895E898901BD
:103D00009A01AE01495F5F4FB601CE010D960E9448
:103D1000D31BBE01635F7F4FCE0101960E94B91194
:103D2000CE010D960E94F211CE0107960E94F2116B
:103D3000B701CE0101960E9441117C01CE0101968E
:103D40000E94F21181E0EF20E09409F480E0669691
:103D50000FB6F894DEBF0FBECDBFDF91CF911F919C
:103D60000F91FF90EF90DF90CF9008952F923F92A8
:103D70004F925F926F927F928F929F92AF92BF927B
:103D8000CF92DF92EF92FF920F931F93CF93DF9327
:103D9000EC011B014A015901270138016CEF71E068
:103DA0000E9400120E94C71B6B017C010E94C71B6E
:103DB000DC01CB018C199D09AE09BF09841595055D
:103DC000A605B705B8F5D1018D919C91DC01ED9167
:103DD000FC910480F581E02D09951816190634F739
:103DE000D1018D919C91DC01ED91FC910680F781D0
:103DF000E02D0995882339F3682FCE010E945B11CD
:103E0000B401CE010E9441110196A1F4B501CE0189
:103E10000E944111019671F4BE01C1010E9410146B
:103E2000672B682B692B79F26CEF71E0CE010E9451
:103E30008B11C9CFCE01DF91CF911F910F91FF90D0
:103E4000EF90DF90CF90BF90AF909F908F907F903A
:103E50006F905F904F903F902F900895CF92DF9298
:103E6000EF92FF920F931F93CF93DF9300D000D078
:103E700000D0CDB7DEB78C016CEF71E0CE010196BA
:103E80000E9400120E94C71B6B017C010E94C71B8D
:103E9000AB01BC014C195D096E097F094A3051051F
:103EA0006105710570F5D8018D919C91DC01ED9152
:103EB000FC910480F581E02D0995892B39F3F801F7
:103EC00080819181DC01ED91FC910680F781E02DEC
:103ED00009958823D9F2682FCE0101960E945B11C3
:103EE000BE016F5F7F4FC8010E941014672B682BC3
:103EF000692B41F26CEF71E0CE0101960E948B11AB
:103F0000C1CFCE0101960E94F21126960FB6F89409
:103F1000DEBF0FBECDBFDF91CF911F910F91FF90FC
:103F2000EF90DF90CF9008950F931F93CF93DF937F
:103F3000EC01462F50E060E070E02AE00E94A212FF
:103F40008C016AEF71E0CE010E948D12800F911FEB
:103F5000DF91CF911F910F910895CF92DF92EF9251
:103F6000FF920F931F93CF93DF93CDB7DEB7A49744
:103F70000FB6F894DEBF0FBECDBF6C018B01BA0146
:103F8000CE0149960E94F711B801CE014F960E94CA
:103F9000F7116CEF71E0CE0143960E940012C6014A
:103FA0000E942E1F68E472E0F601808191810E94D8
:103FB0006912BE01615E7F4FF601808191810E948E
:103FC0005B1264E472E0F601808191810E946912C3
:103FD000BE01675E7F4FF601808191810E945B1276
:103FE00062E472E0F601808191810E94EB126CE440
:103FF00072E0CE0107960E94001266EF71E0CE01DA
:1040000001960E94001210E1E12E17E2F12E00E06D
:1040100010E09E01295F3F4FAE014F5F5F4FB60139
:10402000CE010D960E94B61EBE01635F7F4FCE018A
:1040300043960E94B911CE010D960E94F211CE0155
:1040400001960E94F211CE0107960E94F21166EFCE
:1040500071E0CE0101960E940012BE016F5F7F4F9A
:10406000CE0143960E9441116C01CE0101960E943F
:10407000F211CE0143960E94F211CE014F960E949A
:10408000F211CE0149960E94F21181E0CD20C09438
:1040900009F480E0A4960FB6F894DEBF0FBECDBF42
:1040A000DF91CF911F910F91FF90EF90DF90CF9014
:1040B00008958F929F92AF92BF92CF92DF92EF922C
:1040C000FF920F931F93CF93DF93CDB7DEB7AA97DD
:1040D0000FB6F894DEBF0FBECDBF8C0149015A0167
:1040E000CE014F960E94F71161E572E0CE018596F0
:1040F0000E9400126CEF71E0CE0149960E940012FE
:10410000C8010E942E1F65E372E0D8018D919C9139
:104110000E9469122AE041E050E060E070E0F8019E
:10412000808191810E94A21262E372E0D8018D9198
:104130009C910E946912BE016B5D7F4FF8018081E6
:1041400091810E945B126EE272E0D8018D919C9188
:104150000E946912BE01615E7F4FF80180819181EA
:104160000E945B126BE272E0D8018D919C910E94DB
:104170006912F801E080F1802AE0B501A401C701CD
:104180000E94A2126AEF71E0C7010E948D1265E5DC
:1041900072E0CE010D960E94001265E672E0CE013B
:1041A00007960E94001266EF71E0CE0101960E9410
:1041B00000126CEF71E0CE0143960E9400120E9443
:1041C000C71B6B017C010E94C71BDC01CB018C1952
:1041D0009D09AE09BF0980319742A105B105A0F143
:1041E000BE016D5E7F4FCE0149960E94B911CE018E
:1041F00043960E94F211CE0101960E94F211CE0167
:1042000007960E94F211CE010D960E94F21166EF00
:1042100071E0CE0107960E940012BE01695F7F4FD8
:10422000CE0149960E944111019609F065C04EC029
:10423000D8018D919C91DC01ED91FC910680F78174
:10424000E02D099581110EC0D8018D919C91DC0162
:10425000ED91FC910480F581E02D09951816190661
:104260003CF3B1CF682FCE0143960E945B11BE0193
:104270006F5F7F4FCE0143960E944111019609F076
:10428000AFCFBE01695F7F4FCE0143960E944111BF
:10429000019609F0A5CFBE01635F7F4FCE01439623
:1042A0000E944111019609F09BCFBE016D5E7F4FC8
:1042B000C8010E941014672B682B692B29F26CEF40
:1042C00071E0CE0143960E948B11BECF65E572E08E
:1042D000CE0101960E940012BE016F5F7F4FCE019A
:1042E00049960E94411111E0019609F410E0CE01B7
:1042F00001960E94F21101C011E0CE0107960E94C2
:10430000F211CE0149960E94F211CE0185960E94CB
:10431000F211CE014F960E94F211812FAA960FB68C
:10432000F894DEBF0FBECDBFDF91CF911F910F91EB
:10433000FF90EF90DF90CF90BF90AF909F908F90C5
:1043400008952091480390914703213208F04AC014
:10435000809124038111FCCF32E03093240331E0BB
:10436000309323033FEF30932203109221032093D5
:104370002003A7E2B3E040E053E0FA013E2F341BF4
:10438000321718F43D913193F9CF1092FF0220912A
:10439000FF02990F922B9093FF029091FE029130B1
:1043A00061F41092FE029091FF029093BB009091F5
:1043B000BC0093FDF8CF95EC01C095EE9093BC0046
:1043C000909124039230E1F3909122039F3F79F082
:1043D00080912203803241F080912203803331F0BA
:1043E00084E005C081E003C082E001C083E0109258
:1043F0002603109248031092250308952F923F92AE
:104400004F925F926F927F928F929F92AF92BF92E4
:10441000CF92DF92EF92FF920F931F93CF93DF9390
:10442000CDB7DEB72E970FB6F894DEBF0FBECDBF67
:104430007C018DB79EB79A87898741155105C1F4D4
:10444000D70156964D915C9157974115510581F4CE
:104450008091490690914A06019611F481E090E01E
:1044600090934A06809349064091490650914A0626
:10447000D701ED91FC9111978281882309F448C0FE
:10448000862F8D7F41F0663031F058968D919C914A
:1044900059970197E9F52115310509F05BC1212CE8
:1044A000312CB5E02B0E311CEDB7FEB7E219F30944
:1044B0000FB6F894FEBF0FBEEDBF8DB79EB7019645
:1044C00098878F836183542745275427DC011296F0
:1044D0005C934E931197902F812F14969C938E93FB
:1044E000139721153105D9F5A12CB12CA214B304D1
:1044F00008F440C0A214B30409F4DCC0F7018081C1
:1045000091810E942208D70159961C921E925897B9
:1045100009851A850FB6F8941EBF0FBE0DBF098519
:104520001A850FB6F8941EBF0FBE0DBF2E960FB69C
:10453000F894DEBF0FBECDBFDF91CF911F910F91D9
:10454000FF90EF90DF90CF90BF90AF909F908F90B3
:104550007F906F905F904F903F902F90089501153E
:10456000110511F28DB79EB70696A801B9010E94F8
:10457000DE2FBACF81010A191B090832110510F08C
:1045800008E210E0D701ED91FC91C080D1802801B4
:10459000612C712CC6010E942E1F6FE172E0F601A2
:1045A000808191810E9469122AE041E050E060E040
:1045B00070E0D6018D919C910E94A2126DE172E093
:1045C000F601808191810E946912D6018D909C90A4
:1045D0002AE0B301A201C4010E94A2126AEF71E0B5
:1045E000C4010E948D126BE672E0CE0101960E941A
:1045F000001228E833E140E050E0BE016F5F7F4FDA
:10460000C6010E945A1E982ECE0101960E94F211F8
:10461000911003C000E010E041C0C6010E942E1FAF
:104620008F8098848A0C9B1C20E030E0A90124151F
:10463000350546055705D0F4F60180819181D401F6
:104640006D914D01DC01ED91FC910190F081E02D27
:104650002B873C874D875E8709952B853C854D854B
:104660005E852F5F3F4F4F4F5F4FE1CF6DE672E0AA
:10467000CE0101960E94001220E137E240E050E0B6
:10468000BE016F5F7F4FC6010E945A1ED82ECE0119
:1046900001960E94F211DD2009F4BCCF60E070E0C9
:1046A000CB010E948D1B0115110509F427CFA00E27
:1046B000B11E1CCF0E94C71B4B015C01F701828910
:1046C0009389A489B589AC01BD0125E076956795EC
:1046D000579547952A95D1F78C019D01041B150B21
:1046E000260B370BB901A80182859385A485B58572
:1046F00095018401081B190B2A0B3B0BD901C8013A
:1047000035E0B695A795979587953A95D1F7009797
:10471000A105B10519F48FEF9FEFDC01840F951F00
:10472000A61FB71FF701828B938BA48BB58BC29703
:10473000A105B10548F4808191810E942208D7012A
:1047400059961C921E925897F70182869386A486EA
:10475000B586DECE1801A5CEDC01ED91FC91119756
:1047600001900020E9F7ED93FC930895CF93DF9338
:10477000CDB7DEB7A2970FB6F894DEBF0FBECDBFA0
:10478000789484B5826084BD84B5816084BD85B52C
:10479000826085BD85B5816085BD80916E00816038
:1047A00080936E00109281008091810082608093DE
:1047B00081008091810081608093810080918000E0
:1047C0008160809380008091B10084608093B1000B
:1047D0008091B00081608093B00080917A00846005
:1047E00080937A0080917A00826080937A00809131
:1047F0007A00816080937A0080917A00806880934B
:104800007A001092C10062E08091C5030E94DB1A19
:1048100080E398EFAFEFBFEF8093C9039093CA0393
:10482000A093CB03B093CC03E0918E04F0918F045E
:1048300082E08083E0918A04F0918B041082E09101
:104840008C04F0918D048FEC808310929604E0919B
:104850009204F091930486E08083E0919004F091BB
:104860009104808180618083E0919004F0919104B3
:10487000808188608083E0919004F0919104808130
:1048800080688083E0919004F091910480818F7D15
:1048900080836AE070E080E090E00E948D1B809150
:1048A0007C0490917D0497FF21C00E94C71B4EE5B8
:1048B00054E0EAEFF3E002ED13E0DA011D92AD01FE
:1048C00011921192D8016D937D938D939D938D01DB
:1048D0009F01225B3F4FD9011D921C92B4E0EE3044
:1048E000FB0759F710927D0410927C0480917C04A0
:1048F00090917D040A970CF048C0EAEFF3E000E0E5
:1049000010E081919191892B31F00F5F1F4F0A3098
:104910001105B9F73AC0F801EE0FFF1FEE0FFF1FA8
:10492000E25FFB4F88E293E2A0E0B0E080839183F6
:10493000A283B383F801EE0FFF1FE650FC4F83E420
:1049400099E091838083F801EE0FFF1FEA5CFB4F33
:1049500011821082F801E25AFB4F81E080830E94AD
:10496000C71B000F111F000F111FF801EE52FC4F63
:10497000608371838283938380917C0490917D0412
:10498000019690937D0480937C048FEB91E090934B
:104990002405809323058BE195E090933C0580935B
:1049A0003B05E0912105F09122059183808384EFFE
:1049B00096E090931E0580931D05F0932005E093EB
:1049C0001F05DF01A85FBE4F80EE91E08D939C93A1
:1049D000E65FFE4F8AEF90E29183808364EF71E09F
:1049E00080E090E00E948D1B00913B0510913C05FA
:1049F000C8010E942E1F60E071E0F8018081918162
:104A00000E94691260E0D8018D919C910E94941FD0
:104A100066EF71E0CE0101960E94001228EE33E0AD
:104A200040E050E0BE016F5F7F4FC8010E945A1EF8
:104A3000982ECE0101960E94F211992009F4E9C145
:104A4000A0903B05B0903C056CEF71E0CE0149961B
:104A50000E940012C5010E942E1F68EB7BE080E0DF
:104A600090E00E948D1B6FEC70E0F50180819181D8
:104A70000E94EB1262EF71E0CE0101960E940012DB
:104A800069EF71E0CE0107960E94001266EF71E0B7
:104A9000CE010D960E94001260E1C62E67E2D62E6E
:104AA000E12CF12C8E01075E1F4F9E012F5F3F4FBF
:104AB000AE01495F5F4FBE01635F7F4FC5010E943A
:104AC000561DCE010D960E94F211CE0107960E944E
:104AD000F211CE0101960E94F211C0903B05D090D8
:104AE0003C056CEF71E0CE0143960E940012C601B6
:104AF0000E942E1F66ED70E0D6018D919C910E9460
:104B0000691261E0F601808191810E94941F6DEF2E
:104B100071E0CE0107960E94001266EF71E0CE01AF
:104B200001960E94001218EEE12E13E0F12E00E033
:104B300010E09E01295F3F4FAE014F5F5F4FB6010E
:104B4000CE010D960E94B61EBE01635F7F4FCE015F
:104B500043960E94B911CE010D960E94F211CE012A
:104B600001960E94F211CE0107960E94F21166EFA3
:104B700071E0CE0101960E940012CE0101960E94C2
:104B8000F211CE0143960E94F211A0903B05B09025
:104B90003C056CEF71E0CE0143960E940012C50106
:104BA0000E942E1F6CEE70E0D5018D919C910E94A9
:104BB000EB1262EF71E0CE010D960E9400126DE0E3
:104BC00072E0CE0107960E94001266EF71E0CE01FE
:104BD00001960E940012E8EECE2EE3E0DE2EE12CDC
:104BE000F12C8E010D5E1F4F9E01235F3F4FAE01E2
:104BF000495F5F4FBE016F5F7F4FC5010E94561D29
:104C0000182FCE0101960E94F211CE0107960E9444
:104C1000F211CE010D960E94F211112331F0CE0156
:104C200043960E943611862E01C0912CCE014396E8
:104C30000E94F211992009F4E8C0B1E08B1609F442
:104C400076C06CEF71E0CE0143960E940012C50160
:104C50000E942E1F61EE70E0F501808191810E941B
:104C6000691261E0D5018D919C910E94941F6FE0C3
:104C700072E0CE0107960E94001266EF71E0CE014D
:104C80000D960E94001218EEE12E13E0F12E00E0C6
:104C900010E09E01295F3F4FAE01435F5F4FB501BA
:104CA000CE0101960E94B61EBE016F5F7F4FCE01FE
:104CB00043960E94B911CE0101960E94F211CE01D5
:104CC0000D960E94F211CE0107960E94F21166EF36
:104CD00071E0CE0101960E940012BE016F5F7F4F0E
:104CE000CE0143960E9441110196B1F46FE072E04B
:104CF000CE0107960E940012BE01695F7F4FCE0170
:104D000043960E94411199249394019609F4912CA1
:104D1000CE0107960E94F211CE0101960E94F21177
:104D2000CE0143960E94F211992009F46EC069E108
:104D300072E0CE0101960E94001265E272E0CE019F
:104D400007960E940012AE014F5F5F4FBE01695F80
:104D50007F4F80913B0590913C050E94AD1F182F1D
:104D6000CE0107960E94F211CE0101960E94F21127
:104D7000112309F44AC0A0903B05B0903C056CEFAC
:104D800071E0CE0143960E940012C5010E942E1FC1
:104D900067EF70E0D5018D919C910E94EB1262EF5C
:104DA00071E0CE0101960E94001269EF71E0CE0120
:104DB00007960E94001266EF71E0CE010D960E94E8
:104DC000001248EEC42E43E0D42EE12CF12C8E01CB
:104DD0000D5E1F4F9E012F5F3F4FAE01495F5F4F3A
:104DE000BE01635F7F4FC5010E94561DCE010D9627
:104DF0000E94F211CE0107960E94F211CE01019697
:104E00000E94F211C8010E94F211CE0149960E943F
:104E1000F21180912105909122050E9422081092A2
:104E20003A05109239050E94C71B6B017C018091E5
:104E3000390590913A05019791F00E94C71BDC015A
:104E4000CB018C199D09AE09BF0980379741A10597
:104E5000B10528F481E295E00E945B0DE8CF8091D6
:104E6000390590913A050197A1F610927F021092B0
:104E70007E0210922603109248031092240311E040
:104E8000109323031092FE0261E082E10E94AB1AAC
:104E900061E083E10E94AB1A8091B9008E7F80931C
:104EA000B9008091B9008D7F8093B90088E4809328
:104EB000B80085E48093BC00CE0101960E948A1C54
:104EC00010938A0260E08BE00E94AB1A60E08AE0F7
:104ED0000E94AB1A60E085E00E94AB1A60E086E0B9
:104EE0000E94AB1A60E089E00E94AB1AC12CD12C61
:104EF00038ECE32E32E4F32E8BEA93E00E940015A7
:104F000087E593E00E94001581E893E00E94001578
:104F10008CE693E00E94001586E993E00E9400155C
:104F200081E295E00E945B0D0E94C71B22ED33E0F9
:104F30003AA329A32AE4222E24E0322EF10118A25A
:104F40001F8E178E168E9F0120553109D9012D9184
:104F50003C91232B09F449C0A9A1BAA18D909D9041
:104F6000AD90BC901397DC960D911D912D913C91C5
:104F7000DF972B013C01481859086A087B08401646
:104F800051066206730688F1080D191D2A1D3B1D86
:104F90000D931D932D933C9313972F8D38A1225A77
:104FA0003B4FD9012C91222301F19F01245131095A
:104FB000D9012D913C912115310519F421E030E002
:104FC00012C040815181421753077CF4A1E0B0E048
:104FD000B78FA68F4F5F5F4F5183408342175307B0
:104FE00024F022E030E0378F268FAF8DB8A11196E4
:104FF000B8A3AF8F29A13AA12C5F3F4F3AA329A3B1
:1050000032961A9709F09DCF8AEFA82E83E0B82E2A
:105010000EE014E0812C912CD1015E968D919C9133
:105020005F978130910519F0029731F02BC0D501BF
:10503000ED91FC91099526C0D501ED91FC91099562
:1050400080917C0490917D040097E1F0F50120812E
:105050003181232BB9F011821082F401E25AFB4F07
:105060001082D1015F961C921E925E97F801108209
:105070001182128213821D921C92019790937D04DB
:1050800080937C04FFEF8F1A9F0A22E0A20EB11CCE
:105090000C5F1F4F32E0230E311C8AE0881691040A
:1050A00009F0BACF80918A02813009F0B2C2109221
:1050B0008B02409186025091870260918802709124
:1050C000890200912401109125012091260130913F
:1050D000270140175107620773070CF474C0009151
:1050E00020011091210120912201309123014017CC
:1050F0005107620773070CF066C0809385028BEA44
:1051000093E00E94C41581110EC020911C013091C2
:105110001D0140911E0150911F01609184028BEA94
:1051200093E00E94D31586E993E00E94C415811193
:105130000EC020911C0130911D0140911E01509123
:105140001F0160911B0186E993E00E94D31581E85D
:1051500093E00E94C41581110EC020911C01309172
:105160001D0140911E0150911F0160911A0181E8BB
:1051700093E00E94D3158CE693E00E94C415811140
:105180000EC020911C0130911D0140911E015091D3
:105190001F01609119018CE693E00E94D31587E509
:1051A00093E00E94C41581110EC020911C01309122
:1051B0001D0140911E0150911F016091830287E5FE
:1051C00093E00E94D3158091860290918702A0916E
:1051D0008802B09189024091200150912101609193
:1051E00022017091230184179507A607B7070CF4D5
:1051F00075C0409115015091160160911701709191
:10520000180184179507A607B7070CF067C082E05E
:10521000809385028BEA93E00E94C41581110EC031
:1052200020911C0130911D0140911E0150911F01E0
:10523000609114018BEA93E00E94D31586E993E014
:105240000E94C41581110EC020911C0130911D01D6
:1052500040911E0150911F016091130186E993E076
:105260000E94D31581E893E00E94C41581110EC0FD
:1052700020911C0130911D0140911E0150911F0190
:105280006091120181E893E00E94D3158CE693E0CF
:105290000E94C41581110EC020911C0130911D0186
:1052A00040911E0150911F01609111018CE693E025
:1052B0000E94D31587E593E00E94C41581110EC0AA
:1052C00020911C0130911D0140911E0150911F0140
:1052D0006091820287E593E00E94D3158091860257
:1052E00090918702A0918802B091890240911501A6
:1052F000509116016091170170911801841795075C
:10530000A607B7070CF475C040910D0150910E012E
:1053100060910F017091100184179507A607B707D8
:105320000CF067C0A3E0A09385028BEA93E00E9493
:10533000C41581110EC020911C0130911D014091B6
:105340001E0150911F0160910C018BEA93E00E94B5
:10535000D31586E993E00E94C41581110EC02091F7
:105360001C0130911D0140911E0150911F0160915F
:105370000B0186E993E00E94D31581E893E00E9437
:10538000C41581110EC020911C0130911D01409166
:105390001E0150911F0160910A0181E893E00E9473
:1053A000D3158CE693E00E94C41581110EC02091A4
:1053B0001C0130911D0140911E0150911F0160910F
:1053C00081028CE693E00E94D31587E593E00E946A
:1053D000C41581110EC020911C0130911D01409116
:1053E0001E0150911F016091800287E593E00E94A9
:1053F000D3158091860290918702A0918802B09186
:10540000890240910D0150910E0160910F01709140
:10541000100184179507A607B7070CF475C04091D3
:1054200006015091070160910801709109018417EC
:105430009507A607B7070CF067C0B4E0B0938502E4
:105440008BEA93E00E94C41581110EC020911C01CB
:1054500030911D0140911E0150911F016091050185
:105460008BEA93E00E94D31586E993E00E94C4156D
:1054700081110EC020911C0130911D0140911E012F
:1054800050911F016091040186E993E00E94D315B9
:1054900081E893E00E94C41581110EC020911C0187
:1054A00030911D0140911E0150911F016091030137
:1054B00081E893E00E94D3158CE693E00E94C41526
:1054C00081110EC020911C0130911D0140911E01DF
:1054D00050911F01609102018CE693E00E94D31568
:1054E00087E593E00E94C41581110EC020911C0134
:1054F00030911D0140911E0150911F0160910101E9
:1055000087E593E00E94D3158091860290918702EF
:10551000A0918802B0918902409106015091070143
:10552000609108017091090184179507A607B707D4
:1055300074F44091240150912501609126017091ED
:10554000270184179507A607B7070CF062C0E5E0AE
:10555000E09385028BEA93E00E94C41581110DC08F
:1055600020911C0130911D0140911E0150911F019D
:1055700060E08BEA93E00E94D31586E993E00E94F5
:10558000C41581110DC020911C0130911D01409165
:105590001E0150911F0160E086E993E00E94D3153F
:1055A00081E893E00E94C41581110DC020911C0177
:1055B00030911D0140911E0150911F0160E081E872
:1055C00093E00E94D3158CE693E00E94C4158111EC
:1055D0000DC020911C0130911D0140911E01509180
:1055E0001F0160E08CE693E00E94D31587E593E00D
:1055F0000E94C41581110DC020911C0130911D0124
:1056000040911E0150911F0160E087E593E00E94E8
:10561000D31580918A028111A2C080918B028111E1
:1056200053C0C092BA03D092BB03E092BC03F09285
:10563000BD031092B6031092B7031092B8031092F4
:10564000B903C092A503D092A603E092A703F092FB
:10565000A8031092A1031092A2031092A303109228
:10566000A403C0929003D0929103E0929203F0922F
:10567000930310928C0310928D0310928E0310925C
:105680008F03C0927B03D0927C03E0927D03F09263
:105690007E03109277031092780310927903109290
:1056A0007A03C0926603D0926703E0926803F09297
:1056B00069031092620310926303109264031092C4
:1056C000650381E080938B028BEA93E00E94C4150E
:1056D000811109C020ED37E040E050E060E08BEA46
:1056E00093E00E94D31586E993E00E94C4158111CE
:1056F00009C020ED37E040E050E060E086E993E04B
:105700000E94D31581E893E00E94C415811109C05D
:1057100020ED37E040E050E060E081E893E00E9457
:10572000D3158CE693E00E94C415811109C020EDC9
:1057300037E040E050E060E08CE693E00E94D31553
:1057400087E593E00E94C415811109C020ED37E080
:1057500040E050E060E087E593E00E94D3150E94AE
:105760009519CACBEF92FF920F931F93CF93DF93BC
:10577000CDB7DEB7C656D1090FB6F894DEBF0FBE5F
:10578000CDBF7C0146E650E062EA71E0CE010196B1
:105790000E94BD3106E610E09E012F5F3F4F40E0C2
:1057A00050E061E1C7010E94FE21CA59DF4F0FB6E8
:1057B000F894DEBF0FBECDBFDF91CF911F910F9147
:1057C000FF90EF900895CF93DF93EEE7F4E013821C
:1057D000128248EE53E060E070E0448355836683B4
:1057E000778382E391E09183808385EC90E09587D5
:1057F000848784EC90E09787868780EC90E0918B9B
:10580000808B81EC90E0938B828B82EC90E0958B87
:10581000848B86EC90E0978B868B118E128E138E84
:10582000148EA9E4B3E013961C921E92129714965C
:105830004D935D936D937C93179782E491E08D93E4
:105840009C93CDE3D5E0198218821A82109241060A
:10585000109240061092430610924206109244069F
:10586000109246061092450610924806109247067E
:10587000A1E2B5E01196DC93CE9313961C921E9292
:10588000129715961C921E92149716961D921D92B1
:105890001D921C9219971A961D921D921D921C9290
:1058A0001D971E961D921D921D921C925197529605
:1058B0001D921D921D921C92559757961C921E92F6
:1058C000569759961C921E9258975B961C921E9260
:1058D0005A97ABE1B5E01196FC93EE9313961C92A8
:1058E0001E92129715961C921E9214978FEF9FEF9F
:1058F00090937D0480937C04A0ECB3E082E0159645
:105900008C93159786E116968C931697E9E6F2E04C
:10591000E4911796EC931797E5E5F2E0E491189679
:10592000EC93189740E85EE360E070E01D964D93BD
:105930005D936D937C935097EBEAF3E08BE080836B
:1059400011861286118212821382148215821682A7
:105950001782108613861486158616861786108A77
:10596000118A128A148A138AE6E9F3E08AE08083B6
:105970001186128611821282138214821582168277
:105980001782108613861486158616861786108A47
:10599000118A128A148A138AE1E8F3E085E0808391
:1059A0001186128611821282138214821582168247
:1059B0001782108613861486158616861786108A17
:1059C000118A128A148A138AECE6F3E086E0808357
:1059D0001186128611821282138214821582168217
:1059E0001782108613861486158616861786108AE7
:1059F000118A128A148A138AE7E5F3E089E080832A
:105A000011861286118212821382148215821682E6
:105A10001782108613861486158616861786108AB6
:105A2000118A128A148A138A8EE090E090935603AA
:105A300080935503DF91CF910895991B79E004C0BD
:105A4000991F961708F0961B881F7A95C9F78095BD
:105A50000895A1E21A2EAA1BBB1BFD010DC0AA1FAF
:105A6000BB1FEE1FFF1FA217B307E407F50720F0C7
:105A7000A21BB30BE40BF50B661F771F881F991F42
:105A80001A9469F760957095809590959B01AC018B
:105A9000BD01CF010895052E97FB1EF400940E94CE
:105AA000622D57FD07D00E94292D07FC03D04EF42C
:105AB0000C94622D50954095309521953F4F4F4F56
:105AC0005F4F089590958095709561957F4F8F4FAA
:105AD0009F4F0895EE0FFF1F0590F491E02D09945C
